{
	"data": {
		"bytecode": {
			"linkReferences": {},
			"object": "608060405234801561000f575f80fd5b503360025f6101000a81548173ffffffffffffffffffffffffffffffffffffffff021916908373ffffffffffffffffffffffffffffffffffffffff16021790555061358a8061005d5f395ff3fe6080604052600436106100dc575f3560e01c80639fd133071161007e578063e1cbd1cb11610058578063e1cbd1cb146102b2578063f3f073ad146102ee578063f555ffb41461032a578063fde6adb114610352576100dc565b80639fd1330714610224578063d596380e14610260578063dd8d924914610288576100dc565b806360353db9116100ba57806360353db91461016c57806383c5a81d146101a85780638da5cb5b146101d057806390adec6f146101fa576100dc565b8063040c0abb146100e057806318012f7b1461011c57806324d822bf14610144575b5f80fd5b3480156100eb575f80fd5b50610106600480360381019061010191906126a3565b61036e565b6040516101139190612704565b60405180910390f35b348015610127575f80fd5b50610142600480360381019061013d9190612814565b61037f565b005b34801561014f575f80fd5b5061016a6004803603810190610165919061289c565b6103d2565b005b348015610177575f80fd5b50610192600480360381019061018d91906128c7565b6103f0565b60405161019f9190612704565b60405180910390f35b3480156101b3575f80fd5b506101ce60048036038101906101c9919061289c565b610448565b005b3480156101db575f80fd5b506101e46109a5565b6040516101f1919061297c565b60405180910390f35b348015610205575f80fd5b5061020e6109ca565b60405161021b9190612b13565b60405180910390f35b34801561022f575f80fd5b5061024a600480360381019061024591906126a3565b610abe565b6040516102579190612704565b60405180910390f35b34801561026b575f80fd5b506102866004803603810190610281919061289c565b610acf565b005b348015610293575f80fd5b5061029c610ae4565b6040516102a99190612c28565b60405180910390f35b3480156102bd575f80fd5b506102d860048036038101906102d3919061289c565b610bd9565b6040516102e59190612ca4565b60405180910390f35b3480156102f9575f80fd5b50610314600480360381019061030f919061289c565b610cf2565b6040516103219190612d6c565b60405180910390f35b348015610335575f80fd5b50610350600480360381019061034b9190612db6565b610d5c565b005b61036c60048036038101906103679190612e10565b610e36565b005b5f61037882610fde565b9050919050565b5f80840361038f575f90506103c1565b600184036103a057600190506103c0565b600284036103b157600290506103bf565b600384036103be57600390505b5b5b5b6103cc8184846114d8565b50505050565b6103db8161162f565b6103e481611c84565b6103ed81611c87565b50565b5f816040516020016104029190612eae565b60405160208183030381529060405280519060200120836040516020016104299190612eae565b6040516020818303038152906040528051906020012014905092915050565b6040518060400160405280600e81526020017f7374617274486f727365526163650000000000000000000000000000000000008152506104bd816040518060400160405280600881526020017f616464486f7273650000000000000000000000000000000000000000000000008152506103f0565b1561058f5760025f9054906101000a900473ffffffffffffffffffffffffffffffffffffffff1673ffffffffffffffffffffffffffffffffffffffff163373ffffffffffffffffffffffffffffffffffffffff16146040518060400160405280601a81526020017f4f6e6c79206f776e65722063616e20616464206120686f72736500000000000081525090610589576040517f08c379a00000000000000000000000000000000000000000000000000000000081526004016105809190612f0c565b60405180910390fd5b506108c1565b6105ce816040518060400160405280600981526020017f6164644a6f636b657900000000000000000000000000000000000000000000008152506103f0565b156106a05760025f9054906101000a900473ffffffffffffffffffffffffffffffffffffffff1673ffffffffffffffffffffffffffffffffffffffff163373ffffffffffffffffffffffffffffffffffffffff16146040518060400160405280601b81526020017f4f6e6c79206f776e65722063616e206164642061206a6f636b657900000000008152509061069a576040517f08c379a00000000000000000000000000000000000000000000000000000000081526004016106919190612f0c565b60405180910390fd5b506108c0565b6106df816040518060400160405280600e81526020017f7374617274486f727365526163650000000000000000000000000000000000008152506103f0565b156107b15760025f9054906101000a900473ffffffffffffffffffffffffffffffffffffffff1673ffffffffffffffffffffffffffffffffffffffff163373ffffffffffffffffffffffffffffffffffffffff16146040518060400160405280601d81526020017f4f6e6c79206f776e65722063616e207374617274207468652072616365000000815250906107ab576040517f08c379a00000000000000000000000000000000000000000000000000000000081526004016107a29190612f0c565b60405180910390fd5b506108bf565b6107f0816040518060400160405280600e81526020017f7374617274486f727365526163650000000000000000000000000000000000008152506103f0565b156108be5760025f9054906101000a900473ffffffffffffffffffffffffffffffffffffffff1673ffffffffffffffffffffffffffffffffffffffff163373ffffffffffffffffffffffffffffffffffffffff16146040518060400160405280601e81526020017f4f6e6c79206f776e65722063616e2063616e63656c2074686520726163650000815250906108bc576040517f08c379a00000000000000000000000000000000000000000000000000000000081526004016108b39190612f0c565b60405180910390fd5b505b5b5b5b5f60035f8481526020019081526020015f205f01541415801561092757505f60038111156108f2576108f1612f2c565b5b60035f8481526020019081526020015f206004015f9054906101000a900460ff16600381111561092557610924612f2c565b5b145b610966576040517f08c379a000000000000000000000000000000000000000000000000000000000815260040161095d90612fef565b60405180910390fd5b6003805f8481526020019081526020015f206004015f6101000a81548160ff0219169083600381111561099c5761099b612f2c565b5b02179055505050565b60025f9054906101000a900473ffffffffffffffffffffffffffffffffffffffff1681565b60605f805480602002602001604051908101604052809291908181526020015f905b82821015610ab5578382905f5260205f2090600202016040518060400160405290815f8201548152602001600182018054610a269061303a565b80601f0160208091040260200160405190810160405280929190818152602001828054610a529061303a565b8015610a9d5780601f10610a7457610100808354040283529160200191610a9d565b820191905f5260205f20905b815481529060010190602001808311610a8057829003601f168201915b505050505081525050815260200190600101906109ec565b50505050905090565b5f610ac882611c8a565b9050919050565b610ad881612185565b610ae181610448565b50565b60606001805480602002602001604051908101604052809291908181526020015f905b82821015610bd0578382905f5260205f2090600202016040518060400160405290815f8201548152602001600182018054610b419061303a565b80601f0160208091040260200160405190810160405280929190818152602001828054610b6d9061303a565b8015610bb85780601f10610b8f57610100808354040283529160200191610bb8565b820191905f5260205f20905b815481529060010190602001808311610b9b57829003601f168201915b50505050508152505081526020019060010190610b07565b50505050905090565b610be16123e9565b60065f8381526020019081526020015f206040518060600160405290815f8201548152602001600182015f9054906101000a900473ffffffffffffffffffffffffffffffffffffffff1673ffffffffffffffffffffffffffffffffffffffff1673ffffffffffffffffffffffffffffffffffffffff168152602001600282018054610c6b9061303a565b80601f0160208091040260200160405190810160405280929190818152602001828054610c979061303a565b8015610ce25780601f10610cb957610100808354040283529160200191610ce2565b820191905f5260205f20905b815481529060010190602001808311610cc557829003601f168201915b5050505050815250509050919050565b606060035f8381526020019081526020015f20600501805480602002602001604051908101604052809291908181526020018280548015610d5057602002820191905f5260205f20905b815481526020019060010190808311610d3c575b50505050509050919050565b5f6001600754610d6c9190613097565b90505f60405180606001604052808381526020018473ffffffffffffffffffffffffffffffffffffffff1681526020018581525090508060065f8481526020019081526020015f205f820151815f01556020820151816001015f6101000a81548173ffffffffffffffffffffffffffffffffffffffff021916908373ffffffffffffffffffffffffffffffffffffffff1602179055506040820151816002019081610e179190613267565b509050506001600754610e2a9190613097565b60078190555050505050565b5f60035f8681526020019081526020015f205f015414158015610e9c57505f6003811115610e6757610e66612f2c565b5b60035f8681526020019081526020015f206004015f9054906101000a900460ff166003811115610e9a57610e99612f2c565b5b145b610edb576040517f08c379a0000000000000000000000000000000000000000000000000000000008152600401610ed290612fef565b60405180910390fd5b5f808203610eeb575f9050610f0b565b60018203610efc5760019050610f0a565b60028203610f0957600290505b5b5b5f6040518060a00160405280868152602001878152602001836002811115610f3657610f35612f2c565b5b815260200134815260200185815250905060085f8781526020019081526020015f2081908060018154018082558091505060019003905f5260205f2090600502015f909190919091505f820151815f0155602082015181600101556040820151816002015f6101000a81548160ff02191690836002811115610fbb57610fba612f2c565b5b021790555060608201518160030155608082015181600401555050505050505050565b5f6040518060400160405280601a81526020017f4f6e6c79206f776e65722063616e20616464206120686f727365000000000000815250611054816040518060400160405280600881526020017f616464486f7273650000000000000000000000000000000000000000000000008152506103f0565b156111265760025f9054906101000a900473ffffffffffffffffffffffffffffffffffffffff1673ffffffffffffffffffffffffffffffffffffffff163373ffffffffffffffffffffffffffffffffffffffff16146040518060400160405280601a81526020017f4f6e6c79206f776e65722063616e20616464206120686f72736500000000000081525090611120576040517f08c379a00000000000000000000000000000000000000000000000000000000081526004016111179190612f0c565b60405180910390fd5b50611458565b611165816040518060400160405280600981526020017f6164644a6f636b657900000000000000000000000000000000000000000000008152506103f0565b156112375760025f9054906101000a900473ffffffffffffffffffffffffffffffffffffffff1673ffffffffffffffffffffffffffffffffffffffff163373ffffffffffffffffffffffffffffffffffffffff16146040518060400160405280601b81526020017f4f6e6c79206f776e65722063616e206164642061206a6f636b6579000000000081525090611231576040517f08c379a00000000000000000000000000000000000000000000000000000000081526004016112289190612f0c565b60405180910390fd5b50611457565b611276816040518060400160405280600e81526020017f7374617274486f727365526163650000000000000000000000000000000000008152506103f0565b156113485760025f9054906101000a900473ffffffffffffffffffffffffffffffffffffffff1673ffffffffffffffffffffffffffffffffffffffff163373ffffffffffffffffffffffffffffffffffffffff16146040518060400160405280601d81526020017f4f6e6c79206f776e65722063616e20737461727420746865207261636500000081525090611342576040517f08c379a00000000000000000000000000000000000000000000000000000000081526004016113399190612f0c565b60405180910390fd5b50611456565b611387816040518060400160405280600e81526020017f7374617274486f727365526163650000000000000000000000000000000000008152506103f0565b156114555760025f9054906101000a900473ffffffffffffffffffffffffffffffffffffffff1673ffffffffffffffffffffffffffffffffffffffff163373ffffffffffffffffffffffffffffffffffffffff16146040518060400160405280601e81526020017f4f6e6c79206f776e65722063616e2063616e63656c207468652072616365000081525090611453576040517f08c379a000000000000000000000000000000000000000000000000000000000815260040161144a9190612f0c565b60405180910390fd5b505b5b5b5b5f60015f8054905061146a9190613097565b90505f60405180604001604052808381526020018681525090505f81908060018154018082558091505060019003905f5260205f2090600202015f909190919091505f820151815f015560208201518160010190816114c99190613267565b50505060019350505050919050565b5f60016004546114e89190613097565b905060605f6040518060c0016040528084815260200187600381111561151157611510612f2c565b5b81526020018681526020018581526020015f600381111561153557611534612f2c565b5b81526020018381525090508060035f8581526020019081526020015f205f820151815f01556020820151816001015f6101000a81548160ff0219169083600381111561158457611583612f2c565b5b021790555060408201518160020190805190602001906115a592919061241e565b5060608201518160030190805190602001906115c292919061241e565b506080820151816004015f6101000a81548160ff021916908360038111156115ed576115ec612f2c565b5b021790555060a082015181600501908051906020019061160e92919061241e565b5090505060016004546116219190613097565b600481905550505050505050565b6040518060400160405280600e81526020017f7374617274486f727365526163650000000000000000000000000000000000008152506116a4816040518060400160405280600881526020017f616464486f7273650000000000000000000000000000000000000000000000008152506103f0565b156117765760025f9054906101000a900473ffffffffffffffffffffffffffffffffffffffff1673ffffffffffffffffffffffffffffffffffffffff163373ffffffffffffffffffffffffffffffffffffffff16146040518060400160405280601a81526020017f4f6e6c79206f776e65722063616e20616464206120686f72736500000000000081525090611770576040517f08c379a00000000000000000000000000000000000000000000000000000000081526004016117679190612f0c565b60405180910390fd5b50611aa8565b6117b5816040518060400160405280600981526020017f6164644a6f636b657900000000000000000000000000000000000000000000008152506103f0565b156118875760025f9054906101000a900473ffffffffffffffffffffffffffffffffffffffff1673ffffffffffffffffffffffffffffffffffffffff163373ffffffffffffffffffffffffffffffffffffffff16146040518060400160405280601b81526020017f4f6e6c79206f776e65722063616e206164642061206a6f636b6579000000000081525090611881576040517f08c379a00000000000000000000000000000000000000000000000000000000081526004016118789190612f0c565b60405180910390fd5b50611aa7565b6118c6816040518060400160405280600e81526020017f7374617274486f727365526163650000000000000000000000000000000000008152506103f0565b156119985760025f9054906101000a900473ffffffffffffffffffffffffffffffffffffffff1673ffffffffffffffffffffffffffffffffffffffff163373ffffffffffffffffffffffffffffffffffffffff16146040518060400160405280601d81526020017f4f6e6c79206f776e65722063616e20737461727420746865207261636500000081525090611992576040517f08c379a00000000000000000000000000000000000000000000000000000000081526004016119899190612f0c565b60405180910390fd5b50611aa6565b6119d7816040518060400160405280600e81526020017f7374617274486f727365526163650000000000000000000000000000000000008152506103f0565b15611aa55760025f9054906101000a900473ffffffffffffffffffffffffffffffffffffffff1673ffffffffffffffffffffffffffffffffffffffff163373ffffffffffffffffffffffffffffffffffffffff16146040518060400160405280601e81526020017f4f6e6c79206f776e65722063616e2063616e63656c207468652072616365000081525090611aa3576040517f08c379a0000000000000000000000000000000000000000000000000000000008152600401611a9a9190612f0c565b60405180910390fd5b505b5b5b5b5f60035f8481526020019081526020015f205f015414158015611b0e57505f6003811115611ad957611ad8612f2c565b5b60035f8481526020019081526020015f206004015f9054906101000a900460ff166003811115611b0c57611b0b612f2c565b5b145b611b4d576040517f08c379a0000000000000000000000000000000000000000000000000000000008152600401611b44906133a6565b60405180910390fd5b60055f611b5a9190612469565b600160035f8481526020019081526020015f206004015f6101000a81548160ff02191690836003811115611b9157611b90612f2c565b5b02179055505f5b60035f8481526020019081526020015f2060020180549050811015611c1e57600560035f8581526020019081526020015f206002018281548110611bdf57611bde6133c4565b5b905f5260205f200154908060018154018082558091505060019003905f5260205f20015f90919091909150558080611c16906133f1565b915050611b98565b50600560035f8481526020019081526020015f20600501908054611c43929190612487565b50600260035f8481526020019081526020015f206004015f6101000a81548160ff02191690836003811115611c7b57611c7a612f2c565b5b02179055505050565b50565b50565b5f6040518060400160405280601b81526020017f4f6e6c79206f776e65722063616e206164642061206a6f636b65790000000000815250611d00816040518060400160405280600881526020017f616464486f7273650000000000000000000000000000000000000000000000008152506103f0565b15611dd25760025f9054906101000a900473ffffffffffffffffffffffffffffffffffffffff1673ffffffffffffffffffffffffffffffffffffffff163373ffffffffffffffffffffffffffffffffffffffff16146040518060400160405280601a81526020017f4f6e6c79206f776e65722063616e20616464206120686f72736500000000000081525090611dcc576040517f08c379a0000000000000000000000000000000000000000000000000000000008152600401611dc39190612f0c565b60405180910390fd5b50612104565b611e11816040518060400160405280600981526020017f6164644a6f636b657900000000000000000000000000000000000000000000008152506103f0565b15611ee35760025f9054906101000a900473ffffffffffffffffffffffffffffffffffffffff1673ffffffffffffffffffffffffffffffffffffffff163373ffffffffffffffffffffffffffffffffffffffff16146040518060400160405280601b81526020017f4f6e6c79206f776e65722063616e206164642061206a6f636b6579000000000081525090611edd576040517f08c379a0000000000000000000000000000000000000000000000000000000008152600401611ed49190612f0c565b60405180910390fd5b50612103565b611f22816040518060400160405280600e81526020017f7374617274486f727365526163650000000000000000000000000000000000008152506103f0565b15611ff45760025f9054906101000a900473ffffffffffffffffffffffffffffffffffffffff1673ffffffffffffffffffffffffffffffffffffffff163373ffffffffffffffffffffffffffffffffffffffff16146040518060400160405280601d81526020017f4f6e6c79206f776e65722063616e20737461727420746865207261636500000081525090611fee576040517f08c379a0000000000000000000000000000000000000000000000000000000008152600401611fe59190612f0c565b60405180910390fd5b50612102565b612033816040518060400160405280600e81526020017f7374617274486f727365526163650000000000000000000000000000000000008152506103f0565b156121015760025f9054906101000a900473ffffffffffffffffffffffffffffffffffffffff1673ffffffffffffffffffffffffffffffffffffffff163373ffffffffffffffffffffffffffffffffffffffff16146040518060400160405280601e81526020017f4f6e6c79206f776e65722063616e2063616e63656c2074686520726163650000815250906120ff576040517f08c379a00000000000000000000000000000000000000000000000000000000081526004016120f69190612f0c565b60405180910390fd5b505b5b5b5b5f600180805490506121169190613097565b90505f6040518060400160405280838152602001868152509050600181908060018154018082558091505060019003905f5260205f2090600202015f909190919091505f820151815f015560208201518160010190816121769190613267565b50505060019350505050919050565b60025f9054906101000a900473ffffffffffffffffffffffffffffffffffffffff1673ffffffffffffffffffffffffffffffffffffffff163373ffffffffffffffffffffffffffffffffffffffff1614612214576040517f08c379a000000000000000000000000000000000000000000000000000000000815260040161220b90613482565b60405180910390fd5b5f60035f8381526020019081526020015f205f01541415801561227a57505f600381111561224557612244612f2c565b5b60035f8381526020019081526020015f206004015f9054906101000a900460ff16600381111561227857612277612f2c565b5b145b6122b9576040517f08c379a00000000000000000000000000000000000000000000000000000000081526004016122b090613536565b60405180910390fd5b5f5b60085f8381526020019081526020015f20805490508110156123c9575f60065f60085f8681526020019081526020015f2084815481106122fe576122fd6133c4565b5b905f5260205f2090600502015f015481526020019081526020015f206001015f9054906101000a900473ffffffffffffffffffffffffffffffffffffffff1690508073ffffffffffffffffffffffffffffffffffffffff166108fc60085f8681526020019081526020015f20848154811061237c5761237b6133c4565b5b905f5260205f2090600502016003015490811502906040515f60405180830381858888f193505050501580156123b4573d5f803e3d5ffd5b505080806123c1906133f1565b9150506122bb565b5060085f8281526020019081526020015f205f6123e691906124d5565b50565b60405180606001604052805f81526020015f73ffffffffffffffffffffffffffffffffffffffff168152602001606081525090565b828054828255905f5260205f20908101928215612458579160200282015b8281111561245757825182559160200191906001019061243c565b5b50905061246591906124f6565b5090565b5080545f8255905f5260205f209081019061248491906124f6565b50565b828054828255905f5260205f209081019282156124c4575f5260205f209182015b828111156124c35782548255916001019190600101906124a8565b5b5090506124d191906124f6565b5090565b5080545f8255600502905f5260205f20908101906124f39190612511565b50565b5b8082111561250d575f815f9055506001016124f7565b5090565b5b80821115612552575f8082015f9055600182015f9055600282015f6101000a81549060ff0219169055600382015f9055600482015f905550600501612512565b5090565b5f604051905090565b5f80fd5b5f80fd5b5f80fd5b5f80fd5b5f601f19601f8301169050919050565b7f4e487b71000000000000000000000000000000000000000000000000000000005f52604160045260245ffd5b6125b58261256f565b810181811067ffffffffffffffff821117156125d4576125d361257f565b5b80604052505050565b5f6125e6612556565b90506125f282826125ac565b919050565b5f67ffffffffffffffff8211156126115761261061257f565b5b61261a8261256f565b9050602081019050919050565b828183375f83830152505050565b5f612647612642846125f7565b6125dd565b9050828152602081018484840111156126635761266261256b565b5b61266e848285612627565b509392505050565b5f82601f83011261268a57612689612567565b5b813561269a848260208601612635565b91505092915050565b5f602082840312156126b8576126b761255f565b5b5f82013567ffffffffffffffff8111156126d5576126d4612563565b5b6126e184828501612676565b91505092915050565b5f8115159050919050565b6126fe816126ea565b82525050565b5f6020820190506127175f8301846126f5565b92915050565b5f819050919050565b61272f8161271d565b8114612739575f80fd5b50565b5f8135905061274a81612726565b92915050565b5f67ffffffffffffffff82111561276a5761276961257f565b5b602082029050602081019050919050565b5f80fd5b5f61279161278c84612750565b6125dd565b905080838252602082019050602084028301858111156127b4576127b361277b565b5b835b818110156127dd57806127c9888261273c565b8452602084019350506020810190506127b6565b5050509392505050565b5f82601f8301126127fb576127fa612567565b5b813561280b84826020860161277f565b91505092915050565b5f805f6060848603121561282b5761282a61255f565b5b5f6128388682870161273c565b935050602084013567ffffffffffffffff81111561285957612858612563565b5b612865868287016127e7565b925050604084013567ffffffffffffffff81111561288657612885612563565b5b612892868287016127e7565b9150509250925092565b5f602082840312156128b1576128b061255f565b5b5f6128be8482850161273c565b91505092915050565b5f80604083850312156128dd576128dc61255f565b5b5f83013567ffffffffffffffff8111156128fa576128f9612563565b5b61290685828601612676565b925050602083013567ffffffffffffffff81111561292757612926612563565b5b61293385828601612676565b9150509250929050565b5f73ffffffffffffffffffffffffffffffffffffffff82169050919050565b5f6129668261293d565b9050919050565b6129768161295c565b82525050565b5f60208201905061298f5f83018461296d565b92915050565b5f81519050919050565b5f82825260208201905092915050565b5f819050602082019050919050565b6129c78161271d565b82525050565b5f81519050919050565b5f82825260208201905092915050565b5f5b83811015612a045780820151818401526020810190506129e9565b5f8484015250505050565b5f612a19826129cd565b612a2381856129d7565b9350612a338185602086016129e7565b612a3c8161256f565b840191505092915050565b5f604083015f830151612a5c5f8601826129be565b5060208301518482036020860152612a748282612a0f565b9150508091505092915050565b5f612a8c8383612a47565b905092915050565b5f602082019050919050565b5f612aaa82612995565b612ab4818561299f565b935083602082028501612ac6856129af565b805f5b85811015612b015784840389528151612ae28582612a81565b9450612aed83612a94565b925060208a01995050600181019050612ac9565b50829750879550505050505092915050565b5f6020820190508181035f830152612b2b8184612aa0565b905092915050565b5f81519050919050565b5f82825260208201905092915050565b5f819050602082019050919050565b5f604083015f830151612b715f8601826129be565b5060208301518482036020860152612b898282612a0f565b9150508091505092915050565b5f612ba18383612b5c565b905092915050565b5f602082019050919050565b5f612bbf82612b33565b612bc98185612b3d565b935083602082028501612bdb85612b4d565b805f5b85811015612c165784840389528151612bf78582612b96565b9450612c0283612ba9565b925060208a01995050600181019050612bde565b50829750879550505050505092915050565b5f6020820190508181035f830152612c408184612bb5565b905092915050565b612c518161295c565b82525050565b5f606083015f830151612c6c5f8601826129be565b506020830151612c7f6020860182612c48565b5060408301518482036040860152612c978282612a0f565b9150508091505092915050565b5f6020820190508181035f830152612cbc8184612c57565b905092915050565b5f81519050919050565b5f82825260208201905092915050565b5f819050602082019050919050565b5f612cf883836129be565b60208301905092915050565b5f602082019050919050565b5f612d1a82612cc4565b612d248185612cce565b9350612d2f83612cde565b805f5b83811015612d5f578151612d468882612ced565b9750612d5183612d04565b925050600181019050612d32565b5085935050505092915050565b5f6020820190508181035f830152612d848184612d10565b905092915050565b612d958161295c565b8114612d9f575f80fd5b50565b5f81359050612db081612d8c565b92915050565b5f8060408385031215612dcc57612dcb61255f565b5b5f83013567ffffffffffffffff811115612de957612de8612563565b5b612df585828601612676565b9250506020612e0685828601612da2565b9150509250929050565b5f805f8060808587031215612e2857612e2761255f565b5b5f612e358782880161273c565b9450506020612e468782880161273c565b9350506040612e578782880161273c565b9250506060612e688782880161273c565b91505092959194509250565b5f81905092915050565b5f612e88826129cd565b612e928185612e74565b9350612ea28185602086016129e7565b80840191505092915050565b5f612eb98284612e7e565b915081905092915050565b5f82825260208201905092915050565b5f612ede826129cd565b612ee88185612ec4565b9350612ef88185602086016129e7565b612f018161256f565b840191505092915050565b5f6020820190508181035f830152612f248184612ed4565b905092915050565b7f4e487b71000000000000000000000000000000000000000000000000000000005f52602160045260245ffd5b7f4661696c656420746f2063616e63656c2064756520746f20496e76616c6964205f8201527f52616365204964206f722052616365206d6967687420626520636f6d706c657460208201527f6564000000000000000000000000000000000000000000000000000000000000604082015250565b5f612fd9604283612ec4565b9150612fe482612f59565b606082019050919050565b5f6020820190508181035f83015261300681612fcd565b9050919050565b7f4e487b71000000000000000000000000000000000000000000000000000000005f52602260045260245ffd5b5f600282049050600182168061305157607f821691505b6020821081036130645761306361300d565b5b50919050565b7f4e487b71000000000000000000000000000000000000000000000000000000005f52601160045260245ffd5b5f6130a18261271d565b91506130ac8361271d565b92508282019050808211156130c4576130c361306a565b5b92915050565b5f819050815f5260205f209050919050565b5f6020601f8301049050919050565b5f82821b905092915050565b5f600883026131267fffffffffffffffffffffffffffffffffffffffffffffffffffffffffffffffff826130eb565b61313086836130eb565b95508019841693508086168417925050509392505050565b5f819050919050565b5f61316b6131666131618461271d565b613148565b61271d565b9050919050565b5f819050919050565b61318483613151565b61319861319082613172565b8484546130f7565b825550505050565b5f90565b6131ac6131a0565b6131b781848461317b565b505050565b5b818110156131da576131cf5f826131a4565b6001810190506131bd565b5050565b601f82111561321f576131f0816130ca565b6131f9846130dc565b81016020851015613208578190505b61321c613214856130dc565b8301826131bc565b50505b505050565b5f82821c905092915050565b5f61323f5f1984600802613224565b1980831691505092915050565b5f6132578383613230565b9150826002028217905092915050565b613270826129cd565b67ffffffffffffffff8111156132895761328861257f565b5b613293825461303a565b61329e8282856131de565b5f60209050601f8311600181146132cf575f84156132bd578287015190505b6132c7858261324c565b86555061332e565b601f1984166132dd866130ca565b5f5b82811015613304578489015182556001820191506020850194506020810190506132df565b86831015613321578489015161331d601f891682613230565b8355505b6001600288020188555050505b505050505050565b7f496e76616c69642052616365204964206f722052616365206d696768742062655f8201527f20636f6d706c6574656400000000000000000000000000000000000000000000602082015250565b5f613390602a83612ec4565b915061339b82613336565b604082019050919050565b5f6020820190508181035f8301526133bd81613384565b9050919050565b7f4e487b71000000000000000000000000000000000000000000000000000000005f52603260045260245ffd5b5f6133fb8261271d565b91507fffffffffffffffffffffffffffffffffffffffffffffffffffffffffffffffff820361342d5761342c61306a565b5b600182019050919050565b7f4f6e6c79206f776e65722063616e20726566756e6400000000000000000000005f82015250565b5f61346c601583612ec4565b915061347782613438565b602082019050919050565b5f6020820190508181035f83015261349981613460565b9050919050565b7f4661696c656420746f20726566756e642064756520746f20496e76616c6964205f8201527f52616365204964206f722052616365206d6967687420626520636f6d706c657460208201527f6564000000000000000000000000000000000000000000000000000000000000604082015250565b5f613520604283612ec4565b915061352b826134a0565b606082019050919050565b5f6020820190508181035f83015261354d81613514565b905091905056fea2646970667358221220096376b4b55d72a163d21f7802bfe54981f1fee454266a832e459098cfea7b9d64736f6c63430008140033",
			"opcodes": "PUSH1 0x80 PUSH1 0x40 MSTORE CALLVALUE DUP1 ISZERO PUSH2 0xF JUMPI PUSH0 DUP1 REVERT JUMPDEST POP CALLER PUSH1 0x2 PUSH0 PUSH2 0x100 EXP DUP2 SLOAD DUP2 PUSH20 0xFFFFFFFFFFFFFFFFFFFFFFFFFFFFFFFFFFFFFFFF MUL NOT AND SWAP1 DUP4 PUSH20 0xFFFFFFFFFFFFFFFFFFFFFFFFFFFFFFFFFFFFFFFF AND MUL OR SWAP1 SSTORE POP PUSH2 0x358A DUP1 PUSH2 0x5D PUSH0 CODECOPY PUSH0 RETURN INVALID PUSH1 0x80 PUSH1 0x40 MSTORE PUSH1 0x4 CALLDATASIZE LT PUSH2 0xDC JUMPI PUSH0 CALLDATALOAD PUSH1 0xE0 SHR DUP1 PUSH4 0x9FD13307 GT PUSH2 0x7E JUMPI DUP1 PUSH4 0xE1CBD1CB GT PUSH2 0x58 JUMPI DUP1 PUSH4 0xE1CBD1CB EQ PUSH2 0x2B2 JUMPI DUP1 PUSH4 0xF3F073AD EQ PUSH2 0x2EE JUMPI DUP1 PUSH4 0xF555FFB4 EQ PUSH2 0x32A JUMPI DUP1 PUSH4 0xFDE6ADB1 EQ PUSH2 0x352 JUMPI PUSH2 0xDC JUMP JUMPDEST DUP1 PUSH4 0x9FD13307 EQ PUSH2 0x224 JUMPI DUP1 PUSH4 0xD596380E EQ PUSH2 0x260 JUMPI DUP1 PUSH4 0xDD8D9249 EQ PUSH2 0x288 JUMPI PUSH2 0xDC JUMP JUMPDEST DUP1 PUSH4 0x60353DB9 GT PUSH2 0xBA JUMPI DUP1 PUSH4 0x60353DB9 EQ PUSH2 0x16C JUMPI DUP1 PUSH4 0x83C5A81D EQ PUSH2 0x1A8 JUMPI DUP1 PUSH4 0x8DA5CB5B EQ PUSH2 0x1D0 JUMPI DUP1 PUSH4 0x90ADEC6F EQ PUSH2 0x1FA JUMPI PUSH2 0xDC JUMP JUMPDEST DUP1 PUSH4 0x40C0ABB EQ PUSH2 0xE0 JUMPI DUP1 PUSH4 0x18012F7B EQ PUSH2 0x11C JUMPI DUP1 PUSH4 0x24D822BF EQ PUSH2 0x144 JUMPI JUMPDEST PUSH0 DUP1 REVERT JUMPDEST CALLVALUE DUP1 ISZERO PUSH2 0xEB JUMPI PUSH0 DUP1 REVERT JUMPDEST POP PUSH2 0x106 PUSH1 0x4 DUP1 CALLDATASIZE SUB DUP2 ADD SWAP1 PUSH2 0x101 SWAP2 SWAP1 PUSH2 0x26A3 JUMP JUMPDEST PUSH2 0x36E JUMP JUMPDEST PUSH1 0x40 MLOAD PUSH2 0x113 SWAP2 SWAP1 PUSH2 0x2704 JUMP JUMPDEST PUSH1 0x40 MLOAD DUP1 SWAP2 SUB SWAP1 RETURN JUMPDEST CALLVALUE DUP1 ISZERO PUSH2 0x127 JUMPI PUSH0 DUP1 REVERT JUMPDEST POP PUSH2 0x142 PUSH1 0x4 DUP1 CALLDATASIZE SUB DUP2 ADD SWAP1 PUSH2 0x13D SWAP2 SWAP1 PUSH2 0x2814 JUMP JUMPDEST PUSH2 0x37F JUMP JUMPDEST STOP JUMPDEST CALLVALUE DUP1 ISZERO PUSH2 0x14F JUMPI PUSH0 DUP1 REVERT JUMPDEST POP PUSH2 0x16A PUSH1 0x4 DUP1 CALLDATASIZE SUB DUP2 ADD SWAP1 PUSH2 0x165 SWAP2 SWAP1 PUSH2 0x289C JUMP JUMPDEST PUSH2 0x3D2 JUMP JUMPDEST STOP JUMPDEST CALLVALUE DUP1 ISZERO PUSH2 0x177 JUMPI PUSH0 DUP1 REVERT JUMPDEST POP PUSH2 0x192 PUSH1 0x4 DUP1 CALLDATASIZE SUB DUP2 ADD SWAP1 PUSH2 0x18D SWAP2 SWAP1 PUSH2 0x28C7 JUMP JUMPDEST PUSH2 0x3F0 JUMP JUMPDEST PUSH1 0x40 MLOAD PUSH2 0x19F SWAP2 SWAP1 PUSH2 0x2704 JUMP JUMPDEST PUSH1 0x40 MLOAD DUP1 SWAP2 SUB SWAP1 RETURN JUMPDEST CALLVALUE DUP1 ISZERO PUSH2 0x1B3 JUMPI PUSH0 DUP1 REVERT JUMPDEST POP PUSH2 0x1CE PUSH1 0x4 DUP1 CALLDATASIZE SUB DUP2 ADD SWAP1 PUSH2 0x1C9 SWAP2 SWAP1 PUSH2 0x289C JUMP JUMPDEST PUSH2 0x448 JUMP JUMPDEST STOP JUMPDEST CALLVALUE DUP1 ISZERO PUSH2 0x1DB JUMPI PUSH0 DUP1 REVERT JUMPDEST POP PUSH2 0x1E4 PUSH2 0x9A5 JUMP JUMPDEST PUSH1 0x40 MLOAD PUSH2 0x1F1 SWAP2 SWAP1 PUSH2 0x297C JUMP JUMPDEST PUSH1 0x40 MLOAD DUP1 SWAP2 SUB SWAP1 RETURN JUMPDEST CALLVALUE DUP1 ISZERO PUSH2 0x205 JUMPI PUSH0 DUP1 REVERT JUMPDEST POP PUSH2 0x20E PUSH2 0x9CA JUMP JUMPDEST PUSH1 0x40 MLOAD PUSH2 0x21B SWAP2 SWAP1 PUSH2 0x2B13 JUMP JUMPDEST PUSH1 0x40 MLOAD DUP1 SWAP2 SUB SWAP1 RETURN JUMPDEST CALLVALUE DUP1 ISZERO PUSH2 0x22F JUMPI PUSH0 DUP1 REVERT JUMPDEST POP PUSH2 0x24A PUSH1 0x4 DUP1 CALLDATASIZE SUB DUP2 ADD SWAP1 PUSH2 0x245 SWAP2 SWAP1 PUSH2 0x26A3 JUMP JUMPDEST PUSH2 0xABE JUMP JUMPDEST PUSH1 0x40 MLOAD PUSH2 0x257 SWAP2 SWAP1 PUSH2 0x2704 JUMP JUMPDEST PUSH1 0x40 MLOAD DUP1 SWAP2 SUB SWAP1 RETURN JUMPDEST CALLVALUE DUP1 ISZERO PUSH2 0x26B JUMPI PUSH0 DUP1 REVERT JUMPDEST POP PUSH2 0x286 PUSH1 0x4 DUP1 CALLDATASIZE SUB DUP2 ADD SWAP1 PUSH2 0x281 SWAP2 SWAP1 PUSH2 0x289C JUMP JUMPDEST PUSH2 0xACF JUMP JUMPDEST STOP JUMPDEST CALLVALUE DUP1 ISZERO PUSH2 0x293 JUMPI PUSH0 DUP1 REVERT JUMPDEST POP PUSH2 0x29C PUSH2 0xAE4 JUMP JUMPDEST PUSH1 0x40 MLOAD PUSH2 0x2A9 SWAP2 SWAP1 PUSH2 0x2C28 JUMP JUMPDEST PUSH1 0x40 MLOAD DUP1 SWAP2 SUB SWAP1 RETURN JUMPDEST CALLVALUE DUP1 ISZERO PUSH2 0x2BD JUMPI PUSH0 DUP1 REVERT JUMPDEST POP PUSH2 0x2D8 PUSH1 0x4 DUP1 CALLDATASIZE SUB DUP2 ADD SWAP1 PUSH2 0x2D3 SWAP2 SWAP1 PUSH2 0x289C JUMP JUMPDEST PUSH2 0xBD9 JUMP JUMPDEST PUSH1 0x40 MLOAD PUSH2 0x2E5 SWAP2 SWAP1 PUSH2 0x2CA4 JUMP JUMPDEST PUSH1 0x40 MLOAD DUP1 SWAP2 SUB SWAP1 RETURN JUMPDEST CALLVALUE DUP1 ISZERO PUSH2 0x2F9 JUMPI PUSH0 DUP1 REVERT JUMPDEST POP PUSH2 0x314 PUSH1 0x4 DUP1 CALLDATASIZE SUB DUP2 ADD SWAP1 PUSH2 0x30F SWAP2 SWAP1 PUSH2 0x289C JUMP JUMPDEST PUSH2 0xCF2 JUMP JUMPDEST PUSH1 0x40 MLOAD PUSH2 0x321 SWAP2 SWAP1 PUSH2 0x2D6C JUMP JUMPDEST PUSH1 0x40 MLOAD DUP1 SWAP2 SUB SWAP1 RETURN JUMPDEST CALLVALUE DUP1 ISZERO PUSH2 0x335 JUMPI PUSH0 DUP1 REVERT JUMPDEST POP PUSH2 0x350 PUSH1 0x4 DUP1 CALLDATASIZE SUB DUP2 ADD SWAP1 PUSH2 0x34B SWAP2 SWAP1 PUSH2 0x2DB6 JUMP JUMPDEST PUSH2 0xD5C JUMP JUMPDEST STOP JUMPDEST PUSH2 0x36C PUSH1 0x4 DUP1 CALLDATASIZE SUB DUP2 ADD SWAP1 PUSH2 0x367 SWAP2 SWAP1 PUSH2 0x2E10 JUMP JUMPDEST PUSH2 0xE36 JUMP JUMPDEST STOP JUMPDEST PUSH0 PUSH2 0x378 DUP3 PUSH2 0xFDE JUMP JUMPDEST SWAP1 POP SWAP2 SWAP1 POP JUMP JUMPDEST PUSH0 DUP1 DUP5 SUB PUSH2 0x38F JUMPI PUSH0 SWAP1 POP PUSH2 0x3C1 JUMP JUMPDEST PUSH1 0x1 DUP5 SUB PUSH2 0x3A0 JUMPI PUSH1 0x1 SWAP1 POP PUSH2 0x3C0 JUMP JUMPDEST PUSH1 0x2 DUP5 SUB PUSH2 0x3B1 JUMPI PUSH1 0x2 SWAP1 POP PUSH2 0x3BF JUMP JUMPDEST PUSH1 0x3 DUP5 SUB PUSH2 0x3BE JUMPI PUSH1 0x3 SWAP1 POP JUMPDEST JUMPDEST JUMPDEST JUMPDEST PUSH2 0x3CC DUP2 DUP5 DUP5 PUSH2 0x14D8 JUMP JUMPDEST POP POP POP POP JUMP JUMPDEST PUSH2 0x3DB DUP2 PUSH2 0x162F JUMP JUMPDEST PUSH2 0x3E4 DUP2 PUSH2 0x1C84 JUMP JUMPDEST PUSH2 0x3ED DUP2 PUSH2 0x1C87 JUMP JUMPDEST POP JUMP JUMPDEST PUSH0 DUP2 PUSH1 0x40 MLOAD PUSH1 0x20 ADD PUSH2 0x402 SWAP2 SWAP1 PUSH2 0x2EAE JUMP JUMPDEST PUSH1 0x40 MLOAD PUSH1 0x20 DUP2 DUP4 SUB SUB DUP2 MSTORE SWAP1 PUSH1 0x40 MSTORE DUP1 MLOAD SWAP1 PUSH1 0x20 ADD KECCAK256 DUP4 PUSH1 0x40 MLOAD PUSH1 0x20 ADD PUSH2 0x429 SWAP2 SWAP1 PUSH2 0x2EAE JUMP JUMPDEST PUSH1 0x40 MLOAD PUSH1 0x20 DUP2 DUP4 SUB SUB DUP2 MSTORE SWAP1 PUSH1 0x40 MSTORE DUP1 MLOAD SWAP1 PUSH1 0x20 ADD KECCAK256 EQ SWAP1 POP SWAP3 SWAP2 POP POP JUMP JUMPDEST PUSH1 0x40 MLOAD DUP1 PUSH1 0x40 ADD PUSH1 0x40 MSTORE DUP1 PUSH1 0xE DUP2 MSTORE PUSH1 0x20 ADD PUSH32 0x7374617274486F72736552616365000000000000000000000000000000000000 DUP2 MSTORE POP PUSH2 0x4BD DUP2 PUSH1 0x40 MLOAD DUP1 PUSH1 0x40 ADD PUSH1 0x40 MSTORE DUP1 PUSH1 0x8 DUP2 MSTORE PUSH1 0x20 ADD PUSH32 0x616464486F727365000000000000000000000000000000000000000000000000 DUP2 MSTORE POP PUSH2 0x3F0 JUMP JUMPDEST ISZERO PUSH2 0x58F JUMPI PUSH1 0x2 PUSH0 SWAP1 SLOAD SWAP1 PUSH2 0x100 EXP SWAP1 DIV PUSH20 0xFFFFFFFFFFFFFFFFFFFFFFFFFFFFFFFFFFFFFFFF AND PUSH20 0xFFFFFFFFFFFFFFFFFFFFFFFFFFFFFFFFFFFFFFFF AND CALLER PUSH20 0xFFFFFFFFFFFFFFFFFFFFFFFFFFFFFFFFFFFFFFFF AND EQ PUSH1 0x40 MLOAD DUP1 PUSH1 0x40 ADD PUSH1 0x40 MSTORE DUP1 PUSH1 0x1A DUP2 MSTORE PUSH1 0x20 ADD PUSH32 0x4F6E6C79206F776E65722063616E20616464206120686F727365000000000000 DUP2 MSTORE POP SWAP1 PUSH2 0x589 JUMPI PUSH1 0x40 MLOAD PUSH32 0x8C379A000000000000000000000000000000000000000000000000000000000 DUP2 MSTORE PUSH1 0x4 ADD PUSH2 0x580 SWAP2 SWAP1 PUSH2 0x2F0C JUMP JUMPDEST PUSH1 0x40 MLOAD DUP1 SWAP2 SUB SWAP1 REVERT JUMPDEST POP PUSH2 0x8C1 JUMP JUMPDEST PUSH2 0x5CE DUP2 PUSH1 0x40 MLOAD DUP1 PUSH1 0x40 ADD PUSH1 0x40 MSTORE DUP1 PUSH1 0x9 DUP2 MSTORE PUSH1 0x20 ADD PUSH32 0x6164644A6F636B65790000000000000000000000000000000000000000000000 DUP2 MSTORE POP PUSH2 0x3F0 JUMP JUMPDEST ISZERO PUSH2 0x6A0 JUMPI PUSH1 0x2 PUSH0 SWAP1 SLOAD SWAP1 PUSH2 0x100 EXP SWAP1 DIV PUSH20 0xFFFFFFFFFFFFFFFFFFFFFFFFFFFFFFFFFFFFFFFF AND PUSH20 0xFFFFFFFFFFFFFFFFFFFFFFFFFFFFFFFFFFFFFFFF AND CALLER PUSH20 0xFFFFFFFFFFFFFFFFFFFFFFFFFFFFFFFFFFFFFFFF AND EQ PUSH1 0x40 MLOAD DUP1 PUSH1 0x40 ADD PUSH1 0x40 MSTORE DUP1 PUSH1 0x1B DUP2 MSTORE PUSH1 0x20 ADD PUSH32 0x4F6E6C79206F776E65722063616E206164642061206A6F636B65790000000000 DUP2 MSTORE POP SWAP1 PUSH2 0x69A JUMPI PUSH1 0x40 MLOAD PUSH32 0x8C379A000000000000000000000000000000000000000000000000000000000 DUP2 MSTORE PUSH1 0x4 ADD PUSH2 0x691 SWAP2 SWAP1 PUSH2 0x2F0C JUMP JUMPDEST PUSH1 0x40 MLOAD DUP1 SWAP2 SUB SWAP1 REVERT JUMPDEST POP PUSH2 0x8C0 JUMP JUMPDEST PUSH2 0x6DF DUP2 PUSH1 0x40 MLOAD DUP1 PUSH1 0x40 ADD PUSH1 0x40 MSTORE DUP1 PUSH1 0xE DUP2 MSTORE PUSH1 0x20 ADD PUSH32 0x7374617274486F72736552616365000000000000000000000000000000000000 DUP2 MSTORE POP PUSH2 0x3F0 JUMP JUMPDEST ISZERO PUSH2 0x7B1 JUMPI PUSH1 0x2 PUSH0 SWAP1 SLOAD SWAP1 PUSH2 0x100 EXP SWAP1 DIV PUSH20 0xFFFFFFFFFFFFFFFFFFFFFFFFFFFFFFFFFFFFFFFF AND PUSH20 0xFFFFFFFFFFFFFFFFFFFFFFFFFFFFFFFFFFFFFFFF AND CALLER PUSH20 0xFFFFFFFFFFFFFFFFFFFFFFFFFFFFFFFFFFFFFFFF AND EQ PUSH1 0x40 MLOAD DUP1 PUSH1 0x40 ADD PUSH1 0x40 MSTORE DUP1 PUSH1 0x1D DUP2 MSTORE PUSH1 0x20 ADD PUSH32 0x4F6E6C79206F776E65722063616E207374617274207468652072616365000000 DUP2 MSTORE POP SWAP1 PUSH2 0x7AB JUMPI PUSH1 0x40 MLOAD PUSH32 0x8C379A000000000000000000000000000000000000000000000000000000000 DUP2 MSTORE PUSH1 0x4 ADD PUSH2 0x7A2 SWAP2 SWAP1 PUSH2 0x2F0C JUMP JUMPDEST PUSH1 0x40 MLOAD DUP1 SWAP2 SUB SWAP1 REVERT JUMPDEST POP PUSH2 0x8BF JUMP JUMPDEST PUSH2 0x7F0 DUP2 PUSH1 0x40 MLOAD DUP1 PUSH1 0x40 ADD PUSH1 0x40 MSTORE DUP1 PUSH1 0xE DUP2 MSTORE PUSH1 0x20 ADD PUSH32 0x7374617274486F72736552616365000000000000000000000000000000000000 DUP2 MSTORE POP PUSH2 0x3F0 JUMP JUMPDEST ISZERO PUSH2 0x8BE JUMPI PUSH1 0x2 PUSH0 SWAP1 SLOAD SWAP1 PUSH2 0x100 EXP SWAP1 DIV PUSH20 0xFFFFFFFFFFFFFFFFFFFFFFFFFFFFFFFFFFFFFFFF AND PUSH20 0xFFFFFFFFFFFFFFFFFFFFFFFFFFFFFFFFFFFFFFFF AND CALLER PUSH20 0xFFFFFFFFFFFFFFFFFFFFFFFFFFFFFFFFFFFFFFFF AND EQ PUSH1 0x40 MLOAD DUP1 PUSH1 0x40 ADD PUSH1 0x40 MSTORE DUP1 PUSH1 0x1E DUP2 MSTORE PUSH1 0x20 ADD PUSH32 0x4F6E6C79206F776E65722063616E2063616E63656C2074686520726163650000 DUP2 MSTORE POP SWAP1 PUSH2 0x8BC JUMPI PUSH1 0x40 MLOAD PUSH32 0x8C379A000000000000000000000000000000000000000000000000000000000 DUP2 MSTORE PUSH1 0x4 ADD PUSH2 0x8B3 SWAP2 SWAP1 PUSH2 0x2F0C JUMP JUMPDEST PUSH1 0x40 MLOAD DUP1 SWAP2 SUB SWAP1 REVERT JUMPDEST POP JUMPDEST JUMPDEST JUMPDEST JUMPDEST PUSH0 PUSH1 0x3 PUSH0 DUP5 DUP2 MSTORE PUSH1 0x20 ADD SWAP1 DUP2 MSTORE PUSH1 0x20 ADD PUSH0 KECCAK256 PUSH0 ADD SLOAD EQ ISZERO DUP1 ISZERO PUSH2 0x927 JUMPI POP PUSH0 PUSH1 0x3 DUP2 GT ISZERO PUSH2 0x8F2 JUMPI PUSH2 0x8F1 PUSH2 0x2F2C JUMP JUMPDEST JUMPDEST PUSH1 0x3 PUSH0 DUP5 DUP2 MSTORE PUSH1 0x20 ADD SWAP1 DUP2 MSTORE PUSH1 0x20 ADD PUSH0 KECCAK256 PUSH1 0x4 ADD PUSH0 SWAP1 SLOAD SWAP1 PUSH2 0x100 EXP SWAP1 DIV PUSH1 0xFF AND PUSH1 0x3 DUP2 GT ISZERO PUSH2 0x925 JUMPI PUSH2 0x924 PUSH2 0x2F2C JUMP JUMPDEST JUMPDEST EQ JUMPDEST PUSH2 0x966 JUMPI PUSH1 0x40 MLOAD PUSH32 0x8C379A000000000000000000000000000000000000000000000000000000000 DUP2 MSTORE PUSH1 0x4 ADD PUSH2 0x95D SWAP1 PUSH2 0x2FEF JUMP JUMPDEST PUSH1 0x40 MLOAD DUP1 SWAP2 SUB SWAP1 REVERT JUMPDEST PUSH1 0x3 DUP1 PUSH0 DUP5 DUP2 MSTORE PUSH1 0x20 ADD SWAP1 DUP2 MSTORE PUSH1 0x20 ADD PUSH0 KECCAK256 PUSH1 0x4 ADD PUSH0 PUSH2 0x100 EXP DUP2 SLOAD DUP2 PUSH1 0xFF MUL NOT AND SWAP1 DUP4 PUSH1 0x3 DUP2 GT ISZERO PUSH2 0x99C JUMPI PUSH2 0x99B PUSH2 0x2F2C JUMP JUMPDEST JUMPDEST MUL OR SWAP1 SSTORE POP POP POP JUMP JUMPDEST PUSH1 0x2 PUSH0 SWAP1 SLOAD SWAP1 PUSH2 0x100 EXP SWAP1 DIV PUSH20 0xFFFFFFFFFFFFFFFFFFFFFFFFFFFFFFFFFFFFFFFF AND DUP2 JUMP JUMPDEST PUSH1 0x60 PUSH0 DUP1 SLOAD DUP1 PUSH1 0x20 MUL PUSH1 0x20 ADD PUSH1 0x40 MLOAD SWAP1 DUP2 ADD PUSH1 0x40 MSTORE DUP1 SWAP3 SWAP2 SWAP1 DUP2 DUP2 MSTORE PUSH1 0x20 ADD PUSH0 SWAP1 JUMPDEST DUP3 DUP3 LT ISZERO PUSH2 0xAB5 JUMPI DUP4 DUP3 SWAP1 PUSH0 MSTORE PUSH1 0x20 PUSH0 KECCAK256 SWAP1 PUSH1 0x2 MUL ADD PUSH1 0x40 MLOAD DUP1 PUSH1 0x40 ADD PUSH1 0x40 MSTORE SWAP1 DUP2 PUSH0 DUP3 ADD SLOAD DUP2 MSTORE PUSH1 0x20 ADD PUSH1 0x1 DUP3 ADD DUP1 SLOAD PUSH2 0xA26 SWAP1 PUSH2 0x303A JUMP JUMPDEST DUP1 PUSH1 0x1F ADD PUSH1 0x20 DUP1 SWAP2 DIV MUL PUSH1 0x20 ADD PUSH1 0x40 MLOAD SWAP1 DUP2 ADD PUSH1 0x40 MSTORE DUP1 SWAP3 SWAP2 SWAP1 DUP2 DUP2 MSTORE PUSH1 0x20 ADD DUP3 DUP1 SLOAD PUSH2 0xA52 SWAP1 PUSH2 0x303A JUMP JUMPDEST DUP1 ISZERO PUSH2 0xA9D JUMPI DUP1 PUSH1 0x1F LT PUSH2 0xA74 JUMPI PUSH2 0x100 DUP1 DUP4 SLOAD DIV MUL DUP4 MSTORE SWAP2 PUSH1 0x20 ADD SWAP2 PUSH2 0xA9D JUMP JUMPDEST DUP3 ADD SWAP2 SWAP1 PUSH0 MSTORE PUSH1 0x20 PUSH0 KECCAK256 SWAP1 JUMPDEST DUP2 SLOAD DUP2 MSTORE SWAP1 PUSH1 0x1 ADD SWAP1 PUSH1 0x20 ADD DUP1 DUP4 GT PUSH2 0xA80 JUMPI DUP3 SWAP1 SUB PUSH1 0x1F AND DUP3 ADD SWAP2 JUMPDEST POP POP POP POP POP DUP2 MSTORE POP POP DUP2 MSTORE PUSH1 0x20 ADD SWAP1 PUSH1 0x1 ADD SWAP1 PUSH2 0x9EC JUMP JUMPDEST POP POP POP POP SWAP1 POP SWAP1 JUMP JUMPDEST PUSH0 PUSH2 0xAC8 DUP3 PUSH2 0x1C8A JUMP JUMPDEST SWAP1 POP SWAP2 SWAP1 POP JUMP JUMPDEST PUSH2 0xAD8 DUP2 PUSH2 0x2185 JUMP JUMPDEST PUSH2 0xAE1 DUP2 PUSH2 0x448 JUMP JUMPDEST POP JUMP JUMPDEST PUSH1 0x60 PUSH1 0x1 DUP1 SLOAD DUP1 PUSH1 0x20 MUL PUSH1 0x20 ADD PUSH1 0x40 MLOAD SWAP1 DUP2 ADD PUSH1 0x40 MSTORE DUP1 SWAP3 SWAP2 SWAP1 DUP2 DUP2 MSTORE PUSH1 0x20 ADD PUSH0 SWAP1 JUMPDEST DUP3 DUP3 LT ISZERO PUSH2 0xBD0 JUMPI DUP4 DUP3 SWAP1 PUSH0 MSTORE PUSH1 0x20 PUSH0 KECCAK256 SWAP1 PUSH1 0x2 MUL ADD PUSH1 0x40 MLOAD DUP1 PUSH1 0x40 ADD PUSH1 0x40 MSTORE SWAP1 DUP2 PUSH0 DUP3 ADD SLOAD DUP2 MSTORE PUSH1 0x20 ADD PUSH1 0x1 DUP3 ADD DUP1 SLOAD PUSH2 0xB41 SWAP1 PUSH2 0x303A JUMP JUMPDEST DUP1 PUSH1 0x1F ADD PUSH1 0x20 DUP1 SWAP2 DIV MUL PUSH1 0x20 ADD PUSH1 0x40 MLOAD SWAP1 DUP2 ADD PUSH1 0x40 MSTORE DUP1 SWAP3 SWAP2 SWAP1 DUP2 DUP2 MSTORE PUSH1 0x20 ADD DUP3 DUP1 SLOAD PUSH2 0xB6D SWAP1 PUSH2 0x303A JUMP JUMPDEST DUP1 ISZERO PUSH2 0xBB8 JUMPI DUP1 PUSH1 0x1F LT PUSH2 0xB8F JUMPI PUSH2 0x100 DUP1 DUP4 SLOAD DIV MUL DUP4 MSTORE SWAP2 PUSH1 0x20 ADD SWAP2 PUSH2 0xBB8 JUMP JUMPDEST DUP3 ADD SWAP2 SWAP1 PUSH0 MSTORE PUSH1 0x20 PUSH0 KECCAK256 SWAP1 JUMPDEST DUP2 SLOAD DUP2 MSTORE SWAP1 PUSH1 0x1 ADD SWAP1 PUSH1 0x20 ADD DUP1 DUP4 GT PUSH2 0xB9B JUMPI DUP3 SWAP1 SUB PUSH1 0x1F AND DUP3 ADD SWAP2 JUMPDEST POP POP POP POP POP DUP2 MSTORE POP POP DUP2 MSTORE PUSH1 0x20 ADD SWAP1 PUSH1 0x1 ADD SWAP1 PUSH2 0xB07 JUMP JUMPDEST POP POP POP POP SWAP1 POP SWAP1 JUMP JUMPDEST PUSH2 0xBE1 PUSH2 0x23E9 JUMP JUMPDEST PUSH1 0x6 PUSH0 DUP4 DUP2 MSTORE PUSH1 0x20 ADD SWAP1 DUP2 MSTORE PUSH1 0x20 ADD PUSH0 KECCAK256 PUSH1 0x40 MLOAD DUP1 PUSH1 0x60 ADD PUSH1 0x40 MSTORE SWAP1 DUP2 PUSH0 DUP3 ADD SLOAD DUP2 MSTORE PUSH1 0x20 ADD PUSH1 0x1 DUP3 ADD PUSH0 SWAP1 SLOAD SWAP1 PUSH2 0x100 EXP SWAP1 DIV PUSH20 0xFFFFFFFFFFFFFFFFFFFFFFFFFFFFFFFFFFFFFFFF AND PUSH20 0xFFFFFFFFFFFFFFFFFFFFFFFFFFFFFFFFFFFFFFFF AND PUSH20 0xFFFFFFFFFFFFFFFFFFFFFFFFFFFFFFFFFFFFFFFF AND DUP2 MSTORE PUSH1 0x20 ADD PUSH1 0x2 DUP3 ADD DUP1 SLOAD PUSH2 0xC6B SWAP1 PUSH2 0x303A JUMP JUMPDEST DUP1 PUSH1 0x1F ADD PUSH1 0x20 DUP1 SWAP2 DIV MUL PUSH1 0x20 ADD PUSH1 0x40 MLOAD SWAP1 DUP2 ADD PUSH1 0x40 MSTORE DUP1 SWAP3 SWAP2 SWAP1 DUP2 DUP2 MSTORE PUSH1 0x20 ADD DUP3 DUP1 SLOAD PUSH2 0xC97 SWAP1 PUSH2 0x303A JUMP JUMPDEST DUP1 ISZERO PUSH2 0xCE2 JUMPI DUP1 PUSH1 0x1F LT PUSH2 0xCB9 JUMPI PUSH2 0x100 DUP1 DUP4 SLOAD DIV MUL DUP4 MSTORE SWAP2 PUSH1 0x20 ADD SWAP2 PUSH2 0xCE2 JUMP JUMPDEST DUP3 ADD SWAP2 SWAP1 PUSH0 MSTORE PUSH1 0x20 PUSH0 KECCAK256 SWAP1 JUMPDEST DUP2 SLOAD DUP2 MSTORE SWAP1 PUSH1 0x1 ADD SWAP1 PUSH1 0x20 ADD DUP1 DUP4 GT PUSH2 0xCC5 JUMPI DUP3 SWAP1 SUB PUSH1 0x1F AND DUP3 ADD SWAP2 JUMPDEST POP POP POP POP POP DUP2 MSTORE POP POP SWAP1 POP SWAP2 SWAP1 POP JUMP JUMPDEST PUSH1 0x60 PUSH1 0x3 PUSH0 DUP4 DUP2 MSTORE PUSH1 0x20 ADD SWAP1 DUP2 MSTORE PUSH1 0x20 ADD PUSH0 KECCAK256 PUSH1 0x5 ADD DUP1 SLOAD DUP1 PUSH1 0x20 MUL PUSH1 0x20 ADD PUSH1 0x40 MLOAD SWAP1 DUP2 ADD PUSH1 0x40 MSTORE DUP1 SWAP3 SWAP2 SWAP1 DUP2 DUP2 MSTORE PUSH1 0x20 ADD DUP3 DUP1 SLOAD DUP1 ISZERO PUSH2 0xD50 JUMPI PUSH1 0x20 MUL DUP3 ADD SWAP2 SWAP1 PUSH0 MSTORE PUSH1 0x20 PUSH0 KECCAK256 SWAP1 JUMPDEST DUP2 SLOAD DUP2 MSTORE PUSH1 0x20 ADD SWAP1 PUSH1 0x1 ADD SWAP1 DUP1 DUP4 GT PUSH2 0xD3C JUMPI JUMPDEST POP POP POP POP POP SWAP1 POP SWAP2 SWAP1 POP JUMP JUMPDEST PUSH0 PUSH1 0x1 PUSH1 0x7 SLOAD PUSH2 0xD6C SWAP2 SWAP1 PUSH2 0x3097 JUMP JUMPDEST SWAP1 POP PUSH0 PUSH1 0x40 MLOAD DUP1 PUSH1 0x60 ADD PUSH1 0x40 MSTORE DUP1 DUP4 DUP2 MSTORE PUSH1 0x20 ADD DUP5 PUSH20 0xFFFFFFFFFFFFFFFFFFFFFFFFFFFFFFFFFFFFFFFF AND DUP2 MSTORE PUSH1 0x20 ADD DUP6 DUP2 MSTORE POP SWAP1 POP DUP1 PUSH1 0x6 PUSH0 DUP5 DUP2 MSTORE PUSH1 0x20 ADD SWAP1 DUP2 MSTORE PUSH1 0x20 ADD PUSH0 KECCAK256 PUSH0 DUP3 ADD MLOAD DUP2 PUSH0 ADD SSTORE PUSH1 0x20 DUP3 ADD MLOAD DUP2 PUSH1 0x1 ADD PUSH0 PUSH2 0x100 EXP DUP2 SLOAD DUP2 PUSH20 0xFFFFFFFFFFFFFFFFFFFFFFFFFFFFFFFFFFFFFFFF MUL NOT AND SWAP1 DUP4 PUSH20 0xFFFFFFFFFFFFFFFFFFFFFFFFFFFFFFFFFFFFFFFF AND MUL OR SWAP1 SSTORE POP PUSH1 0x40 DUP3 ADD MLOAD DUP2 PUSH1 0x2 ADD SWAP1 DUP2 PUSH2 0xE17 SWAP2 SWAP1 PUSH2 0x3267 JUMP JUMPDEST POP SWAP1 POP POP PUSH1 0x1 PUSH1 0x7 SLOAD PUSH2 0xE2A SWAP2 SWAP1 PUSH2 0x3097 JUMP JUMPDEST PUSH1 0x7 DUP2 SWAP1 SSTORE POP POP POP POP POP JUMP JUMPDEST PUSH0 PUSH1 0x3 PUSH0 DUP7 DUP2 MSTORE PUSH1 0x20 ADD SWAP1 DUP2 MSTORE PUSH1 0x20 ADD PUSH0 KECCAK256 PUSH0 ADD SLOAD EQ ISZERO DUP1 ISZERO PUSH2 0xE9C JUMPI POP PUSH0 PUSH1 0x3 DUP2 GT ISZERO PUSH2 0xE67 JUMPI PUSH2 0xE66 PUSH2 0x2F2C JUMP JUMPDEST JUMPDEST PUSH1 0x3 PUSH0 DUP7 DUP2 MSTORE PUSH1 0x20 ADD SWAP1 DUP2 MSTORE PUSH1 0x20 ADD PUSH0 KECCAK256 PUSH1 0x4 ADD PUSH0 SWAP1 SLOAD SWAP1 PUSH2 0x100 EXP SWAP1 DIV PUSH1 0xFF AND PUSH1 0x3 DUP2 GT ISZERO PUSH2 0xE9A JUMPI PUSH2 0xE99 PUSH2 0x2F2C JUMP JUMPDEST JUMPDEST EQ JUMPDEST PUSH2 0xEDB JUMPI PUSH1 0x40 MLOAD PUSH32 0x8C379A000000000000000000000000000000000000000000000000000000000 DUP2 MSTORE PUSH1 0x4 ADD PUSH2 0xED2 SWAP1 PUSH2 0x2FEF JUMP JUMPDEST PUSH1 0x40 MLOAD DUP1 SWAP2 SUB SWAP1 REVERT JUMPDEST PUSH0 DUP1 DUP3 SUB PUSH2 0xEEB JUMPI PUSH0 SWAP1 POP PUSH2 0xF0B JUMP JUMPDEST PUSH1 0x1 DUP3 SUB PUSH2 0xEFC JUMPI PUSH1 0x1 SWAP1 POP PUSH2 0xF0A JUMP JUMPDEST PUSH1 0x2 DUP3 SUB PUSH2 0xF09 JUMPI PUSH1 0x2 SWAP1 POP JUMPDEST JUMPDEST JUMPDEST PUSH0 PUSH1 0x40 MLOAD DUP1 PUSH1 0xA0 ADD PUSH1 0x40 MSTORE DUP1 DUP7 DUP2 MSTORE PUSH1 0x20 ADD DUP8 DUP2 MSTORE PUSH1 0x20 ADD DUP4 PUSH1 0x2 DUP2 GT ISZERO PUSH2 0xF36 JUMPI PUSH2 0xF35 PUSH2 0x2F2C JUMP JUMPDEST JUMPDEST DUP2 MSTORE PUSH1 0x20 ADD CALLVALUE DUP2 MSTORE PUSH1 0x20 ADD DUP6 DUP2 MSTORE POP SWAP1 POP PUSH1 0x8 PUSH0 DUP8 DUP2 MSTORE PUSH1 0x20 ADD SWAP1 DUP2 MSTORE PUSH1 0x20 ADD PUSH0 KECCAK256 DUP2 SWAP1 DUP1 PUSH1 0x1 DUP2 SLOAD ADD DUP1 DUP3 SSTORE DUP1 SWAP2 POP POP PUSH1 0x1 SWAP1 SUB SWAP1 PUSH0 MSTORE PUSH1 0x20 PUSH0 KECCAK256 SWAP1 PUSH1 0x5 MUL ADD PUSH0 SWAP1 SWAP2 SWAP1 SWAP2 SWAP1 SWAP2 POP PUSH0 DUP3 ADD MLOAD DUP2 PUSH0 ADD SSTORE PUSH1 0x20 DUP3 ADD MLOAD DUP2 PUSH1 0x1 ADD SSTORE PUSH1 0x40 DUP3 ADD MLOAD DUP2 PUSH1 0x2 ADD PUSH0 PUSH2 0x100 EXP DUP2 SLOAD DUP2 PUSH1 0xFF MUL NOT AND SWAP1 DUP4 PUSH1 0x2 DUP2 GT ISZERO PUSH2 0xFBB JUMPI PUSH2 0xFBA PUSH2 0x2F2C JUMP JUMPDEST JUMPDEST MUL OR SWAP1 SSTORE POP PUSH1 0x60 DUP3 ADD MLOAD DUP2 PUSH1 0x3 ADD SSTORE PUSH1 0x80 DUP3 ADD MLOAD DUP2 PUSH1 0x4 ADD SSTORE POP POP POP POP POP POP POP POP JUMP JUMPDEST PUSH0 PUSH1 0x40 MLOAD DUP1 PUSH1 0x40 ADD PUSH1 0x40 MSTORE DUP1 PUSH1 0x1A DUP2 MSTORE PUSH1 0x20 ADD PUSH32 0x4F6E6C79206F776E65722063616E20616464206120686F727365000000000000 DUP2 MSTORE POP PUSH2 0x1054 DUP2 PUSH1 0x40 MLOAD DUP1 PUSH1 0x40 ADD PUSH1 0x40 MSTORE DUP1 PUSH1 0x8 DUP2 MSTORE PUSH1 0x20 ADD PUSH32 0x616464486F727365000000000000000000000000000000000000000000000000 DUP2 MSTORE POP PUSH2 0x3F0 JUMP JUMPDEST ISZERO PUSH2 0x1126 JUMPI PUSH1 0x2 PUSH0 SWAP1 SLOAD SWAP1 PUSH2 0x100 EXP SWAP1 DIV PUSH20 0xFFFFFFFFFFFFFFFFFFFFFFFFFFFFFFFFFFFFFFFF AND PUSH20 0xFFFFFFFFFFFFFFFFFFFFFFFFFFFFFFFFFFFFFFFF AND CALLER PUSH20 0xFFFFFFFFFFFFFFFFFFFFFFFFFFFFFFFFFFFFFFFF AND EQ PUSH1 0x40 MLOAD DUP1 PUSH1 0x40 ADD PUSH1 0x40 MSTORE DUP1 PUSH1 0x1A DUP2 MSTORE PUSH1 0x20 ADD PUSH32 0x4F6E6C79206F776E65722063616E20616464206120686F727365000000000000 DUP2 MSTORE POP SWAP1 PUSH2 0x1120 JUMPI PUSH1 0x40 MLOAD PUSH32 0x8C379A000000000000000000000000000000000000000000000000000000000 DUP2 MSTORE PUSH1 0x4 ADD PUSH2 0x1117 SWAP2 SWAP1 PUSH2 0x2F0C JUMP JUMPDEST PUSH1 0x40 MLOAD DUP1 SWAP2 SUB SWAP1 REVERT JUMPDEST POP PUSH2 0x1458 JUMP JUMPDEST PUSH2 0x1165 DUP2 PUSH1 0x40 MLOAD DUP1 PUSH1 0x40 ADD PUSH1 0x40 MSTORE DUP1 PUSH1 0x9 DUP2 MSTORE PUSH1 0x20 ADD PUSH32 0x6164644A6F636B65790000000000000000000000000000000000000000000000 DUP2 MSTORE POP PUSH2 0x3F0 JUMP JUMPDEST ISZERO PUSH2 0x1237 JUMPI PUSH1 0x2 PUSH0 SWAP1 SLOAD SWAP1 PUSH2 0x100 EXP SWAP1 DIV PUSH20 0xFFFFFFFFFFFFFFFFFFFFFFFFFFFFFFFFFFFFFFFF AND PUSH20 0xFFFFFFFFFFFFFFFFFFFFFFFFFFFFFFFFFFFFFFFF AND CALLER PUSH20 0xFFFFFFFFFFFFFFFFFFFFFFFFFFFFFFFFFFFFFFFF AND EQ PUSH1 0x40 MLOAD DUP1 PUSH1 0x40 ADD PUSH1 0x40 MSTORE DUP1 PUSH1 0x1B DUP2 MSTORE PUSH1 0x20 ADD PUSH32 0x4F6E6C79206F776E65722063616E206164642061206A6F636B65790000000000 DUP2 MSTORE POP SWAP1 PUSH2 0x1231 JUMPI PUSH1 0x40 MLOAD PUSH32 0x8C379A000000000000000000000000000000000000000000000000000000000 DUP2 MSTORE PUSH1 0x4 ADD PUSH2 0x1228 SWAP2 SWAP1 PUSH2 0x2F0C JUMP JUMPDEST PUSH1 0x40 MLOAD DUP1 SWAP2 SUB SWAP1 REVERT JUMPDEST POP PUSH2 0x1457 JUMP JUMPDEST PUSH2 0x1276 DUP2 PUSH1 0x40 MLOAD DUP1 PUSH1 0x40 ADD PUSH1 0x40 MSTORE DUP1 PUSH1 0xE DUP2 MSTORE PUSH1 0x20 ADD PUSH32 0x7374617274486F72736552616365000000000000000000000000000000000000 DUP2 MSTORE POP PUSH2 0x3F0 JUMP JUMPDEST ISZERO PUSH2 0x1348 JUMPI PUSH1 0x2 PUSH0 SWAP1 SLOAD SWAP1 PUSH2 0x100 EXP SWAP1 DIV PUSH20 0xFFFFFFFFFFFFFFFFFFFFFFFFFFFFFFFFFFFFFFFF AND PUSH20 0xFFFFFFFFFFFFFFFFFFFFFFFFFFFFFFFFFFFFFFFF AND CALLER PUSH20 0xFFFFFFFFFFFFFFFFFFFFFFFFFFFFFFFFFFFFFFFF AND EQ PUSH1 0x40 MLOAD DUP1 PUSH1 0x40 ADD PUSH1 0x40 MSTORE DUP1 PUSH1 0x1D DUP2 MSTORE PUSH1 0x20 ADD PUSH32 0x4F6E6C79206F776E65722063616E207374617274207468652072616365000000 DUP2 MSTORE POP SWAP1 PUSH2 0x1342 JUMPI PUSH1 0x40 MLOAD PUSH32 0x8C379A000000000000000000000000000000000000000000000000000000000 DUP2 MSTORE PUSH1 0x4 ADD PUSH2 0x1339 SWAP2 SWAP1 PUSH2 0x2F0C JUMP JUMPDEST PUSH1 0x40 MLOAD DUP1 SWAP2 SUB SWAP1 REVERT JUMPDEST POP PUSH2 0x1456 JUMP JUMPDEST PUSH2 0x1387 DUP2 PUSH1 0x40 MLOAD DUP1 PUSH1 0x40 ADD PUSH1 0x40 MSTORE DUP1 PUSH1 0xE DUP2 MSTORE PUSH1 0x20 ADD PUSH32 0x7374617274486F72736552616365000000000000000000000000000000000000 DUP2 MSTORE POP PUSH2 0x3F0 JUMP JUMPDEST ISZERO PUSH2 0x1455 JUMPI PUSH1 0x2 PUSH0 SWAP1 SLOAD SWAP1 PUSH2 0x100 EXP SWAP1 DIV PUSH20 0xFFFFFFFFFFFFFFFFFFFFFFFFFFFFFFFFFFFFFFFF AND PUSH20 0xFFFFFFFFFFFFFFFFFFFFFFFFFFFFFFFFFFFFFFFF AND CALLER PUSH20 0xFFFFFFFFFFFFFFFFFFFFFFFFFFFFFFFFFFFFFFFF AND EQ PUSH1 0x40 MLOAD DUP1 PUSH1 0x40 ADD PUSH1 0x40 MSTORE DUP1 PUSH1 0x1E DUP2 MSTORE PUSH1 0x20 ADD PUSH32 0x4F6E6C79206F776E65722063616E2063616E63656C2074686520726163650000 DUP2 MSTORE POP SWAP1 PUSH2 0x1453 JUMPI PUSH1 0x40 MLOAD PUSH32 0x8C379A000000000000000000000000000000000000000000000000000000000 DUP2 MSTORE PUSH1 0x4 ADD PUSH2 0x144A SWAP2 SWAP1 PUSH2 0x2F0C JUMP JUMPDEST PUSH1 0x40 MLOAD DUP1 SWAP2 SUB SWAP1 REVERT JUMPDEST POP JUMPDEST JUMPDEST JUMPDEST JUMPDEST PUSH0 PUSH1 0x1 PUSH0 DUP1 SLOAD SWAP1 POP PUSH2 0x146A SWAP2 SWAP1 PUSH2 0x3097 JUMP JUMPDEST SWAP1 POP PUSH0 PUSH1 0x40 MLOAD DUP1 PUSH1 0x40 ADD PUSH1 0x40 MSTORE DUP1 DUP4 DUP2 MSTORE PUSH1 0x20 ADD DUP7 DUP2 MSTORE POP SWAP1 POP PUSH0 DUP2 SWAP1 DUP1 PUSH1 0x1 DUP2 SLOAD ADD DUP1 DUP3 SSTORE DUP1 SWAP2 POP POP PUSH1 0x1 SWAP1 SUB SWAP1 PUSH0 MSTORE PUSH1 0x20 PUSH0 KECCAK256 SWAP1 PUSH1 0x2 MUL ADD PUSH0 SWAP1 SWAP2 SWAP1 SWAP2 SWAP1 SWAP2 POP PUSH0 DUP3 ADD MLOAD DUP2 PUSH0 ADD SSTORE PUSH1 0x20 DUP3 ADD MLOAD DUP2 PUSH1 0x1 ADD SWAP1 DUP2 PUSH2 0x14C9 SWAP2 SWAP1 PUSH2 0x3267 JUMP JUMPDEST POP POP POP PUSH1 0x1 SWAP4 POP POP POP POP SWAP2 SWAP1 POP JUMP JUMPDEST PUSH0 PUSH1 0x1 PUSH1 0x4 SLOAD PUSH2 0x14E8 SWAP2 SWAP1 PUSH2 0x3097 JUMP JUMPDEST SWAP1 POP PUSH1 0x60 PUSH0 PUSH1 0x40 MLOAD DUP1 PUSH1 0xC0 ADD PUSH1 0x40 MSTORE DUP1 DUP5 DUP2 MSTORE PUSH1 0x20 ADD DUP8 PUSH1 0x3 DUP2 GT ISZERO PUSH2 0x1511 JUMPI PUSH2 0x1510 PUSH2 0x2F2C JUMP JUMPDEST JUMPDEST DUP2 MSTORE PUSH1 0x20 ADD DUP7 DUP2 MSTORE PUSH1 0x20 ADD DUP6 DUP2 MSTORE PUSH1 0x20 ADD PUSH0 PUSH1 0x3 DUP2 GT ISZERO PUSH2 0x1535 JUMPI PUSH2 0x1534 PUSH2 0x2F2C JUMP JUMPDEST JUMPDEST DUP2 MSTORE PUSH1 0x20 ADD DUP4 DUP2 MSTORE POP SWAP1 POP DUP1 PUSH1 0x3 PUSH0 DUP6 DUP2 MSTORE PUSH1 0x20 ADD SWAP1 DUP2 MSTORE PUSH1 0x20 ADD PUSH0 KECCAK256 PUSH0 DUP3 ADD MLOAD DUP2 PUSH0 ADD SSTORE PUSH1 0x20 DUP3 ADD MLOAD DUP2 PUSH1 0x1 ADD PUSH0 PUSH2 0x100 EXP DUP2 SLOAD DUP2 PUSH1 0xFF MUL NOT AND SWAP1 DUP4 PUSH1 0x3 DUP2 GT ISZERO PUSH2 0x1584 JUMPI PUSH2 0x1583 PUSH2 0x2F2C JUMP JUMPDEST JUMPDEST MUL OR SWAP1 SSTORE POP PUSH1 0x40 DUP3 ADD MLOAD DUP2 PUSH1 0x2 ADD SWAP1 DUP1 MLOAD SWAP1 PUSH1 0x20 ADD SWAP1 PUSH2 0x15A5 SWAP3 SWAP2 SWAP1 PUSH2 0x241E JUMP JUMPDEST POP PUSH1 0x60 DUP3 ADD MLOAD DUP2 PUSH1 0x3 ADD SWAP1 DUP1 MLOAD SWAP1 PUSH1 0x20 ADD SWAP1 PUSH2 0x15C2 SWAP3 SWAP2 SWAP1 PUSH2 0x241E JUMP JUMPDEST POP PUSH1 0x80 DUP3 ADD MLOAD DUP2 PUSH1 0x4 ADD PUSH0 PUSH2 0x100 EXP DUP2 SLOAD DUP2 PUSH1 0xFF MUL NOT AND SWAP1 DUP4 PUSH1 0x3 DUP2 GT ISZERO PUSH2 0x15ED JUMPI PUSH2 0x15EC PUSH2 0x2F2C JUMP JUMPDEST JUMPDEST MUL OR SWAP1 SSTORE POP PUSH1 0xA0 DUP3 ADD MLOAD DUP2 PUSH1 0x5 ADD SWAP1 DUP1 MLOAD SWAP1 PUSH1 0x20 ADD SWAP1 PUSH2 0x160E SWAP3 SWAP2 SWAP1 PUSH2 0x241E JUMP JUMPDEST POP SWAP1 POP POP PUSH1 0x1 PUSH1 0x4 SLOAD PUSH2 0x1621 SWAP2 SWAP1 PUSH2 0x3097 JUMP JUMPDEST PUSH1 0x4 DUP2 SWAP1 SSTORE POP POP POP POP POP POP POP JUMP JUMPDEST PUSH1 0x40 MLOAD DUP1 PUSH1 0x40 ADD PUSH1 0x40 MSTORE DUP1 PUSH1 0xE DUP2 MSTORE PUSH1 0x20 ADD PUSH32 0x7374617274486F72736552616365000000000000000000000000000000000000 DUP2 MSTORE POP PUSH2 0x16A4 DUP2 PUSH1 0x40 MLOAD DUP1 PUSH1 0x40 ADD PUSH1 0x40 MSTORE DUP1 PUSH1 0x8 DUP2 MSTORE PUSH1 0x20 ADD PUSH32 0x616464486F727365000000000000000000000000000000000000000000000000 DUP2 MSTORE POP PUSH2 0x3F0 JUMP JUMPDEST ISZERO PUSH2 0x1776 JUMPI PUSH1 0x2 PUSH0 SWAP1 SLOAD SWAP1 PUSH2 0x100 EXP SWAP1 DIV PUSH20 0xFFFFFFFFFFFFFFFFFFFFFFFFFFFFFFFFFFFFFFFF AND PUSH20 0xFFFFFFFFFFFFFFFFFFFFFFFFFFFFFFFFFFFFFFFF AND CALLER PUSH20 0xFFFFFFFFFFFFFFFFFFFFFFFFFFFFFFFFFFFFFFFF AND EQ PUSH1 0x40 MLOAD DUP1 PUSH1 0x40 ADD PUSH1 0x40 MSTORE DUP1 PUSH1 0x1A DUP2 MSTORE PUSH1 0x20 ADD PUSH32 0x4F6E6C79206F776E65722063616E20616464206120686F727365000000000000 DUP2 MSTORE POP SWAP1 PUSH2 0x1770 JUMPI PUSH1 0x40 MLOAD PUSH32 0x8C379A000000000000000000000000000000000000000000000000000000000 DUP2 MSTORE PUSH1 0x4 ADD PUSH2 0x1767 SWAP2 SWAP1 PUSH2 0x2F0C JUMP JUMPDEST PUSH1 0x40 MLOAD DUP1 SWAP2 SUB SWAP1 REVERT JUMPDEST POP PUSH2 0x1AA8 JUMP JUMPDEST PUSH2 0x17B5 DUP2 PUSH1 0x40 MLOAD DUP1 PUSH1 0x40 ADD PUSH1 0x40 MSTORE DUP1 PUSH1 0x9 DUP2 MSTORE PUSH1 0x20 ADD PUSH32 0x6164644A6F636B65790000000000000000000000000000000000000000000000 DUP2 MSTORE POP PUSH2 0x3F0 JUMP JUMPDEST ISZERO PUSH2 0x1887 JUMPI PUSH1 0x2 PUSH0 SWAP1 SLOAD SWAP1 PUSH2 0x100 EXP SWAP1 DIV PUSH20 0xFFFFFFFFFFFFFFFFFFFFFFFFFFFFFFFFFFFFFFFF AND PUSH20 0xFFFFFFFFFFFFFFFFFFFFFFFFFFFFFFFFFFFFFFFF AND CALLER PUSH20 0xFFFFFFFFFFFFFFFFFFFFFFFFFFFFFFFFFFFFFFFF AND EQ PUSH1 0x40 MLOAD DUP1 PUSH1 0x40 ADD PUSH1 0x40 MSTORE DUP1 PUSH1 0x1B DUP2 MSTORE PUSH1 0x20 ADD PUSH32 0x4F6E6C79206F776E65722063616E206164642061206A6F636B65790000000000 DUP2 MSTORE POP SWAP1 PUSH2 0x1881 JUMPI PUSH1 0x40 MLOAD PUSH32 0x8C379A000000000000000000000000000000000000000000000000000000000 DUP2 MSTORE PUSH1 0x4 ADD PUSH2 0x1878 SWAP2 SWAP1 PUSH2 0x2F0C JUMP JUMPDEST PUSH1 0x40 MLOAD DUP1 SWAP2 SUB SWAP1 REVERT JUMPDEST POP PUSH2 0x1AA7 JUMP JUMPDEST PUSH2 0x18C6 DUP2 PUSH1 0x40 MLOAD DUP1 PUSH1 0x40 ADD PUSH1 0x40 MSTORE DUP1 PUSH1 0xE DUP2 MSTORE PUSH1 0x20 ADD PUSH32 0x7374617274486F72736552616365000000000000000000000000000000000000 DUP2 MSTORE POP PUSH2 0x3F0 JUMP JUMPDEST ISZERO PUSH2 0x1998 JUMPI PUSH1 0x2 PUSH0 SWAP1 SLOAD SWAP1 PUSH2 0x100 EXP SWAP1 DIV PUSH20 0xFFFFFFFFFFFFFFFFFFFFFFFFFFFFFFFFFFFFFFFF AND PUSH20 0xFFFFFFFFFFFFFFFFFFFFFFFFFFFFFFFFFFFFFFFF AND CALLER PUSH20 0xFFFFFFFFFFFFFFFFFFFFFFFFFFFFFFFFFFFFFFFF AND EQ PUSH1 0x40 MLOAD DUP1 PUSH1 0x40 ADD PUSH1 0x40 MSTORE DUP1 PUSH1 0x1D DUP2 MSTORE PUSH1 0x20 ADD PUSH32 0x4F6E6C79206F776E65722063616E207374617274207468652072616365000000 DUP2 MSTORE POP SWAP1 PUSH2 0x1992 JUMPI PUSH1 0x40 MLOAD PUSH32 0x8C379A000000000000000000000000000000000000000000000000000000000 DUP2 MSTORE PUSH1 0x4 ADD PUSH2 0x1989 SWAP2 SWAP1 PUSH2 0x2F0C JUMP JUMPDEST PUSH1 0x40 MLOAD DUP1 SWAP2 SUB SWAP1 REVERT JUMPDEST POP PUSH2 0x1AA6 JUMP JUMPDEST PUSH2 0x19D7 DUP2 PUSH1 0x40 MLOAD DUP1 PUSH1 0x40 ADD PUSH1 0x40 MSTORE DUP1 PUSH1 0xE DUP2 MSTORE PUSH1 0x20 ADD PUSH32 0x7374617274486F72736552616365000000000000000000000000000000000000 DUP2 MSTORE POP PUSH2 0x3F0 JUMP JUMPDEST ISZERO PUSH2 0x1AA5 JUMPI PUSH1 0x2 PUSH0 SWAP1 SLOAD SWAP1 PUSH2 0x100 EXP SWAP1 DIV PUSH20 0xFFFFFFFFFFFFFFFFFFFFFFFFFFFFFFFFFFFFFFFF AND PUSH20 0xFFFFFFFFFFFFFFFFFFFFFFFFFFFFFFFFFFFFFFFF AND CALLER PUSH20 0xFFFFFFFFFFFFFFFFFFFFFFFFFFFFFFFFFFFFFFFF AND EQ PUSH1 0x40 MLOAD DUP1 PUSH1 0x40 ADD PUSH1 0x40 MSTORE DUP1 PUSH1 0x1E DUP2 MSTORE PUSH1 0x20 ADD PUSH32 0x4F6E6C79206F776E65722063616E2063616E63656C2074686520726163650000 DUP2 MSTORE POP SWAP1 PUSH2 0x1AA3 JUMPI PUSH1 0x40 MLOAD PUSH32 0x8C379A000000000000000000000000000000000000000000000000000000000 DUP2 MSTORE PUSH1 0x4 ADD PUSH2 0x1A9A SWAP2 SWAP1 PUSH2 0x2F0C JUMP JUMPDEST PUSH1 0x40 MLOAD DUP1 SWAP2 SUB SWAP1 REVERT JUMPDEST POP JUMPDEST JUMPDEST JUMPDEST JUMPDEST PUSH0 PUSH1 0x3 PUSH0 DUP5 DUP2 MSTORE PUSH1 0x20 ADD SWAP1 DUP2 MSTORE PUSH1 0x20 ADD PUSH0 KECCAK256 PUSH0 ADD SLOAD EQ ISZERO DUP1 ISZERO PUSH2 0x1B0E JUMPI POP PUSH0 PUSH1 0x3 DUP2 GT ISZERO PUSH2 0x1AD9 JUMPI PUSH2 0x1AD8 PUSH2 0x2F2C JUMP JUMPDEST JUMPDEST PUSH1 0x3 PUSH0 DUP5 DUP2 MSTORE PUSH1 0x20 ADD SWAP1 DUP2 MSTORE PUSH1 0x20 ADD PUSH0 KECCAK256 PUSH1 0x4 ADD PUSH0 SWAP1 SLOAD SWAP1 PUSH2 0x100 EXP SWAP1 DIV PUSH1 0xFF AND PUSH1 0x3 DUP2 GT ISZERO PUSH2 0x1B0C JUMPI PUSH2 0x1B0B PUSH2 0x2F2C JUMP JUMPDEST JUMPDEST EQ JUMPDEST PUSH2 0x1B4D JUMPI PUSH1 0x40 MLOAD PUSH32 0x8C379A000000000000000000000000000000000000000000000000000000000 DUP2 MSTORE PUSH1 0x4 ADD PUSH2 0x1B44 SWAP1 PUSH2 0x33A6 JUMP JUMPDEST PUSH1 0x40 MLOAD DUP1 SWAP2 SUB SWAP1 REVERT JUMPDEST PUSH1 0x5 PUSH0 PUSH2 0x1B5A SWAP2 SWAP1 PUSH2 0x2469 JUMP JUMPDEST PUSH1 0x1 PUSH1 0x3 PUSH0 DUP5 DUP2 MSTORE PUSH1 0x20 ADD SWAP1 DUP2 MSTORE PUSH1 0x20 ADD PUSH0 KECCAK256 PUSH1 0x4 ADD PUSH0 PUSH2 0x100 EXP DUP2 SLOAD DUP2 PUSH1 0xFF MUL NOT AND SWAP1 DUP4 PUSH1 0x3 DUP2 GT ISZERO PUSH2 0x1B91 JUMPI PUSH2 0x1B90 PUSH2 0x2F2C JUMP JUMPDEST JUMPDEST MUL OR SWAP1 SSTORE POP PUSH0 JUMPDEST PUSH1 0x3 PUSH0 DUP5 DUP2 MSTORE PUSH1 0x20 ADD SWAP1 DUP2 MSTORE PUSH1 0x20 ADD PUSH0 KECCAK256 PUSH1 0x2 ADD DUP1 SLOAD SWAP1 POP DUP2 LT ISZERO PUSH2 0x1C1E JUMPI PUSH1 0x5 PUSH1 0x3 PUSH0 DUP6 DUP2 MSTORE PUSH1 0x20 ADD SWAP1 DUP2 MSTORE PUSH1 0x20 ADD PUSH0 KECCAK256 PUSH1 0x2 ADD DUP3 DUP2 SLOAD DUP2 LT PUSH2 0x1BDF JUMPI PUSH2 0x1BDE PUSH2 0x33C4 JUMP JUMPDEST JUMPDEST SWAP1 PUSH0 MSTORE PUSH1 0x20 PUSH0 KECCAK256 ADD SLOAD SWAP1 DUP1 PUSH1 0x1 DUP2 SLOAD ADD DUP1 DUP3 SSTORE DUP1 SWAP2 POP POP PUSH1 0x1 SWAP1 SUB SWAP1 PUSH0 MSTORE PUSH1 0x20 PUSH0 KECCAK256 ADD PUSH0 SWAP1 SWAP2 SWAP1 SWAP2 SWAP1 SWAP2 POP SSTORE DUP1 DUP1 PUSH2 0x1C16 SWAP1 PUSH2 0x33F1 JUMP JUMPDEST SWAP2 POP POP PUSH2 0x1B98 JUMP JUMPDEST POP PUSH1 0x5 PUSH1 0x3 PUSH0 DUP5 DUP2 MSTORE PUSH1 0x20 ADD SWAP1 DUP2 MSTORE PUSH1 0x20 ADD PUSH0 KECCAK256 PUSH1 0x5 ADD SWAP1 DUP1 SLOAD PUSH2 0x1C43 SWAP3 SWAP2 SWAP1 PUSH2 0x2487 JUMP JUMPDEST POP PUSH1 0x2 PUSH1 0x3 PUSH0 DUP5 DUP2 MSTORE PUSH1 0x20 ADD SWAP1 DUP2 MSTORE PUSH1 0x20 ADD PUSH0 KECCAK256 PUSH1 0x4 ADD PUSH0 PUSH2 0x100 EXP DUP2 SLOAD DUP2 PUSH1 0xFF MUL NOT AND SWAP1 DUP4 PUSH1 0x3 DUP2 GT ISZERO PUSH2 0x1C7B JUMPI PUSH2 0x1C7A PUSH2 0x2F2C JUMP JUMPDEST JUMPDEST MUL OR SWAP1 SSTORE POP POP POP JUMP JUMPDEST POP JUMP JUMPDEST POP JUMP JUMPDEST PUSH0 PUSH1 0x40 MLOAD DUP1 PUSH1 0x40 ADD PUSH1 0x40 MSTORE DUP1 PUSH1 0x1B DUP2 MSTORE PUSH1 0x20 ADD PUSH32 0x4F6E6C79206F776E65722063616E206164642061206A6F636B65790000000000 DUP2 MSTORE POP PUSH2 0x1D00 DUP2 PUSH1 0x40 MLOAD DUP1 PUSH1 0x40 ADD PUSH1 0x40 MSTORE DUP1 PUSH1 0x8 DUP2 MSTORE PUSH1 0x20 ADD PUSH32 0x616464486F727365000000000000000000000000000000000000000000000000 DUP2 MSTORE POP PUSH2 0x3F0 JUMP JUMPDEST ISZERO PUSH2 0x1DD2 JUMPI PUSH1 0x2 PUSH0 SWAP1 SLOAD SWAP1 PUSH2 0x100 EXP SWAP1 DIV PUSH20 0xFFFFFFFFFFFFFFFFFFFFFFFFFFFFFFFFFFFFFFFF AND PUSH20 0xFFFFFFFFFFFFFFFFFFFFFFFFFFFFFFFFFFFFFFFF AND CALLER PUSH20 0xFFFFFFFFFFFFFFFFFFFFFFFFFFFFFFFFFFFFFFFF AND EQ PUSH1 0x40 MLOAD DUP1 PUSH1 0x40 ADD PUSH1 0x40 MSTORE DUP1 PUSH1 0x1A DUP2 MSTORE PUSH1 0x20 ADD PUSH32 0x4F6E6C79206F776E65722063616E20616464206120686F727365000000000000 DUP2 MSTORE POP SWAP1 PUSH2 0x1DCC JUMPI PUSH1 0x40 MLOAD PUSH32 0x8C379A000000000000000000000000000000000000000000000000000000000 DUP2 MSTORE PUSH1 0x4 ADD PUSH2 0x1DC3 SWAP2 SWAP1 PUSH2 0x2F0C JUMP JUMPDEST PUSH1 0x40 MLOAD DUP1 SWAP2 SUB SWAP1 REVERT JUMPDEST POP PUSH2 0x2104 JUMP JUMPDEST PUSH2 0x1E11 DUP2 PUSH1 0x40 MLOAD DUP1 PUSH1 0x40 ADD PUSH1 0x40 MSTORE DUP1 PUSH1 0x9 DUP2 MSTORE PUSH1 0x20 ADD PUSH32 0x6164644A6F636B65790000000000000000000000000000000000000000000000 DUP2 MSTORE POP PUSH2 0x3F0 JUMP JUMPDEST ISZERO PUSH2 0x1EE3 JUMPI PUSH1 0x2 PUSH0 SWAP1 SLOAD SWAP1 PUSH2 0x100 EXP SWAP1 DIV PUSH20 0xFFFFFFFFFFFFFFFFFFFFFFFFFFFFFFFFFFFFFFFF AND PUSH20 0xFFFFFFFFFFFFFFFFFFFFFFFFFFFFFFFFFFFFFFFF AND CALLER PUSH20 0xFFFFFFFFFFFFFFFFFFFFFFFFFFFFFFFFFFFFFFFF AND EQ PUSH1 0x40 MLOAD DUP1 PUSH1 0x40 ADD PUSH1 0x40 MSTORE DUP1 PUSH1 0x1B DUP2 MSTORE PUSH1 0x20 ADD PUSH32 0x4F6E6C79206F776E65722063616E206164642061206A6F636B65790000000000 DUP2 MSTORE POP SWAP1 PUSH2 0x1EDD JUMPI PUSH1 0x40 MLOAD PUSH32 0x8C379A000000000000000000000000000000000000000000000000000000000 DUP2 MSTORE PUSH1 0x4 ADD PUSH2 0x1ED4 SWAP2 SWAP1 PUSH2 0x2F0C JUMP JUMPDEST PUSH1 0x40 MLOAD DUP1 SWAP2 SUB SWAP1 REVERT JUMPDEST POP PUSH2 0x2103 JUMP JUMPDEST PUSH2 0x1F22 DUP2 PUSH1 0x40 MLOAD DUP1 PUSH1 0x40 ADD PUSH1 0x40 MSTORE DUP1 PUSH1 0xE DUP2 MSTORE PUSH1 0x20 ADD PUSH32 0x7374617274486F72736552616365000000000000000000000000000000000000 DUP2 MSTORE POP PUSH2 0x3F0 JUMP JUMPDEST ISZERO PUSH2 0x1FF4 JUMPI PUSH1 0x2 PUSH0 SWAP1 SLOAD SWAP1 PUSH2 0x100 EXP SWAP1 DIV PUSH20 0xFFFFFFFFFFFFFFFFFFFFFFFFFFFFFFFFFFFFFFFF AND PUSH20 0xFFFFFFFFFFFFFFFFFFFFFFFFFFFFFFFFFFFFFFFF AND CALLER PUSH20 0xFFFFFFFFFFFFFFFFFFFFFFFFFFFFFFFFFFFFFFFF AND EQ PUSH1 0x40 MLOAD DUP1 PUSH1 0x40 ADD PUSH1 0x40 MSTORE DUP1 PUSH1 0x1D DUP2 MSTORE PUSH1 0x20 ADD PUSH32 0x4F6E6C79206F776E65722063616E207374617274207468652072616365000000 DUP2 MSTORE POP SWAP1 PUSH2 0x1FEE JUMPI PUSH1 0x40 MLOAD PUSH32 0x8C379A000000000000000000000000000000000000000000000000000000000 DUP2 MSTORE PUSH1 0x4 ADD PUSH2 0x1FE5 SWAP2 SWAP1 PUSH2 0x2F0C JUMP JUMPDEST PUSH1 0x40 MLOAD DUP1 SWAP2 SUB SWAP1 REVERT JUMPDEST POP PUSH2 0x2102 JUMP JUMPDEST PUSH2 0x2033 DUP2 PUSH1 0x40 MLOAD DUP1 PUSH1 0x40 ADD PUSH1 0x40 MSTORE DUP1 PUSH1 0xE DUP2 MSTORE PUSH1 0x20 ADD PUSH32 0x7374617274486F72736552616365000000000000000000000000000000000000 DUP2 MSTORE POP PUSH2 0x3F0 JUMP JUMPDEST ISZERO PUSH2 0x2101 JUMPI PUSH1 0x2 PUSH0 SWAP1 SLOAD SWAP1 PUSH2 0x100 EXP SWAP1 DIV PUSH20 0xFFFFFFFFFFFFFFFFFFFFFFFFFFFFFFFFFFFFFFFF AND PUSH20 0xFFFFFFFFFFFFFFFFFFFFFFFFFFFFFFFFFFFFFFFF AND CALLER PUSH20 0xFFFFFFFFFFFFFFFFFFFFFFFFFFFFFFFFFFFFFFFF AND EQ PUSH1 0x40 MLOAD DUP1 PUSH1 0x40 ADD PUSH1 0x40 MSTORE DUP1 PUSH1 0x1E DUP2 MSTORE PUSH1 0x20 ADD PUSH32 0x4F6E6C79206F776E65722063616E2063616E63656C2074686520726163650000 DUP2 MSTORE POP SWAP1 PUSH2 0x20FF JUMPI PUSH1 0x40 MLOAD PUSH32 0x8C379A000000000000000000000000000000000000000000000000000000000 DUP2 MSTORE PUSH1 0x4 ADD PUSH2 0x20F6 SWAP2 SWAP1 PUSH2 0x2F0C JUMP JUMPDEST PUSH1 0x40 MLOAD DUP1 SWAP2 SUB SWAP1 REVERT JUMPDEST POP JUMPDEST JUMPDEST JUMPDEST JUMPDEST PUSH0 PUSH1 0x1 DUP1 DUP1 SLOAD SWAP1 POP PUSH2 0x2116 SWAP2 SWAP1 PUSH2 0x3097 JUMP JUMPDEST SWAP1 POP PUSH0 PUSH1 0x40 MLOAD DUP1 PUSH1 0x40 ADD PUSH1 0x40 MSTORE DUP1 DUP4 DUP2 MSTORE PUSH1 0x20 ADD DUP7 DUP2 MSTORE POP SWAP1 POP PUSH1 0x1 DUP2 SWAP1 DUP1 PUSH1 0x1 DUP2 SLOAD ADD DUP1 DUP3 SSTORE DUP1 SWAP2 POP POP PUSH1 0x1 SWAP1 SUB SWAP1 PUSH0 MSTORE PUSH1 0x20 PUSH0 KECCAK256 SWAP1 PUSH1 0x2 MUL ADD PUSH0 SWAP1 SWAP2 SWAP1 SWAP2 SWAP1 SWAP2 POP PUSH0 DUP3 ADD MLOAD DUP2 PUSH0 ADD SSTORE PUSH1 0x20 DUP3 ADD MLOAD DUP2 PUSH1 0x1 ADD SWAP1 DUP2 PUSH2 0x2176 SWAP2 SWAP1 PUSH2 0x3267 JUMP JUMPDEST POP POP POP PUSH1 0x1 SWAP4 POP POP POP POP SWAP2 SWAP1 POP JUMP JUMPDEST PUSH1 0x2 PUSH0 SWAP1 SLOAD SWAP1 PUSH2 0x100 EXP SWAP1 DIV PUSH20 0xFFFFFFFFFFFFFFFFFFFFFFFFFFFFFFFFFFFFFFFF AND PUSH20 0xFFFFFFFFFFFFFFFFFFFFFFFFFFFFFFFFFFFFFFFF AND CALLER PUSH20 0xFFFFFFFFFFFFFFFFFFFFFFFFFFFFFFFFFFFFFFFF AND EQ PUSH2 0x2214 JUMPI PUSH1 0x40 MLOAD PUSH32 0x8C379A000000000000000000000000000000000000000000000000000000000 DUP2 MSTORE PUSH1 0x4 ADD PUSH2 0x220B SWAP1 PUSH2 0x3482 JUMP JUMPDEST PUSH1 0x40 MLOAD DUP1 SWAP2 SUB SWAP1 REVERT JUMPDEST PUSH0 PUSH1 0x3 PUSH0 DUP4 DUP2 MSTORE PUSH1 0x20 ADD SWAP1 DUP2 MSTORE PUSH1 0x20 ADD PUSH0 KECCAK256 PUSH0 ADD SLOAD EQ ISZERO DUP1 ISZERO PUSH2 0x227A JUMPI POP PUSH0 PUSH1 0x3 DUP2 GT ISZERO PUSH2 0x2245 JUMPI PUSH2 0x2244 PUSH2 0x2F2C JUMP JUMPDEST JUMPDEST PUSH1 0x3 PUSH0 DUP4 DUP2 MSTORE PUSH1 0x20 ADD SWAP1 DUP2 MSTORE PUSH1 0x20 ADD PUSH0 KECCAK256 PUSH1 0x4 ADD PUSH0 SWAP1 SLOAD SWAP1 PUSH2 0x100 EXP SWAP1 DIV PUSH1 0xFF AND PUSH1 0x3 DUP2 GT ISZERO PUSH2 0x2278 JUMPI PUSH2 0x2277 PUSH2 0x2F2C JUMP JUMPDEST JUMPDEST EQ JUMPDEST PUSH2 0x22B9 JUMPI PUSH1 0x40 MLOAD PUSH32 0x8C379A000000000000000000000000000000000000000000000000000000000 DUP2 MSTORE PUSH1 0x4 ADD PUSH2 0x22B0 SWAP1 PUSH2 0x3536 JUMP JUMPDEST PUSH1 0x40 MLOAD DUP1 SWAP2 SUB SWAP1 REVERT JUMPDEST PUSH0 JUMPDEST PUSH1 0x8 PUSH0 DUP4 DUP2 MSTORE PUSH1 0x20 ADD SWAP1 DUP2 MSTORE PUSH1 0x20 ADD PUSH0 KECCAK256 DUP1 SLOAD SWAP1 POP DUP2 LT ISZERO PUSH2 0x23C9 JUMPI PUSH0 PUSH1 0x6 PUSH0 PUSH1 0x8 PUSH0 DUP7 DUP2 MSTORE PUSH1 0x20 ADD SWAP1 DUP2 MSTORE PUSH1 0x20 ADD PUSH0 KECCAK256 DUP5 DUP2 SLOAD DUP2 LT PUSH2 0x22FE JUMPI PUSH2 0x22FD PUSH2 0x33C4 JUMP JUMPDEST JUMPDEST SWAP1 PUSH0 MSTORE PUSH1 0x20 PUSH0 KECCAK256 SWAP1 PUSH1 0x5 MUL ADD PUSH0 ADD SLOAD DUP2 MSTORE PUSH1 0x20 ADD SWAP1 DUP2 MSTORE PUSH1 0x20 ADD PUSH0 KECCAK256 PUSH1 0x1 ADD PUSH0 SWAP1 SLOAD SWAP1 PUSH2 0x100 EXP SWAP1 DIV PUSH20 0xFFFFFFFFFFFFFFFFFFFFFFFFFFFFFFFFFFFFFFFF AND SWAP1 POP DUP1 PUSH20 0xFFFFFFFFFFFFFFFFFFFFFFFFFFFFFFFFFFFFFFFF AND PUSH2 0x8FC PUSH1 0x8 PUSH0 DUP7 DUP2 MSTORE PUSH1 0x20 ADD SWAP1 DUP2 MSTORE PUSH1 0x20 ADD PUSH0 KECCAK256 DUP5 DUP2 SLOAD DUP2 LT PUSH2 0x237C JUMPI PUSH2 0x237B PUSH2 0x33C4 JUMP JUMPDEST JUMPDEST SWAP1 PUSH0 MSTORE PUSH1 0x20 PUSH0 KECCAK256 SWAP1 PUSH1 0x5 MUL ADD PUSH1 0x3 ADD SLOAD SWAP1 DUP2 ISZERO MUL SWAP1 PUSH1 0x40 MLOAD PUSH0 PUSH1 0x40 MLOAD DUP1 DUP4 SUB DUP2 DUP6 DUP9 DUP9 CALL SWAP4 POP POP POP POP ISZERO DUP1 ISZERO PUSH2 0x23B4 JUMPI RETURNDATASIZE PUSH0 DUP1 RETURNDATACOPY RETURNDATASIZE PUSH0 REVERT JUMPDEST POP POP DUP1 DUP1 PUSH2 0x23C1 SWAP1 PUSH2 0x33F1 JUMP JUMPDEST SWAP2 POP POP PUSH2 0x22BB JUMP JUMPDEST POP PUSH1 0x8 PUSH0 DUP3 DUP2 MSTORE PUSH1 0x20 ADD SWAP1 DUP2 MSTORE PUSH1 0x20 ADD PUSH0 KECCAK256 PUSH0 PUSH2 0x23E6 SWAP2 SWAP1 PUSH2 0x24D5 JUMP JUMPDEST POP JUMP JUMPDEST PUSH1 0x40 MLOAD DUP1 PUSH1 0x60 ADD PUSH1 0x40 MSTORE DUP1 PUSH0 DUP2 MSTORE PUSH1 0x20 ADD PUSH0 PUSH20 0xFFFFFFFFFFFFFFFFFFFFFFFFFFFFFFFFFFFFFFFF AND DUP2 MSTORE PUSH1 0x20 ADD PUSH1 0x60 DUP2 MSTORE POP SWAP1 JUMP JUMPDEST DUP3 DUP1 SLOAD DUP3 DUP3 SSTORE SWAP1 PUSH0 MSTORE PUSH1 0x20 PUSH0 KECCAK256 SWAP1 DUP2 ADD SWAP3 DUP3 ISZERO PUSH2 0x2458 JUMPI SWAP2 PUSH1 0x20 MUL DUP3 ADD JUMPDEST DUP3 DUP2 GT ISZERO PUSH2 0x2457 JUMPI DUP3 MLOAD DUP3 SSTORE SWAP2 PUSH1 0x20 ADD SWAP2 SWAP1 PUSH1 0x1 ADD SWAP1 PUSH2 0x243C JUMP JUMPDEST JUMPDEST POP SWAP1 POP PUSH2 0x2465 SWAP2 SWAP1 PUSH2 0x24F6 JUMP JUMPDEST POP SWAP1 JUMP JUMPDEST POP DUP1 SLOAD PUSH0 DUP3 SSTORE SWAP1 PUSH0 MSTORE PUSH1 0x20 PUSH0 KECCAK256 SWAP1 DUP2 ADD SWAP1 PUSH2 0x2484 SWAP2 SWAP1 PUSH2 0x24F6 JUMP JUMPDEST POP JUMP JUMPDEST DUP3 DUP1 SLOAD DUP3 DUP3 SSTORE SWAP1 PUSH0 MSTORE PUSH1 0x20 PUSH0 KECCAK256 SWAP1 DUP2 ADD SWAP3 DUP3 ISZERO PUSH2 0x24C4 JUMPI PUSH0 MSTORE PUSH1 0x20 PUSH0 KECCAK256 SWAP2 DUP3 ADD JUMPDEST DUP3 DUP2 GT ISZERO PUSH2 0x24C3 JUMPI DUP3 SLOAD DUP3 SSTORE SWAP2 PUSH1 0x1 ADD SWAP2 SWAP1 PUSH1 0x1 ADD SWAP1 PUSH2 0x24A8 JUMP JUMPDEST JUMPDEST POP SWAP1 POP PUSH2 0x24D1 SWAP2 SWAP1 PUSH2 0x24F6 JUMP JUMPDEST POP SWAP1 JUMP JUMPDEST POP DUP1 SLOAD PUSH0 DUP3 SSTORE PUSH1 0x5 MUL SWAP1 PUSH0 MSTORE PUSH1 0x20 PUSH0 KECCAK256 SWAP1 DUP2 ADD SWAP1 PUSH2 0x24F3 SWAP2 SWAP1 PUSH2 0x2511 JUMP JUMPDEST POP JUMP JUMPDEST JUMPDEST DUP1 DUP3 GT ISZERO PUSH2 0x250D JUMPI PUSH0 DUP2 PUSH0 SWAP1 SSTORE POP PUSH1 0x1 ADD PUSH2 0x24F7 JUMP JUMPDEST POP SWAP1 JUMP JUMPDEST JUMPDEST DUP1 DUP3 GT ISZERO PUSH2 0x2552 JUMPI PUSH0 DUP1 DUP3 ADD PUSH0 SWAP1 SSTORE PUSH1 0x1 DUP3 ADD PUSH0 SWAP1 SSTORE PUSH1 0x2 DUP3 ADD PUSH0 PUSH2 0x100 EXP DUP2 SLOAD SWAP1 PUSH1 0xFF MUL NOT AND SWAP1 SSTORE PUSH1 0x3 DUP3 ADD PUSH0 SWAP1 SSTORE PUSH1 0x4 DUP3 ADD PUSH0 SWAP1 SSTORE POP PUSH1 0x5 ADD PUSH2 0x2512 JUMP JUMPDEST POP SWAP1 JUMP JUMPDEST PUSH0 PUSH1 0x40 MLOAD SWAP1 POP SWAP1 JUMP JUMPDEST PUSH0 DUP1 REVERT JUMPDEST PUSH0 DUP1 REVERT JUMPDEST PUSH0 DUP1 REVERT JUMPDEST PUSH0 DUP1 REVERT JUMPDEST PUSH0 PUSH1 0x1F NOT PUSH1 0x1F DUP4 ADD AND SWAP1 POP SWAP2 SWAP1 POP JUMP JUMPDEST PUSH32 0x4E487B7100000000000000000000000000000000000000000000000000000000 PUSH0 MSTORE PUSH1 0x41 PUSH1 0x4 MSTORE PUSH1 0x24 PUSH0 REVERT JUMPDEST PUSH2 0x25B5 DUP3 PUSH2 0x256F JUMP JUMPDEST DUP2 ADD DUP2 DUP2 LT PUSH8 0xFFFFFFFFFFFFFFFF DUP3 GT OR ISZERO PUSH2 0x25D4 JUMPI PUSH2 0x25D3 PUSH2 0x257F JUMP JUMPDEST JUMPDEST DUP1 PUSH1 0x40 MSTORE POP POP POP JUMP JUMPDEST PUSH0 PUSH2 0x25E6 PUSH2 0x2556 JUMP JUMPDEST SWAP1 POP PUSH2 0x25F2 DUP3 DUP3 PUSH2 0x25AC JUMP JUMPDEST SWAP2 SWAP1 POP JUMP JUMPDEST PUSH0 PUSH8 0xFFFFFFFFFFFFFFFF DUP3 GT ISZERO PUSH2 0x2611 JUMPI PUSH2 0x2610 PUSH2 0x257F JUMP JUMPDEST JUMPDEST PUSH2 0x261A DUP3 PUSH2 0x256F JUMP JUMPDEST SWAP1 POP PUSH1 0x20 DUP2 ADD SWAP1 POP SWAP2 SWAP1 POP JUMP JUMPDEST DUP3 DUP2 DUP4 CALLDATACOPY PUSH0 DUP4 DUP4 ADD MSTORE POP POP POP JUMP JUMPDEST PUSH0 PUSH2 0x2647 PUSH2 0x2642 DUP5 PUSH2 0x25F7 JUMP JUMPDEST PUSH2 0x25DD JUMP JUMPDEST SWAP1 POP DUP3 DUP2 MSTORE PUSH1 0x20 DUP2 ADD DUP5 DUP5 DUP5 ADD GT ISZERO PUSH2 0x2663 JUMPI PUSH2 0x2662 PUSH2 0x256B JUMP JUMPDEST JUMPDEST PUSH2 0x266E DUP5 DUP3 DUP6 PUSH2 0x2627 JUMP JUMPDEST POP SWAP4 SWAP3 POP POP POP JUMP JUMPDEST PUSH0 DUP3 PUSH1 0x1F DUP4 ADD SLT PUSH2 0x268A JUMPI PUSH2 0x2689 PUSH2 0x2567 JUMP JUMPDEST JUMPDEST DUP2 CALLDATALOAD PUSH2 0x269A DUP5 DUP3 PUSH1 0x20 DUP7 ADD PUSH2 0x2635 JUMP JUMPDEST SWAP2 POP POP SWAP3 SWAP2 POP POP JUMP JUMPDEST PUSH0 PUSH1 0x20 DUP3 DUP5 SUB SLT ISZERO PUSH2 0x26B8 JUMPI PUSH2 0x26B7 PUSH2 0x255F JUMP JUMPDEST JUMPDEST PUSH0 DUP3 ADD CALLDATALOAD PUSH8 0xFFFFFFFFFFFFFFFF DUP2 GT ISZERO PUSH2 0x26D5 JUMPI PUSH2 0x26D4 PUSH2 0x2563 JUMP JUMPDEST JUMPDEST PUSH2 0x26E1 DUP5 DUP3 DUP6 ADD PUSH2 0x2676 JUMP JUMPDEST SWAP2 POP POP SWAP3 SWAP2 POP POP JUMP JUMPDEST PUSH0 DUP2 ISZERO ISZERO SWAP1 POP SWAP2 SWAP1 POP JUMP JUMPDEST PUSH2 0x26FE DUP2 PUSH2 0x26EA JUMP JUMPDEST DUP3 MSTORE POP POP JUMP JUMPDEST PUSH0 PUSH1 0x20 DUP3 ADD SWAP1 POP PUSH2 0x2717 PUSH0 DUP4 ADD DUP5 PUSH2 0x26F5 JUMP JUMPDEST SWAP3 SWAP2 POP POP JUMP JUMPDEST PUSH0 DUP2 SWAP1 POP SWAP2 SWAP1 POP JUMP JUMPDEST PUSH2 0x272F DUP2 PUSH2 0x271D JUMP JUMPDEST DUP2 EQ PUSH2 0x2739 JUMPI PUSH0 DUP1 REVERT JUMPDEST POP JUMP JUMPDEST PUSH0 DUP2 CALLDATALOAD SWAP1 POP PUSH2 0x274A DUP2 PUSH2 0x2726 JUMP JUMPDEST SWAP3 SWAP2 POP POP JUMP JUMPDEST PUSH0 PUSH8 0xFFFFFFFFFFFFFFFF DUP3 GT ISZERO PUSH2 0x276A JUMPI PUSH2 0x2769 PUSH2 0x257F JUMP JUMPDEST JUMPDEST PUSH1 0x20 DUP3 MUL SWAP1 POP PUSH1 0x20 DUP2 ADD SWAP1 POP SWAP2 SWAP1 POP JUMP JUMPDEST PUSH0 DUP1 REVERT JUMPDEST PUSH0 PUSH2 0x2791 PUSH2 0x278C DUP5 PUSH2 0x2750 JUMP JUMPDEST PUSH2 0x25DD JUMP JUMPDEST SWAP1 POP DUP1 DUP4 DUP3 MSTORE PUSH1 0x20 DUP3 ADD SWAP1 POP PUSH1 0x20 DUP5 MUL DUP4 ADD DUP6 DUP2 GT ISZERO PUSH2 0x27B4 JUMPI PUSH2 0x27B3 PUSH2 0x277B JUMP JUMPDEST JUMPDEST DUP4 JUMPDEST DUP2 DUP2 LT ISZERO PUSH2 0x27DD JUMPI DUP1 PUSH2 0x27C9 DUP9 DUP3 PUSH2 0x273C JUMP JUMPDEST DUP5 MSTORE PUSH1 0x20 DUP5 ADD SWAP4 POP POP PUSH1 0x20 DUP2 ADD SWAP1 POP PUSH2 0x27B6 JUMP JUMPDEST POP POP POP SWAP4 SWAP3 POP POP POP JUMP JUMPDEST PUSH0 DUP3 PUSH1 0x1F DUP4 ADD SLT PUSH2 0x27FB JUMPI PUSH2 0x27FA PUSH2 0x2567 JUMP JUMPDEST JUMPDEST DUP2 CALLDATALOAD PUSH2 0x280B DUP5 DUP3 PUSH1 0x20 DUP7 ADD PUSH2 0x277F JUMP JUMPDEST SWAP2 POP POP SWAP3 SWAP2 POP POP JUMP JUMPDEST PUSH0 DUP1 PUSH0 PUSH1 0x60 DUP5 DUP7 SUB SLT ISZERO PUSH2 0x282B JUMPI PUSH2 0x282A PUSH2 0x255F JUMP JUMPDEST JUMPDEST PUSH0 PUSH2 0x2838 DUP7 DUP3 DUP8 ADD PUSH2 0x273C JUMP JUMPDEST SWAP4 POP POP PUSH1 0x20 DUP5 ADD CALLDATALOAD PUSH8 0xFFFFFFFFFFFFFFFF DUP2 GT ISZERO PUSH2 0x2859 JUMPI PUSH2 0x2858 PUSH2 0x2563 JUMP JUMPDEST JUMPDEST PUSH2 0x2865 DUP7 DUP3 DUP8 ADD PUSH2 0x27E7 JUMP JUMPDEST SWAP3 POP POP PUSH1 0x40 DUP5 ADD CALLDATALOAD PUSH8 0xFFFFFFFFFFFFFFFF DUP2 GT ISZERO PUSH2 0x2886 JUMPI PUSH2 0x2885 PUSH2 0x2563 JUMP JUMPDEST JUMPDEST PUSH2 0x2892 DUP7 DUP3 DUP8 ADD PUSH2 0x27E7 JUMP JUMPDEST SWAP2 POP POP SWAP3 POP SWAP3 POP SWAP3 JUMP JUMPDEST PUSH0 PUSH1 0x20 DUP3 DUP5 SUB SLT ISZERO PUSH2 0x28B1 JUMPI PUSH2 0x28B0 PUSH2 0x255F JUMP JUMPDEST JUMPDEST PUSH0 PUSH2 0x28BE DUP5 DUP3 DUP6 ADD PUSH2 0x273C JUMP JUMPDEST SWAP2 POP POP SWAP3 SWAP2 POP POP JUMP JUMPDEST PUSH0 DUP1 PUSH1 0x40 DUP4 DUP6 SUB SLT ISZERO PUSH2 0x28DD JUMPI PUSH2 0x28DC PUSH2 0x255F JUMP JUMPDEST JUMPDEST PUSH0 DUP4 ADD CALLDATALOAD PUSH8 0xFFFFFFFFFFFFFFFF DUP2 GT ISZERO PUSH2 0x28FA JUMPI PUSH2 0x28F9 PUSH2 0x2563 JUMP JUMPDEST JUMPDEST PUSH2 0x2906 DUP6 DUP3 DUP7 ADD PUSH2 0x2676 JUMP JUMPDEST SWAP3 POP POP PUSH1 0x20 DUP4 ADD CALLDATALOAD PUSH8 0xFFFFFFFFFFFFFFFF DUP2 GT ISZERO PUSH2 0x2927 JUMPI PUSH2 0x2926 PUSH2 0x2563 JUMP JUMPDEST JUMPDEST PUSH2 0x2933 DUP6 DUP3 DUP7 ADD PUSH2 0x2676 JUMP JUMPDEST SWAP2 POP POP SWAP3 POP SWAP3 SWAP1 POP JUMP JUMPDEST PUSH0 PUSH20 0xFFFFFFFFFFFFFFFFFFFFFFFFFFFFFFFFFFFFFFFF DUP3 AND SWAP1 POP SWAP2 SWAP1 POP JUMP JUMPDEST PUSH0 PUSH2 0x2966 DUP3 PUSH2 0x293D JUMP JUMPDEST SWAP1 POP SWAP2 SWAP1 POP JUMP JUMPDEST PUSH2 0x2976 DUP2 PUSH2 0x295C JUMP JUMPDEST DUP3 MSTORE POP POP JUMP JUMPDEST PUSH0 PUSH1 0x20 DUP3 ADD SWAP1 POP PUSH2 0x298F PUSH0 DUP4 ADD DUP5 PUSH2 0x296D JUMP JUMPDEST SWAP3 SWAP2 POP POP JUMP JUMPDEST PUSH0 DUP2 MLOAD SWAP1 POP SWAP2 SWAP1 POP JUMP JUMPDEST PUSH0 DUP3 DUP3 MSTORE PUSH1 0x20 DUP3 ADD SWAP1 POP SWAP3 SWAP2 POP POP JUMP JUMPDEST PUSH0 DUP2 SWAP1 POP PUSH1 0x20 DUP3 ADD SWAP1 POP SWAP2 SWAP1 POP JUMP JUMPDEST PUSH2 0x29C7 DUP2 PUSH2 0x271D JUMP JUMPDEST DUP3 MSTORE POP POP JUMP JUMPDEST PUSH0 DUP2 MLOAD SWAP1 POP SWAP2 SWAP1 POP JUMP JUMPDEST PUSH0 DUP3 DUP3 MSTORE PUSH1 0x20 DUP3 ADD SWAP1 POP SWAP3 SWAP2 POP POP JUMP JUMPDEST PUSH0 JUMPDEST DUP4 DUP2 LT ISZERO PUSH2 0x2A04 JUMPI DUP1 DUP3 ADD MLOAD DUP2 DUP5 ADD MSTORE PUSH1 0x20 DUP2 ADD SWAP1 POP PUSH2 0x29E9 JUMP JUMPDEST PUSH0 DUP5 DUP5 ADD MSTORE POP POP POP POP JUMP JUMPDEST PUSH0 PUSH2 0x2A19 DUP3 PUSH2 0x29CD JUMP JUMPDEST PUSH2 0x2A23 DUP2 DUP6 PUSH2 0x29D7 JUMP JUMPDEST SWAP4 POP PUSH2 0x2A33 DUP2 DUP6 PUSH1 0x20 DUP7 ADD PUSH2 0x29E7 JUMP JUMPDEST PUSH2 0x2A3C DUP2 PUSH2 0x256F JUMP JUMPDEST DUP5 ADD SWAP2 POP POP SWAP3 SWAP2 POP POP JUMP JUMPDEST PUSH0 PUSH1 0x40 DUP4 ADD PUSH0 DUP4 ADD MLOAD PUSH2 0x2A5C PUSH0 DUP7 ADD DUP3 PUSH2 0x29BE JUMP JUMPDEST POP PUSH1 0x20 DUP4 ADD MLOAD DUP5 DUP3 SUB PUSH1 0x20 DUP7 ADD MSTORE PUSH2 0x2A74 DUP3 DUP3 PUSH2 0x2A0F JUMP JUMPDEST SWAP2 POP POP DUP1 SWAP2 POP POP SWAP3 SWAP2 POP POP JUMP JUMPDEST PUSH0 PUSH2 0x2A8C DUP4 DUP4 PUSH2 0x2A47 JUMP JUMPDEST SWAP1 POP SWAP3 SWAP2 POP POP JUMP JUMPDEST PUSH0 PUSH1 0x20 DUP3 ADD SWAP1 POP SWAP2 SWAP1 POP JUMP JUMPDEST PUSH0 PUSH2 0x2AAA DUP3 PUSH2 0x2995 JUMP JUMPDEST PUSH2 0x2AB4 DUP2 DUP6 PUSH2 0x299F JUMP JUMPDEST SWAP4 POP DUP4 PUSH1 0x20 DUP3 MUL DUP6 ADD PUSH2 0x2AC6 DUP6 PUSH2 0x29AF JUMP JUMPDEST DUP1 PUSH0 JUMPDEST DUP6 DUP2 LT ISZERO PUSH2 0x2B01 JUMPI DUP5 DUP5 SUB DUP10 MSTORE DUP2 MLOAD PUSH2 0x2AE2 DUP6 DUP3 PUSH2 0x2A81 JUMP JUMPDEST SWAP5 POP PUSH2 0x2AED DUP4 PUSH2 0x2A94 JUMP JUMPDEST SWAP3 POP PUSH1 0x20 DUP11 ADD SWAP10 POP POP PUSH1 0x1 DUP2 ADD SWAP1 POP PUSH2 0x2AC9 JUMP JUMPDEST POP DUP3 SWAP8 POP DUP8 SWAP6 POP POP POP POP POP POP SWAP3 SWAP2 POP POP JUMP JUMPDEST PUSH0 PUSH1 0x20 DUP3 ADD SWAP1 POP DUP2 DUP2 SUB PUSH0 DUP4 ADD MSTORE PUSH2 0x2B2B DUP2 DUP5 PUSH2 0x2AA0 JUMP JUMPDEST SWAP1 POP SWAP3 SWAP2 POP POP JUMP JUMPDEST PUSH0 DUP2 MLOAD SWAP1 POP SWAP2 SWAP1 POP JUMP JUMPDEST PUSH0 DUP3 DUP3 MSTORE PUSH1 0x20 DUP3 ADD SWAP1 POP SWAP3 SWAP2 POP POP JUMP JUMPDEST PUSH0 DUP2 SWAP1 POP PUSH1 0x20 DUP3 ADD SWAP1 POP SWAP2 SWAP1 POP JUMP JUMPDEST PUSH0 PUSH1 0x40 DUP4 ADD PUSH0 DUP4 ADD MLOAD PUSH2 0x2B71 PUSH0 DUP7 ADD DUP3 PUSH2 0x29BE JUMP JUMPDEST POP PUSH1 0x20 DUP4 ADD MLOAD DUP5 DUP3 SUB PUSH1 0x20 DUP7 ADD MSTORE PUSH2 0x2B89 DUP3 DUP3 PUSH2 0x2A0F JUMP JUMPDEST SWAP2 POP POP DUP1 SWAP2 POP POP SWAP3 SWAP2 POP POP JUMP JUMPDEST PUSH0 PUSH2 0x2BA1 DUP4 DUP4 PUSH2 0x2B5C JUMP JUMPDEST SWAP1 POP SWAP3 SWAP2 POP POP JUMP JUMPDEST PUSH0 PUSH1 0x20 DUP3 ADD SWAP1 POP SWAP2 SWAP1 POP JUMP JUMPDEST PUSH0 PUSH2 0x2BBF DUP3 PUSH2 0x2B33 JUMP JUMPDEST PUSH2 0x2BC9 DUP2 DUP6 PUSH2 0x2B3D JUMP JUMPDEST SWAP4 POP DUP4 PUSH1 0x20 DUP3 MUL DUP6 ADD PUSH2 0x2BDB DUP6 PUSH2 0x2B4D JUMP JUMPDEST DUP1 PUSH0 JUMPDEST DUP6 DUP2 LT ISZERO PUSH2 0x2C16 JUMPI DUP5 DUP5 SUB DUP10 MSTORE DUP2 MLOAD PUSH2 0x2BF7 DUP6 DUP3 PUSH2 0x2B96 JUMP JUMPDEST SWAP5 POP PUSH2 0x2C02 DUP4 PUSH2 0x2BA9 JUMP JUMPDEST SWAP3 POP PUSH1 0x20 DUP11 ADD SWAP10 POP POP PUSH1 0x1 DUP2 ADD SWAP1 POP PUSH2 0x2BDE JUMP JUMPDEST POP DUP3 SWAP8 POP DUP8 SWAP6 POP POP POP POP POP POP SWAP3 SWAP2 POP POP JUMP JUMPDEST PUSH0 PUSH1 0x20 DUP3 ADD SWAP1 POP DUP2 DUP2 SUB PUSH0 DUP4 ADD MSTORE PUSH2 0x2C40 DUP2 DUP5 PUSH2 0x2BB5 JUMP JUMPDEST SWAP1 POP SWAP3 SWAP2 POP POP JUMP JUMPDEST PUSH2 0x2C51 DUP2 PUSH2 0x295C JUMP JUMPDEST DUP3 MSTORE POP POP JUMP JUMPDEST PUSH0 PUSH1 0x60 DUP4 ADD PUSH0 DUP4 ADD MLOAD PUSH2 0x2C6C PUSH0 DUP7 ADD DUP3 PUSH2 0x29BE JUMP JUMPDEST POP PUSH1 0x20 DUP4 ADD MLOAD PUSH2 0x2C7F PUSH1 0x20 DUP7 ADD DUP3 PUSH2 0x2C48 JUMP JUMPDEST POP PUSH1 0x40 DUP4 ADD MLOAD DUP5 DUP3 SUB PUSH1 0x40 DUP7 ADD MSTORE PUSH2 0x2C97 DUP3 DUP3 PUSH2 0x2A0F JUMP JUMPDEST SWAP2 POP POP DUP1 SWAP2 POP POP SWAP3 SWAP2 POP POP JUMP JUMPDEST PUSH0 PUSH1 0x20 DUP3 ADD SWAP1 POP DUP2 DUP2 SUB PUSH0 DUP4 ADD MSTORE PUSH2 0x2CBC DUP2 DUP5 PUSH2 0x2C57 JUMP JUMPDEST SWAP1 POP SWAP3 SWAP2 POP POP JUMP JUMPDEST PUSH0 DUP2 MLOAD SWAP1 POP SWAP2 SWAP1 POP JUMP JUMPDEST PUSH0 DUP3 DUP3 MSTORE PUSH1 0x20 DUP3 ADD SWAP1 POP SWAP3 SWAP2 POP POP JUMP JUMPDEST PUSH0 DUP2 SWAP1 POP PUSH1 0x20 DUP3 ADD SWAP1 POP SWAP2 SWAP1 POP JUMP JUMPDEST PUSH0 PUSH2 0x2CF8 DUP4 DUP4 PUSH2 0x29BE JUMP JUMPDEST PUSH1 0x20 DUP4 ADD SWAP1 POP SWAP3 SWAP2 POP POP JUMP JUMPDEST PUSH0 PUSH1 0x20 DUP3 ADD SWAP1 POP SWAP2 SWAP1 POP JUMP JUMPDEST PUSH0 PUSH2 0x2D1A DUP3 PUSH2 0x2CC4 JUMP JUMPDEST PUSH2 0x2D24 DUP2 DUP6 PUSH2 0x2CCE JUMP JUMPDEST SWAP4 POP PUSH2 0x2D2F DUP4 PUSH2 0x2CDE JUMP JUMPDEST DUP1 PUSH0 JUMPDEST DUP4 DUP2 LT ISZERO PUSH2 0x2D5F JUMPI DUP2 MLOAD PUSH2 0x2D46 DUP9 DUP3 PUSH2 0x2CED JUMP JUMPDEST SWAP8 POP PUSH2 0x2D51 DUP4 PUSH2 0x2D04 JUMP JUMPDEST SWAP3 POP POP PUSH1 0x1 DUP2 ADD SWAP1 POP PUSH2 0x2D32 JUMP JUMPDEST POP DUP6 SWAP4 POP POP POP POP SWAP3 SWAP2 POP POP JUMP JUMPDEST PUSH0 PUSH1 0x20 DUP3 ADD SWAP1 POP DUP2 DUP2 SUB PUSH0 DUP4 ADD MSTORE PUSH2 0x2D84 DUP2 DUP5 PUSH2 0x2D10 JUMP JUMPDEST SWAP1 POP SWAP3 SWAP2 POP POP JUMP JUMPDEST PUSH2 0x2D95 DUP2 PUSH2 0x295C JUMP JUMPDEST DUP2 EQ PUSH2 0x2D9F JUMPI PUSH0 DUP1 REVERT JUMPDEST POP JUMP JUMPDEST PUSH0 DUP2 CALLDATALOAD SWAP1 POP PUSH2 0x2DB0 DUP2 PUSH2 0x2D8C JUMP JUMPDEST SWAP3 SWAP2 POP POP JUMP JUMPDEST PUSH0 DUP1 PUSH1 0x40 DUP4 DUP6 SUB SLT ISZERO PUSH2 0x2DCC JUMPI PUSH2 0x2DCB PUSH2 0x255F JUMP JUMPDEST JUMPDEST PUSH0 DUP4 ADD CALLDATALOAD PUSH8 0xFFFFFFFFFFFFFFFF DUP2 GT ISZERO PUSH2 0x2DE9 JUMPI PUSH2 0x2DE8 PUSH2 0x2563 JUMP JUMPDEST JUMPDEST PUSH2 0x2DF5 DUP6 DUP3 DUP7 ADD PUSH2 0x2676 JUMP JUMPDEST SWAP3 POP POP PUSH1 0x20 PUSH2 0x2E06 DUP6 DUP3 DUP7 ADD PUSH2 0x2DA2 JUMP JUMPDEST SWAP2 POP POP SWAP3 POP SWAP3 SWAP1 POP JUMP JUMPDEST PUSH0 DUP1 PUSH0 DUP1 PUSH1 0x80 DUP6 DUP8 SUB SLT ISZERO PUSH2 0x2E28 JUMPI PUSH2 0x2E27 PUSH2 0x255F JUMP JUMPDEST JUMPDEST PUSH0 PUSH2 0x2E35 DUP8 DUP3 DUP9 ADD PUSH2 0x273C JUMP JUMPDEST SWAP5 POP POP PUSH1 0x20 PUSH2 0x2E46 DUP8 DUP3 DUP9 ADD PUSH2 0x273C JUMP JUMPDEST SWAP4 POP POP PUSH1 0x40 PUSH2 0x2E57 DUP8 DUP3 DUP9 ADD PUSH2 0x273C JUMP JUMPDEST SWAP3 POP POP PUSH1 0x60 PUSH2 0x2E68 DUP8 DUP3 DUP9 ADD PUSH2 0x273C JUMP JUMPDEST SWAP2 POP POP SWAP3 SWAP6 SWAP2 SWAP5 POP SWAP3 POP JUMP JUMPDEST PUSH0 DUP2 SWAP1 POP SWAP3 SWAP2 POP POP JUMP JUMPDEST PUSH0 PUSH2 0x2E88 DUP3 PUSH2 0x29CD JUMP JUMPDEST PUSH2 0x2E92 DUP2 DUP6 PUSH2 0x2E74 JUMP JUMPDEST SWAP4 POP PUSH2 0x2EA2 DUP2 DUP6 PUSH1 0x20 DUP7 ADD PUSH2 0x29E7 JUMP JUMPDEST DUP1 DUP5 ADD SWAP2 POP POP SWAP3 SWAP2 POP POP JUMP JUMPDEST PUSH0 PUSH2 0x2EB9 DUP3 DUP5 PUSH2 0x2E7E JUMP JUMPDEST SWAP2 POP DUP2 SWAP1 POP SWAP3 SWAP2 POP POP JUMP JUMPDEST PUSH0 DUP3 DUP3 MSTORE PUSH1 0x20 DUP3 ADD SWAP1 POP SWAP3 SWAP2 POP POP JUMP JUMPDEST PUSH0 PUSH2 0x2EDE DUP3 PUSH2 0x29CD JUMP JUMPDEST PUSH2 0x2EE8 DUP2 DUP6 PUSH2 0x2EC4 JUMP JUMPDEST SWAP4 POP PUSH2 0x2EF8 DUP2 DUP6 PUSH1 0x20 DUP7 ADD PUSH2 0x29E7 JUMP JUMPDEST PUSH2 0x2F01 DUP2 PUSH2 0x256F JUMP JUMPDEST DUP5 ADD SWAP2 POP POP SWAP3 SWAP2 POP POP JUMP JUMPDEST PUSH0 PUSH1 0x20 DUP3 ADD SWAP1 POP DUP2 DUP2 SUB PUSH0 DUP4 ADD MSTORE PUSH2 0x2F24 DUP2 DUP5 PUSH2 0x2ED4 JUMP JUMPDEST SWAP1 POP SWAP3 SWAP2 POP POP JUMP JUMPDEST PUSH32 0x4E487B7100000000000000000000000000000000000000000000000000000000 PUSH0 MSTORE PUSH1 0x21 PUSH1 0x4 MSTORE PUSH1 0x24 PUSH0 REVERT JUMPDEST PUSH32 0x4661696C656420746F2063616E63656C2064756520746F20496E76616C696420 PUSH0 DUP3 ADD MSTORE PUSH32 0x52616365204964206F722052616365206D6967687420626520636F6D706C6574 PUSH1 0x20 DUP3 ADD MSTORE PUSH32 0x6564000000000000000000000000000000000000000000000000000000000000 PUSH1 0x40 DUP3 ADD MSTORE POP JUMP JUMPDEST PUSH0 PUSH2 0x2FD9 PUSH1 0x42 DUP4 PUSH2 0x2EC4 JUMP JUMPDEST SWAP2 POP PUSH2 0x2FE4 DUP3 PUSH2 0x2F59 JUMP JUMPDEST PUSH1 0x60 DUP3 ADD SWAP1 POP SWAP2 SWAP1 POP JUMP JUMPDEST PUSH0 PUSH1 0x20 DUP3 ADD SWAP1 POP DUP2 DUP2 SUB PUSH0 DUP4 ADD MSTORE PUSH2 0x3006 DUP2 PUSH2 0x2FCD JUMP JUMPDEST SWAP1 POP SWAP2 SWAP1 POP JUMP JUMPDEST PUSH32 0x4E487B7100000000000000000000000000000000000000000000000000000000 PUSH0 MSTORE PUSH1 0x22 PUSH1 0x4 MSTORE PUSH1 0x24 PUSH0 REVERT JUMPDEST PUSH0 PUSH1 0x2 DUP3 DIV SWAP1 POP PUSH1 0x1 DUP3 AND DUP1 PUSH2 0x3051 JUMPI PUSH1 0x7F DUP3 AND SWAP2 POP JUMPDEST PUSH1 0x20 DUP3 LT DUP2 SUB PUSH2 0x3064 JUMPI PUSH2 0x3063 PUSH2 0x300D JUMP JUMPDEST JUMPDEST POP SWAP2 SWAP1 POP JUMP JUMPDEST PUSH32 0x4E487B7100000000000000000000000000000000000000000000000000000000 PUSH0 MSTORE PUSH1 0x11 PUSH1 0x4 MSTORE PUSH1 0x24 PUSH0 REVERT JUMPDEST PUSH0 PUSH2 0x30A1 DUP3 PUSH2 0x271D JUMP JUMPDEST SWAP2 POP PUSH2 0x30AC DUP4 PUSH2 0x271D JUMP JUMPDEST SWAP3 POP DUP3 DUP3 ADD SWAP1 POP DUP1 DUP3 GT ISZERO PUSH2 0x30C4 JUMPI PUSH2 0x30C3 PUSH2 0x306A JUMP JUMPDEST JUMPDEST SWAP3 SWAP2 POP POP JUMP JUMPDEST PUSH0 DUP2 SWAP1 POP DUP2 PUSH0 MSTORE PUSH1 0x20 PUSH0 KECCAK256 SWAP1 POP SWAP2 SWAP1 POP JUMP JUMPDEST PUSH0 PUSH1 0x20 PUSH1 0x1F DUP4 ADD DIV SWAP1 POP SWAP2 SWAP1 POP JUMP JUMPDEST PUSH0 DUP3 DUP3 SHL SWAP1 POP SWAP3 SWAP2 POP POP JUMP JUMPDEST PUSH0 PUSH1 0x8 DUP4 MUL PUSH2 0x3126 PUSH32 0xFFFFFFFFFFFFFFFFFFFFFFFFFFFFFFFFFFFFFFFFFFFFFFFFFFFFFFFFFFFFFFFF DUP3 PUSH2 0x30EB JUMP JUMPDEST PUSH2 0x3130 DUP7 DUP4 PUSH2 0x30EB JUMP JUMPDEST SWAP6 POP DUP1 NOT DUP5 AND SWAP4 POP DUP1 DUP7 AND DUP5 OR SWAP3 POP POP POP SWAP4 SWAP3 POP POP POP JUMP JUMPDEST PUSH0 DUP2 SWAP1 POP SWAP2 SWAP1 POP JUMP JUMPDEST PUSH0 PUSH2 0x316B PUSH2 0x3166 PUSH2 0x3161 DUP5 PUSH2 0x271D JUMP JUMPDEST PUSH2 0x3148 JUMP JUMPDEST PUSH2 0x271D JUMP JUMPDEST SWAP1 POP SWAP2 SWAP1 POP JUMP JUMPDEST PUSH0 DUP2 SWAP1 POP SWAP2 SWAP1 POP JUMP JUMPDEST PUSH2 0x3184 DUP4 PUSH2 0x3151 JUMP JUMPDEST PUSH2 0x3198 PUSH2 0x3190 DUP3 PUSH2 0x3172 JUMP JUMPDEST DUP5 DUP5 SLOAD PUSH2 0x30F7 JUMP JUMPDEST DUP3 SSTORE POP POP POP POP JUMP JUMPDEST PUSH0 SWAP1 JUMP JUMPDEST PUSH2 0x31AC PUSH2 0x31A0 JUMP JUMPDEST PUSH2 0x31B7 DUP2 DUP5 DUP5 PUSH2 0x317B JUMP JUMPDEST POP POP POP JUMP JUMPDEST JUMPDEST DUP2 DUP2 LT ISZERO PUSH2 0x31DA JUMPI PUSH2 0x31CF PUSH0 DUP3 PUSH2 0x31A4 JUMP JUMPDEST PUSH1 0x1 DUP2 ADD SWAP1 POP PUSH2 0x31BD JUMP JUMPDEST POP POP JUMP JUMPDEST PUSH1 0x1F DUP3 GT ISZERO PUSH2 0x321F JUMPI PUSH2 0x31F0 DUP2 PUSH2 0x30CA JUMP JUMPDEST PUSH2 0x31F9 DUP5 PUSH2 0x30DC JUMP JUMPDEST DUP2 ADD PUSH1 0x20 DUP6 LT ISZERO PUSH2 0x3208 JUMPI DUP2 SWAP1 POP JUMPDEST PUSH2 0x321C PUSH2 0x3214 DUP6 PUSH2 0x30DC JUMP JUMPDEST DUP4 ADD DUP3 PUSH2 0x31BC JUMP JUMPDEST POP POP JUMPDEST POP POP POP JUMP JUMPDEST PUSH0 DUP3 DUP3 SHR SWAP1 POP SWAP3 SWAP2 POP POP JUMP JUMPDEST PUSH0 PUSH2 0x323F PUSH0 NOT DUP5 PUSH1 0x8 MUL PUSH2 0x3224 JUMP JUMPDEST NOT DUP1 DUP4 AND SWAP2 POP POP SWAP3 SWAP2 POP POP JUMP JUMPDEST PUSH0 PUSH2 0x3257 DUP4 DUP4 PUSH2 0x3230 JUMP JUMPDEST SWAP2 POP DUP3 PUSH1 0x2 MUL DUP3 OR SWAP1 POP SWAP3 SWAP2 POP POP JUMP JUMPDEST PUSH2 0x3270 DUP3 PUSH2 0x29CD JUMP JUMPDEST PUSH8 0xFFFFFFFFFFFFFFFF DUP2 GT ISZERO PUSH2 0x3289 JUMPI PUSH2 0x3288 PUSH2 0x257F JUMP JUMPDEST JUMPDEST PUSH2 0x3293 DUP3 SLOAD PUSH2 0x303A JUMP JUMPDEST PUSH2 0x329E DUP3 DUP3 DUP6 PUSH2 0x31DE JUMP JUMPDEST PUSH0 PUSH1 0x20 SWAP1 POP PUSH1 0x1F DUP4 GT PUSH1 0x1 DUP2 EQ PUSH2 0x32CF JUMPI PUSH0 DUP5 ISZERO PUSH2 0x32BD JUMPI DUP3 DUP8 ADD MLOAD SWAP1 POP JUMPDEST PUSH2 0x32C7 DUP6 DUP3 PUSH2 0x324C JUMP JUMPDEST DUP7 SSTORE POP PUSH2 0x332E JUMP JUMPDEST PUSH1 0x1F NOT DUP5 AND PUSH2 0x32DD DUP7 PUSH2 0x30CA JUMP JUMPDEST PUSH0 JUMPDEST DUP3 DUP2 LT ISZERO PUSH2 0x3304 JUMPI DUP5 DUP10 ADD MLOAD DUP3 SSTORE PUSH1 0x1 DUP3 ADD SWAP2 POP PUSH1 0x20 DUP6 ADD SWAP5 POP PUSH1 0x20 DUP2 ADD SWAP1 POP PUSH2 0x32DF JUMP JUMPDEST DUP7 DUP4 LT ISZERO PUSH2 0x3321 JUMPI DUP5 DUP10 ADD MLOAD PUSH2 0x331D PUSH1 0x1F DUP10 AND DUP3 PUSH2 0x3230 JUMP JUMPDEST DUP4 SSTORE POP JUMPDEST PUSH1 0x1 PUSH1 0x2 DUP9 MUL ADD DUP9 SSTORE POP POP POP JUMPDEST POP POP POP POP POP POP JUMP JUMPDEST PUSH32 0x496E76616C69642052616365204964206F722052616365206D69676874206265 PUSH0 DUP3 ADD MSTORE PUSH32 0x20636F6D706C6574656400000000000000000000000000000000000000000000 PUSH1 0x20 DUP3 ADD MSTORE POP JUMP JUMPDEST PUSH0 PUSH2 0x3390 PUSH1 0x2A DUP4 PUSH2 0x2EC4 JUMP JUMPDEST SWAP2 POP PUSH2 0x339B DUP3 PUSH2 0x3336 JUMP JUMPDEST PUSH1 0x40 DUP3 ADD SWAP1 POP SWAP2 SWAP1 POP JUMP JUMPDEST PUSH0 PUSH1 0x20 DUP3 ADD SWAP1 POP DUP2 DUP2 SUB PUSH0 DUP4 ADD MSTORE PUSH2 0x33BD DUP2 PUSH2 0x3384 JUMP JUMPDEST SWAP1 POP SWAP2 SWAP1 POP JUMP JUMPDEST PUSH32 0x4E487B7100000000000000000000000000000000000000000000000000000000 PUSH0 MSTORE PUSH1 0x32 PUSH1 0x4 MSTORE PUSH1 0x24 PUSH0 REVERT JUMPDEST PUSH0 PUSH2 0x33FB DUP3 PUSH2 0x271D JUMP JUMPDEST SWAP2 POP PUSH32 0xFFFFFFFFFFFFFFFFFFFFFFFFFFFFFFFFFFFFFFFFFFFFFFFFFFFFFFFFFFFFFFFF DUP3 SUB PUSH2 0x342D JUMPI PUSH2 0x342C PUSH2 0x306A JUMP JUMPDEST JUMPDEST PUSH1 0x1 DUP3 ADD SWAP1 POP SWAP2 SWAP1 POP JUMP JUMPDEST PUSH32 0x4F6E6C79206F776E65722063616E20726566756E640000000000000000000000 PUSH0 DUP3 ADD MSTORE POP JUMP JUMPDEST PUSH0 PUSH2 0x346C PUSH1 0x15 DUP4 PUSH2 0x2EC4 JUMP JUMPDEST SWAP2 POP PUSH2 0x3477 DUP3 PUSH2 0x3438 JUMP JUMPDEST PUSH1 0x20 DUP3 ADD SWAP1 POP SWAP2 SWAP1 POP JUMP JUMPDEST PUSH0 PUSH1 0x20 DUP3 ADD SWAP1 POP DUP2 DUP2 SUB PUSH0 DUP4 ADD MSTORE PUSH2 0x3499 DUP2 PUSH2 0x3460 JUMP JUMPDEST SWAP1 POP SWAP2 SWAP1 POP JUMP JUMPDEST PUSH32 0x4661696C656420746F20726566756E642064756520746F20496E76616C696420 PUSH0 DUP3 ADD MSTORE PUSH32 0x52616365204964206F722052616365206D6967687420626520636F6D706C6574 PUSH1 0x20 DUP3 ADD MSTORE PUSH32 0x6564000000000000000000000000000000000000000000000000000000000000 PUSH1 0x40 DUP3 ADD MSTORE POP JUMP JUMPDEST PUSH0 PUSH2 0x3520 PUSH1 0x42 DUP4 PUSH2 0x2EC4 JUMP JUMPDEST SWAP2 POP PUSH2 0x352B DUP3 PUSH2 0x34A0 JUMP JUMPDEST PUSH1 0x60 DUP3 ADD SWAP1 POP SWAP2 SWAP1 POP JUMP JUMPDEST PUSH0 PUSH1 0x20 DUP3 ADD SWAP1 POP DUP2 DUP2 SUB PUSH0 DUP4 ADD MSTORE PUSH2 0x354D DUP2 PUSH2 0x3514 JUMP JUMPDEST SWAP1 POP SWAP2 SWAP1 POP JUMP INVALID LOG2 PUSH5 0x6970667358 0x22 SLT KECCAK256 MULMOD PUSH4 0x76B4B55D PUSH19 0xA163D21F7802BFE54981F1FEE454266A832E45 SWAP1 SWAP9 0xCF 0xEA PUSH28 0x9D64736F6C6343000814003300000000000000000000000000000000 "
		},
		"gasEstimates": {
			"creation": {
				"codeDepositCost": "2741200",
				"executionCost": "27247",
				"totalCost": "2768447"
			},
			"external": {
				"addNewHorse(string)": "infinite",
				"addNewJockey(string)": "infinite",
				"cancelHorseRace(uint256)": "infinite",
				"cancelRace(uint256)": "infinite",
				"createRace(uint256,uint256[],uint256[])": "infinite",
				"createUser(string,address)": "infinite",
				"getHorses()": "infinite",
				"getJockeys()": "infinite",
				"logInUser(uint256)": "infinite",
				"owner()": "2575",
				"placeBet(uint256,uint256,uint256,uint256)": "infinite",
				"startRace(uint256)": "infinite",
				"stringCompare(string,string)": "infinite",
				"viewWinners(uint256)": "infinite"
			}
		},
		"methodIdentifiers": {
			"addNewHorse(string)": "040c0abb",
			"addNewJockey(string)": "9fd13307",
			"cancelHorseRace(uint256)": "83c5a81d",
			"cancelRace(uint256)": "d596380e",
			"createRace(uint256,uint256[],uint256[])": "18012f7b",
			"createUser(string,address)": "f555ffb4",
			"getHorses()": "90adec6f",
			"getJockeys()": "dd8d9249",
			"logInUser(uint256)": "e1cbd1cb",
			"owner()": "8da5cb5b",
			"placeBet(uint256,uint256,uint256,uint256)": "fde6adb1",
			"startRace(uint256)": "24d822bf",
			"stringCompare(string,string)": "60353db9",
			"viewWinners(uint256)": "f3f073ad"
		}
	},
	"abi": [
		{
			"inputs": [
				{
					"internalType": "string",
					"name": "horseName",
					"type": "string"
				}
			],
			"name": "addNewHorse",
			"outputs": [
				{
					"internalType": "bool",
					"name": "",
					"type": "bool"
				}
			],
			"stateMutability": "nonpayable",
			"type": "function"
		},
		{
			"inputs": [
				{
					"internalType": "string",
					"name": "jockeyName",
					"type": "string"
				}
			],
			"name": "addNewJockey",
			"outputs": [
				{
					"internalType": "bool",
					"name": "",
					"type": "bool"
				}
			],
			"stateMutability": "nonpayable",
			"type": "function"
		},
		{
			"inputs": [
				{
					"internalType": "uint256",
					"name": "raceId",
					"type": "uint256"
				}
			],
			"name": "cancelHorseRace",
			"outputs": [],
			"stateMutability": "nonpayable",
			"type": "function"
		},
		{
			"inputs": [
				{
					"internalType": "uint256",
					"name": "raceId",
					"type": "uint256"
				}
			],
			"name": "cancelRace",
			"outputs": [],
			"stateMutability": "nonpayable",
			"type": "function"
		},
		{
			"inputs": [
				{
					"internalType": "uint256",
					"name": "locationId",
					"type": "uint256"
				},
				{
					"internalType": "uint256[]",
					"name": "participatingHorses",
					"type": "uint256[]"
				},
				{
					"internalType": "uint256[]",
					"name": "participatingJockeys",
					"type": "uint256[]"
				}
			],
			"name": "createRace",
			"outputs": [],
			"stateMutability": "nonpayable",
			"type": "function"
		},
		{
			"inputs": [
				{
					"internalType": "string",
					"name": "name",
					"type": "string"
				},
				{
					"internalType": "address",
					"name": "walletAddress",
					"type": "address"
				}
			],
			"name": "createUser",
			"outputs": [],
			"stateMutability": "nonpayable",
			"type": "function"
		},
		{
			"inputs": [],
			"name": "getHorses",
			"outputs": [
				{
					"components": [
						{
							"internalType": "uint256",
							"name": "horseId",
							"type": "uint256"
						},
						{
							"internalType": "string",
							"name": "horseName",
							"type": "string"
						}
					],
					"internalType": "struct Horse[]",
					"name": "",
					"type": "tuple[]"
				}
			],
			"stateMutability": "view",
			"type": "function"
		},
		{
			"inputs": [],
			"name": "getJockeys",
			"outputs": [
				{
					"components": [
						{
							"internalType": "uint256",
							"name": "jockeyId",
							"type": "uint256"
						},
						{
							"internalType": "string",
							"name": "jockeyName",
							"type": "string"
						}
					],
					"internalType": "struct Jockey[]",
					"name": "",
					"type": "tuple[]"
				}
			],
			"stateMutability": "view",
			"type": "function"
		},
		{
			"inputs": [
				{
					"internalType": "uint256",
					"name": "userId",
					"type": "uint256"
				}
			],
			"name": "logInUser",
			"outputs": [
				{
					"components": [
						{
							"internalType": "uint256",
							"name": "userId",
							"type": "uint256"
						},
						{
							"internalType": "address",
							"name": "userWalletAddress",
							"type": "address"
						},
						{
							"internalType": "string",
							"name": "name",
							"type": "string"
						}
					],
					"internalType": "struct User",
					"name": "",
					"type": "tuple"
				}
			],
			"stateMutability": "view",
			"type": "function"
		},
		{
			"inputs": [],
			"name": "owner",
			"outputs": [
				{
					"internalType": "address",
					"name": "",
					"type": "address"
				}
			],
			"stateMutability": "view",
			"type": "function"
		},
		{
			"inputs": [
				{
					"internalType": "uint256",
					"name": "raceId",
					"type": "uint256"
				},
				{
					"internalType": "uint256",
					"name": "userId",
					"type": "uint256"
				},
				{
					"internalType": "uint256",
					"name": "horseId",
					"type": "uint256"
				},
				{
					"internalType": "uint256",
					"name": "betType",
					"type": "uint256"
				}
			],
			"name": "placeBet",
			"outputs": [],
			"stateMutability": "payable",
			"type": "function"
		},
		{
			"inputs": [
				{
					"internalType": "uint256",
					"name": "raceId",
					"type": "uint256"
				}
			],
			"name": "startRace",
			"outputs": [],
			"stateMutability": "nonpayable",
			"type": "function"
		},
		{
			"inputs": [
				{
					"internalType": "string",
					"name": "str1",
					"type": "string"
				},
				{
					"internalType": "string",
					"name": "str2",
					"type": "string"
				}
			],
			"name": "stringCompare",
			"outputs": [
				{
					"internalType": "bool",
					"name": "",
					"type": "bool"
				}
			],
			"stateMutability": "pure",
			"type": "function"
		},
		{
			"inputs": [
				{
					"internalType": "uint256",
					"name": "raceId",
					"type": "uint256"
				}
			],
			"name": "viewWinners",
			"outputs": [
				{
					"internalType": "uint256[]",
					"name": "",
					"type": "uint256[]"
				}
			],
			"stateMutability": "view",
			"type": "function"
		}
	]
}