{
	"data": {
		"bytecode": {
			"linkReferences": {},
			"object": "608060405234801561000f575f80fd5b50600280546001600160a01b031916331790556126638061002f5f395ff3fe6080604052600436106100a5575f3560e01c80639fd13307116100625780639fd1330714610195578063a20a00d1146101b4578063d596380e146101d3578063dd8d9249146101f2578063e1cbd1cb14610213578063f555ffb41461023f575f80fd5b8063040c0abb146100a95780631ccf6955146100dd5780632339d156146101095780637c0009321461012a5780638da5cb5b1461013d57806390adec6f14610174575b5f80fd5b3480156100b4575f80fd5b506100c86100c3366004611faf565b61025e565b60405190151581526020015b60405180910390f35b3480156100e8575f80fd5b506100fc6100f7366004611fe9565b61026e565b6040516100d49190612014565b348015610114575f80fd5b5061012861012336600461211c565b61033a565b005b61012861013836600461219e565b61041c565b348015610148575f80fd5b5060025461015c906001600160a01b031681565b6040516001600160a01b0390911681526020016100d4565b34801561017f575f80fd5b506101886104cc565b6040516100d4919061224f565b3480156101a0575f80fd5b506100c86101af366004611faf565b6105c0565b3480156101bf575f80fd5b506101286101ce366004611fe9565b6105ca565b3480156101de575f80fd5b506101286101ed366004611fe9565b6105df565b3480156101fd575f80fd5b506102066105f1565b6040516100d491906122af565b34801561021e575f80fd5b5061023261022d366004611fe9565b6106dd565b6040516100d49190612302565b34801561024a575f80fd5b50610128610259366004612338565b6107c4565b5f61026882610856565b92915050565b606060095f8381526020019081526020015f20805480602002602001604051908101604052809291908181526020015f905b8282101561032f578382905f5260205f2090600502016040518060a00160405290815f820154815260200160018201548152602001600282015f9054906101000a900460ff1660028111156102f7576102f7612000565b600281111561030857610308612000565b815260200160038201548152602001600482015481525050815260200190600101906102a0565b505050509050919050565b5f7f06ffb97d9f2369e1e9a884346f1319caca47843c25de6407cc727c7637788dd584805190602001200361037057505f61040b565b835160208501207f350ac3d66cf17bccbc9496ace71ca75e66c222529f7f0948ddebf0e704c15f68016103a55750600161040b565b835160208501207f55818189a48ffa50e67499893767e326f35740baf6dccde2848e35428afdae63016103da5750600261040b565b835160208501207fdae2a031f1781d5678ecd35f0dc6180ed6f1bb1ad95524e2569fc70aec6c295e0161040b575060035b610416818484610956565b50505050565b5f7f0d5fc1ba5bbedbf440033ec8d9ee539021ffff13e02b5c9db44e881a0890dbd285805190602001200361045257505f6104b8565b845160208601207f17ed63fe64baea647737193f9e83dc6c21ddbc187d0b9e7b6b610d3c809c253701610487575060016104b8565b845160208601207f89a496aaa2fa12caae1d6073aacdf3cb5ab2b15b0c7847895d8c312c651cc4f1016104b8575060025b6104c58185853486610b14565b5050505050565b60605f805480602002602001604051908101604052809291908181526020015f905b828210156105b7578382905f5260205f2090600202016040518060400160405290815f820154815260200160018201805461052890612392565b80601f016020809104026020016040519081016040528092919081815260200182805461055490612392565b801561059f5780601f106105765761010080835404028352916020019161059f565b820191905f5260205f20905b81548152906001019060200180831161058257829003601f168201915b505050505081525050815260200190600101906104ee565b50505050905090565b5f61026882610ed6565b6105d381610fc8565b6105dc8161124f565b50565b6105e881611795565b6105dc8161194d565b60606001805480602002602001604051908101604052809291908181526020015f905b828210156105b7578382905f5260205f2090600202016040518060400160405290815f820154815260200160018201805461064e90612392565b80601f016020809104026020016040519081016040528092919081815260200182805461067a90612392565b80156106c55780601f1061069c576101008083540402835291602001916106c5565b820191905f5260205f20905b8154815290600101906020018083116106a857829003601f168201915b50505050508152505081526020019060010190610614565b60408051606080820183525f80835260208084018290528385018390528582526007815290849020845192830185528054835260018101546001600160a01b03169183019190915260028101805493949293919284019161073d90612392565b80601f016020809104026020016040519081016040528092919081815260200182805461076990612392565b80156107b45780601f1061078b576101008083540402835291602001916107b4565b820191905f5260205f20905b81548152906001019060200180831161079757829003601f168201915b5050505050815250509050919050565b5f60085460016107d491906123de565b604080516060810182528281526001600160a01b0385811660208084019182528385018981525f87815260079092529490208351815590516001820180546001600160a01b0319169190931617909155915192935091829190600282019061083c908261243f565b505060085461084d915060016123de565b60085550505050565b6002545f906001600160a01b031633146108b75760405162461bcd60e51b815260206004820152601a60248201527f4f6e6c79206f776e65722063616e20616464206120686f72736500000000000060448201526064015b60405180910390fd5b5f80546108c59060016123de565b60408051808201909152818152602081018581525f8054600181018255908052825160029091027f290decd9548b62a8d60345a988386fc84ba6bc95484008f6362f93160ef3e5638101918255915193945091928392917f290decd9548b62a8d60345a988386fc84ba6bc95484008f6362f93160ef3e5640190610949908261243f565b5060019695505050505050565b6002825110156109a85760405162461bcd60e51b815260206004820152601d60248201527f4d696e203220686f7273657320726571756972656420746f207261636500000060448201526064016108ae565b5f60045460016109b891906123de565b90506060805f6040518061010001604052808581526020018860038111156109e2576109e2612000565b815260208101889052604081018790526060015f81526020018481526020018381526020015f81525090508060035f8681526020019081526020015f205f820151815f01556020820151816001015f6101000a81548160ff02191690836003811115610a5057610a50612000565b021790555060408201518051610a70916002840191602090910190611df8565b5060608201518051610a8c916003840191602090910190611df8565b50608082015160048201805460ff19166001836003811115610ab057610ab0612000565b021790555060a08201518051610ad0916005840191602090910190611df8565b5060c08201518051610aec916006840191602090910190611df8565b5060e09190910151600790910155600454610b089060016123de565b60045550505050505050565b5f3411610b585760405162461bcd60e51b8152602060048201526012602482015271125b9d985b1a590818995d08185b5bdd5b9d60721b60448201526064016108ae565b5f8481526003602052604090205415801590610b9757505f84815260036020819052604082206004015460ff1690811115610b9557610b95612000565b145b610bb35760405162461bcd60e51b81526004016108ae906124fb565b6002856002811115610bc757610bc7612000565b148015610bf857505f84815260036020819052604082206001015460ff1690811115610bf557610bf5612000565b14155b15610c5b5760405162461bcd60e51b815260206004820152602d60248201527f53686f7720626574732063616e206265206f6e6c7920706c6163657320696e2060448201526c4e6f72746820416d657269636160981b60648201526084016108ae565b5f84815260036020819052604082206001015460ff1690811115610c8157610c81612000565b148015610c9f57506002856002811115610c9d57610c9d612000565b145b8015610cbb57505f848152600360205260409020600201546004115b15610d545760405162461bcd60e51b815260206004820152605960248201527f53686f7720626574732063616e206265206163636570746564206f6e6c79206960448201527f6620686f727365732070617274696369706174696e6720696e2072616365206760648201527f726561746572207468616e206f7220657175616c20746f203400000000000000608482015260a4016108ae565b6001856002811115610d6857610d68612000565b148015610d8657505f84815260036020819052604090912060020154105b15610e1f5760405162461bcd60e51b815260206004820152605a60248201527f506c61636520626574732063616e206265206163636570746564206f6e6c792060448201527f696620686f727365732070617274696369706174696e6720696e20726163652060648201527f67726561746572207468616e206f7220657175616c20746f2033000000000000608482015260a4016108ae565b5f6040518060a00160405280858152602001868152602001876002811115610e4957610e49612000565b8152602080820186905260409182018590525f888152600982528281208054600181810183559183529183902085516005909302019182559184015181830155918301516002808401805495965086959293909260ff1916918490811115610eb357610eb3612000565b021790555060608201518160030155608082015181600401555050505050505050565b6002545f906001600160a01b03163314610f325760405162461bcd60e51b815260206004820152601b60248201527f4f6e6c79206f776e65722063616e206164642061206a6f636b6579000000000060448201526064016108ae565b600180545f91610f4291906123de565b60408051808201909152818152602081018581526001805480820182555f91909152825160029091027fb10e2d527612073b26eecdfd717e6a320cf44b4afac2b0732d9fcbe2b7fa0cf68101918255915193945091928392917fb10e2d527612073b26eecdfd717e6a320cf44b4afac2b0732d9fcbe2b7fa0cf70190610949908261243f565b6002546001600160a01b031633146110225760405162461bcd60e51b815260206004820152601d60248201527f4f6e6c79206f776e65722063616e20737461727420746865207261636500000060448201526064016108ae565b5f818152600360205260409020541580159061106157505f81815260036020819052604082206004015460ff169081111561105f5761105f612000565b145b6110c05760405162461bcd60e51b815260206004820152602a60248201527f496e76616c69642052616365204964206f722052616365206d696768742062656044820152690818dbdb5c1b195d195960b21b60648201526084016108ae565b6110cb60065f611e41565b5f818152600360205260408120600401805460ff191660011790555b5f82815260036020526040902060020154811015611130576006611109611a23565b81546001810183555f9283526020909220909101558061112881612563565b9150506110e7565b505f8181526003602052604090206006805461114f9282019190611e5c565b50611201600680548060200260200160405190810160405280929190818152602001828054801561119d57602002820191905f5260205f20905b815481526020019060010190808311611189575b5050505f85815260036020908152604091829020600201805483518184028101840190945280845292945092508301828280156111f757602002820191905f5260205f20905b8154815260200190600101908083116111e3575b5050505050611a8e565b60035f8381526020019081526020015f206005019080519060200190611228929190611df8565b505f81815260036020526040902060040180546002919060ff19166001835b021790555050565b5f81815260096020908152604080832080548251818502810185019093528083529192909190849084015b82821015611309578382905f5260205f2090600502016040518060a00160405290815f820154815260200160018201548152602001600282015f9054906101000a900460ff1660028111156112d1576112d1612000565b60028111156112e2576112e2612000565b8152602001600382015481526020016004820154815250508152602001906001019061127a565b5050505090505f805f805b84518110156113fa575f8582815181106113305761133061257b565b602002602001015160400151600281111561134d5761134d612000565b036113605761135d8460016123de565b93505b60018582815181106113745761137461257b565b602002602001015160400151600281111561139157611391612000565b036113a4576113a18360016123de565b92505b60028582815181106113b8576113b861257b565b60200260200101516040015160028111156113d5576113d5612000565b036113e8576113e58260016123de565b91505b806113f281612563565b915050611314565b50603c6019600f5f808981526003602081905260409091206001015460ff169081111561142957611429612000565b14611439575060509150601490505f5b5f6114466064605a6125a3565b5f8a81526003602052604090206007015461146191906125b6565b9050861561148d5786816114766064876125a3565b61148091906125b6565b61148a91906125a3565b93505b85156114b75785816114a06064866125a3565b6114aa91906125b6565b6114b491906125a3565b92505b84156114e15784816114ca6064856125a3565b6114d491906125b6565b6114de91906125a3565b91505b5f5b8851811015611789575f8a815260036020908152604080832060050180548251818502810185019093528083526115699383018282801561154157602002820191905f5260205f20905b81548152602001906001019080831161152d575b50505050508b8d815181106115585761155861257b565b602002602001015160800151611c46565b905080196115775750611777565b5f8a838151811061158a5761158a61257b565b60200260200101516040015160028111156115a7576115a7612000565b036115d957805f036115d9576115d98a83815181106115c8576115c861257b565b60200260200101515f015187611c95565b60018a83815181106115ed576115ed61257b565b602002602001015160400151600281111561160a5761160a612000565b03611711575f8b815260036020819052604082206001015460ff169081111561163557611635612000565b0361166d5760018113611668576116688a83815181106116575761165761257b565b60200260200101515f015186611c95565b611711565b5f8b8152600360205260409020600201546007106116a25760018113611668576116688a83815181106116575761165761257b565b5f8b81526003602052604090206002015460071080156116d257505f8b8152600360205260409020600201546010115b156116f45760028113611668576116688a83815181106116575761165761257b565b60048113611711576117118a83815181106116575761165761257b565b60028a83815181106117255761172561257b565b602002602001015160400151600281111561174257611742612000565b036117755760028113611775576117758a83815181106117645761176461257b565b60200260200101515f015185611c95565b505b8061178181612563565b9150506114e3565b50505050505050505050565b6002546001600160a01b031633146117e75760405162461bcd60e51b815260206004820152601560248201527413db9b1e481bdddb995c8818d85b881c99599d5b99605a1b60448201526064016108ae565b5f818152600360205260409020541580159061182657505f81815260036020819052604082206004015460ff169081111561182457611824612000565b145b6118a35760405162461bcd60e51b815260206004820152604260248201527f4661696c656420746f20726566756e642064756520746f20496e76616c69642060448201527f52616365204964206f722052616365206d6967687420626520636f6d706c6574606482015261195960f21b608482015260a4016108ae565b5f5b5f82815260096020526040902054811015611936575f82815260096020526040902080546119249190839081106118de576118de61257b565b905f5260205f2090600502015f015460095f8581526020019081526020015f20838154811061190f5761190f61257b565b905f5260205f20906005020160030154611c95565b8061192e81612563565b9150506118a5565b505f8181526009602052604081206105dc91611e98565b6002546001600160a01b031633146119a75760405162461bcd60e51b815260206004820152601e60248201527f4f6e6c79206f776e65722063616e2063616e63656c207468652072616365000060448201526064016108ae565b5f81815260036020526040902054158015906119e657505f81815260036020819052604082206004015460ff16908111156119e4576119e4612000565b145b611a025760405162461bcd60e51b81526004016108ae906124fb565b5f818152600360208190526040909120600401805460ff1916600183611247565b5f80602942600554604051602001611a45929190918252602082015260400190565b604051602081830303815290604052805190602001205f1c611a6791906125cd565b611a729060146123de565b600580549192505f611a8383612563565b909155509092915050565b606082825f5b60018351611aa291906125e0565b811015611c3d575f5b6001828551611aba91906125e0565b611ac491906125e0565b811015611c2a5783611ad78260016123de565b81518110611ae757611ae761257b565b6020026020010151848281518110611b0157611b0161257b565b60200260200101511115611c185783611b1b8260016123de565b81518110611b2b57611b2b61257b565b6020026020010151848281518110611b4557611b4561257b565b6020026020010151858381518110611b5f57611b5f61257b565b6020026020010186846001611b7491906123de565b81518110611b8457611b8461257b565b60209081029190910101919091525282611b9f8260016123de565b81518110611baf57611baf61257b565b6020026020010151838281518110611bc957611bc961257b565b6020026020010151848381518110611be357611be361257b565b6020026020010185846001611bf891906123de565b81518110611c0857611c0861257b565b6020908102919091010191909152525b80611c2281612563565b915050611aab565b5080611c3581612563565b915050611a94565b50949350505050565b5f805b8351811015611c8b5782848281518110611c6557611c6561257b565b602002602001015103611c79579050610268565b80611c8381612563565b915050611c49565b505f199392505050565b611cbd604051806040016040528060078152602001661696969696968560c91b815250611d4c565b611ce160405180604001604052806002815260200161257360f01b81525083611d8f565b611d0560405180604001604052806002815260200161257360f01b81525082611d8f565b5f828152600760205260408082206001015490516001600160a01b0390911691829184156108fc0291859190818181858888f19350505050158015610416573d5f803e3d5ffd5b6105dc81604051602401611d6091906125f3565b60408051601f198184030181529190526020810180516001600160e01b031663104c13eb60e21b179052611dd8565b611dd48282604051602401611da592919061260c565b60408051601f198184030181529190526020810180516001600160e01b0316632d839cb360e21b179052611dd8565b5050565b80516a636f6e736f6c652e6c6f67602083015f808483855afa5050505050565b828054828255905f5260205f20908101928215611e31579160200282015b82811115611e31578251825591602001919060010190611e16565b50611e3d929150611eb6565b5090565b5080545f8255905f5260205f20908101906105dc9190611eb6565b828054828255905f5260205f20908101928215611e31575f5260205f209182015b82811115611e31578254825591600101919060010190611e7d565b5080545f8255600502905f5260205f20908101906105dc9190611eca565b5b80821115611e3d575f8155600101611eb7565b5b80821115611e3d575f8082556001820181905560028201805460ff19169055600382018190556004820155600501611ecb565b634e487b7160e01b5f52604160045260245ffd5b604051601f8201601f1916810167ffffffffffffffff81118282101715611f3b57611f3b611efe565b604052919050565b5f82601f830112611f52575f80fd5b813567ffffffffffffffff811115611f6c57611f6c611efe565b611f7f601f8201601f1916602001611f12565b818152846020838601011115611f93575f80fd5b816020850160208301375f918101602001919091529392505050565b5f60208284031215611fbf575f80fd5b813567ffffffffffffffff811115611fd5575f80fd5b611fe184828501611f43565b949350505050565b5f60208284031215611ff9575f80fd5b5035919050565b634e487b7160e01b5f52602160045260245ffd5b602080825282518282018190525f91906040908185019086840185805b83811015612091578251805186528781015188870152868101516003811061206757634e487b7160e01b84526021600452602484fd5b86880152606081810151908701526080908101519086015260a09094019391860191600101612031565b509298975050505050505050565b5f82601f8301126120ae575f80fd5b8135602067ffffffffffffffff8211156120ca576120ca611efe565b8160051b6120d9828201611f12565b92835284810182019282810190878511156120f2575f80fd5b83870192505b84831015612111578235825291830191908301906120f8565b979650505050505050565b5f805f6060848603121561212e575f80fd5b833567ffffffffffffffff80821115612145575f80fd5b61215187838801611f43565b94506020860135915080821115612166575f80fd5b6121728783880161209f565b93506040860135915080821115612187575f80fd5b506121948682870161209f565b9150509250925092565b5f805f80608085870312156121b1575f80fd5b843567ffffffffffffffff8111156121c7575f80fd5b6121d387828801611f43565b97602087013597506040870135966060013595509350505050565b5f81518084525f5b81811015612212576020818501810151868301820152016121f6565b505f602082860101526020601f19601f83011685010191505092915050565b805182525f602082015160406020850152611fe160408501826121ee565b5f602080830181845280855180835260408601915060408160051b87010192508387015f5b828110156122a257603f19888603018452612290858351612231565b94509285019290850190600101612274565b5092979650505050505050565b5f602080830181845280855180835260408601915060408160051b87010192508387015f5b828110156122a257603f198886030184526122f0858351612231565b945092850192908501906001016122d4565b602081528151602082015260018060a01b0360208301511660408201525f6040830151606080840152611fe160808401826121ee565b5f8060408385031215612349575f80fd5b823567ffffffffffffffff81111561235f575f80fd5b61236b85828601611f43565b92505060208301356001600160a01b0381168114612387575f80fd5b809150509250929050565b600181811c908216806123a657607f821691505b6020821081036123c457634e487b7160e01b5f52602260045260245ffd5b50919050565b634e487b7160e01b5f52601160045260245ffd5b80820180821115610268576102686123ca565b601f82111561243a575f81815260208120601f850160051c810160208610156124175750805b601f850160051c820191505b8181101561243657828155600101612423565b5050505b505050565b815167ffffffffffffffff81111561245957612459611efe565b61246d816124678454612392565b846123f1565b602080601f8311600181146124a0575f84156124895750858301515b5f19600386901b1c1916600185901b178555612436565b5f85815260208120601f198616915b828110156124ce578886015182559484019460019091019084016124af565b50858210156124eb57878501515f19600388901b60f8161c191681555b5050505050600190811b01905550565b60208082526042908201527f4661696c656420746f2063616e63656c2064756520746f20496e76616c69642060408201527f52616365204964206f722052616365206d6967687420626520636f6d706c6574606082015261195960f21b608082015260a00190565b5f60018201612574576125746123ca565b5060010190565b634e487b7160e01b5f52603260045260245ffd5b634e487b7160e01b5f52601260045260245ffd5b5f826125b1576125b161258f565b500490565b8082028115828204841417610268576102686123ca565b5f826125db576125db61258f565b500690565b81810381811115610268576102686123ca565b602081525f61260560208301846121ee565b9392505050565b604081525f61261e60408301856121ee565b9050826020830152939250505056fea2646970667358221220a8aedcd44e728a01b18b5e56c836273565db5d8005b73050c11a161e6ab8cf5764736f6c63430008140033",
			"opcodes": "PUSH1 0x80 PUSH1 0x40 MSTORE CALLVALUE DUP1 ISZERO PUSH2 0xF JUMPI PUSH0 DUP1 REVERT JUMPDEST POP PUSH1 0x2 DUP1 SLOAD PUSH1 0x1 PUSH1 0x1 PUSH1 0xA0 SHL SUB NOT AND CALLER OR SWAP1 SSTORE PUSH2 0x2663 DUP1 PUSH2 0x2F PUSH0 CODECOPY PUSH0 RETURN INVALID PUSH1 0x80 PUSH1 0x40 MSTORE PUSH1 0x4 CALLDATASIZE LT PUSH2 0xA5 JUMPI PUSH0 CALLDATALOAD PUSH1 0xE0 SHR DUP1 PUSH4 0x9FD13307 GT PUSH2 0x62 JUMPI DUP1 PUSH4 0x9FD13307 EQ PUSH2 0x195 JUMPI DUP1 PUSH4 0xA20A00D1 EQ PUSH2 0x1B4 JUMPI DUP1 PUSH4 0xD596380E EQ PUSH2 0x1D3 JUMPI DUP1 PUSH4 0xDD8D9249 EQ PUSH2 0x1F2 JUMPI DUP1 PUSH4 0xE1CBD1CB EQ PUSH2 0x213 JUMPI DUP1 PUSH4 0xF555FFB4 EQ PUSH2 0x23F JUMPI PUSH0 DUP1 REVERT JUMPDEST DUP1 PUSH4 0x40C0ABB EQ PUSH2 0xA9 JUMPI DUP1 PUSH4 0x1CCF6955 EQ PUSH2 0xDD JUMPI DUP1 PUSH4 0x2339D156 EQ PUSH2 0x109 JUMPI DUP1 PUSH4 0x7C000932 EQ PUSH2 0x12A JUMPI DUP1 PUSH4 0x8DA5CB5B EQ PUSH2 0x13D JUMPI DUP1 PUSH4 0x90ADEC6F EQ PUSH2 0x174 JUMPI JUMPDEST PUSH0 DUP1 REVERT JUMPDEST CALLVALUE DUP1 ISZERO PUSH2 0xB4 JUMPI PUSH0 DUP1 REVERT JUMPDEST POP PUSH2 0xC8 PUSH2 0xC3 CALLDATASIZE PUSH1 0x4 PUSH2 0x1FAF JUMP JUMPDEST PUSH2 0x25E JUMP JUMPDEST PUSH1 0x40 MLOAD SWAP1 ISZERO ISZERO DUP2 MSTORE PUSH1 0x20 ADD JUMPDEST PUSH1 0x40 MLOAD DUP1 SWAP2 SUB SWAP1 RETURN JUMPDEST CALLVALUE DUP1 ISZERO PUSH2 0xE8 JUMPI PUSH0 DUP1 REVERT JUMPDEST POP PUSH2 0xFC PUSH2 0xF7 CALLDATASIZE PUSH1 0x4 PUSH2 0x1FE9 JUMP JUMPDEST PUSH2 0x26E JUMP JUMPDEST PUSH1 0x40 MLOAD PUSH2 0xD4 SWAP2 SWAP1 PUSH2 0x2014 JUMP JUMPDEST CALLVALUE DUP1 ISZERO PUSH2 0x114 JUMPI PUSH0 DUP1 REVERT JUMPDEST POP PUSH2 0x128 PUSH2 0x123 CALLDATASIZE PUSH1 0x4 PUSH2 0x211C JUMP JUMPDEST PUSH2 0x33A JUMP JUMPDEST STOP JUMPDEST PUSH2 0x128 PUSH2 0x138 CALLDATASIZE PUSH1 0x4 PUSH2 0x219E JUMP JUMPDEST PUSH2 0x41C JUMP JUMPDEST CALLVALUE DUP1 ISZERO PUSH2 0x148 JUMPI PUSH0 DUP1 REVERT JUMPDEST POP PUSH1 0x2 SLOAD PUSH2 0x15C SWAP1 PUSH1 0x1 PUSH1 0x1 PUSH1 0xA0 SHL SUB AND DUP2 JUMP JUMPDEST PUSH1 0x40 MLOAD PUSH1 0x1 PUSH1 0x1 PUSH1 0xA0 SHL SUB SWAP1 SWAP2 AND DUP2 MSTORE PUSH1 0x20 ADD PUSH2 0xD4 JUMP JUMPDEST CALLVALUE DUP1 ISZERO PUSH2 0x17F JUMPI PUSH0 DUP1 REVERT JUMPDEST POP PUSH2 0x188 PUSH2 0x4CC JUMP JUMPDEST PUSH1 0x40 MLOAD PUSH2 0xD4 SWAP2 SWAP1 PUSH2 0x224F JUMP JUMPDEST CALLVALUE DUP1 ISZERO PUSH2 0x1A0 JUMPI PUSH0 DUP1 REVERT JUMPDEST POP PUSH2 0xC8 PUSH2 0x1AF CALLDATASIZE PUSH1 0x4 PUSH2 0x1FAF JUMP JUMPDEST PUSH2 0x5C0 JUMP JUMPDEST CALLVALUE DUP1 ISZERO PUSH2 0x1BF JUMPI PUSH0 DUP1 REVERT JUMPDEST POP PUSH2 0x128 PUSH2 0x1CE CALLDATASIZE PUSH1 0x4 PUSH2 0x1FE9 JUMP JUMPDEST PUSH2 0x5CA JUMP JUMPDEST CALLVALUE DUP1 ISZERO PUSH2 0x1DE JUMPI PUSH0 DUP1 REVERT JUMPDEST POP PUSH2 0x128 PUSH2 0x1ED CALLDATASIZE PUSH1 0x4 PUSH2 0x1FE9 JUMP JUMPDEST PUSH2 0x5DF JUMP JUMPDEST CALLVALUE DUP1 ISZERO PUSH2 0x1FD JUMPI PUSH0 DUP1 REVERT JUMPDEST POP PUSH2 0x206 PUSH2 0x5F1 JUMP JUMPDEST PUSH1 0x40 MLOAD PUSH2 0xD4 SWAP2 SWAP1 PUSH2 0x22AF JUMP JUMPDEST CALLVALUE DUP1 ISZERO PUSH2 0x21E JUMPI PUSH0 DUP1 REVERT JUMPDEST POP PUSH2 0x232 PUSH2 0x22D CALLDATASIZE PUSH1 0x4 PUSH2 0x1FE9 JUMP JUMPDEST PUSH2 0x6DD JUMP JUMPDEST PUSH1 0x40 MLOAD PUSH2 0xD4 SWAP2 SWAP1 PUSH2 0x2302 JUMP JUMPDEST CALLVALUE DUP1 ISZERO PUSH2 0x24A JUMPI PUSH0 DUP1 REVERT JUMPDEST POP PUSH2 0x128 PUSH2 0x259 CALLDATASIZE PUSH1 0x4 PUSH2 0x2338 JUMP JUMPDEST PUSH2 0x7C4 JUMP JUMPDEST PUSH0 PUSH2 0x268 DUP3 PUSH2 0x856 JUMP JUMPDEST SWAP3 SWAP2 POP POP JUMP JUMPDEST PUSH1 0x60 PUSH1 0x9 PUSH0 DUP4 DUP2 MSTORE PUSH1 0x20 ADD SWAP1 DUP2 MSTORE PUSH1 0x20 ADD PUSH0 KECCAK256 DUP1 SLOAD DUP1 PUSH1 0x20 MUL PUSH1 0x20 ADD PUSH1 0x40 MLOAD SWAP1 DUP2 ADD PUSH1 0x40 MSTORE DUP1 SWAP3 SWAP2 SWAP1 DUP2 DUP2 MSTORE PUSH1 0x20 ADD PUSH0 SWAP1 JUMPDEST DUP3 DUP3 LT ISZERO PUSH2 0x32F JUMPI DUP4 DUP3 SWAP1 PUSH0 MSTORE PUSH1 0x20 PUSH0 KECCAK256 SWAP1 PUSH1 0x5 MUL ADD PUSH1 0x40 MLOAD DUP1 PUSH1 0xA0 ADD PUSH1 0x40 MSTORE SWAP1 DUP2 PUSH0 DUP3 ADD SLOAD DUP2 MSTORE PUSH1 0x20 ADD PUSH1 0x1 DUP3 ADD SLOAD DUP2 MSTORE PUSH1 0x20 ADD PUSH1 0x2 DUP3 ADD PUSH0 SWAP1 SLOAD SWAP1 PUSH2 0x100 EXP SWAP1 DIV PUSH1 0xFF AND PUSH1 0x2 DUP2 GT ISZERO PUSH2 0x2F7 JUMPI PUSH2 0x2F7 PUSH2 0x2000 JUMP JUMPDEST PUSH1 0x2 DUP2 GT ISZERO PUSH2 0x308 JUMPI PUSH2 0x308 PUSH2 0x2000 JUMP JUMPDEST DUP2 MSTORE PUSH1 0x20 ADD PUSH1 0x3 DUP3 ADD SLOAD DUP2 MSTORE PUSH1 0x20 ADD PUSH1 0x4 DUP3 ADD SLOAD DUP2 MSTORE POP POP DUP2 MSTORE PUSH1 0x20 ADD SWAP1 PUSH1 0x1 ADD SWAP1 PUSH2 0x2A0 JUMP JUMPDEST POP POP POP POP SWAP1 POP SWAP2 SWAP1 POP JUMP JUMPDEST PUSH0 PUSH32 0x6FFB97D9F2369E1E9A884346F1319CACA47843C25DE6407CC727C7637788DD5 DUP5 DUP1 MLOAD SWAP1 PUSH1 0x20 ADD KECCAK256 SUB PUSH2 0x370 JUMPI POP PUSH0 PUSH2 0x40B JUMP JUMPDEST DUP4 MLOAD PUSH1 0x20 DUP6 ADD KECCAK256 PUSH32 0x350AC3D66CF17BCCBC9496ACE71CA75E66C222529F7F0948DDEBF0E704C15F68 ADD PUSH2 0x3A5 JUMPI POP PUSH1 0x1 PUSH2 0x40B JUMP JUMPDEST DUP4 MLOAD PUSH1 0x20 DUP6 ADD KECCAK256 PUSH32 0x55818189A48FFA50E67499893767E326F35740BAF6DCCDE2848E35428AFDAE63 ADD PUSH2 0x3DA JUMPI POP PUSH1 0x2 PUSH2 0x40B JUMP JUMPDEST DUP4 MLOAD PUSH1 0x20 DUP6 ADD KECCAK256 PUSH32 0xDAE2A031F1781D5678ECD35F0DC6180ED6F1BB1AD95524E2569FC70AEC6C295E ADD PUSH2 0x40B JUMPI POP PUSH1 0x3 JUMPDEST PUSH2 0x416 DUP2 DUP5 DUP5 PUSH2 0x956 JUMP JUMPDEST POP POP POP POP JUMP JUMPDEST PUSH0 PUSH32 0xD5FC1BA5BBEDBF440033EC8D9EE539021FFFF13E02B5C9DB44E881A0890DBD2 DUP6 DUP1 MLOAD SWAP1 PUSH1 0x20 ADD KECCAK256 SUB PUSH2 0x452 JUMPI POP PUSH0 PUSH2 0x4B8 JUMP JUMPDEST DUP5 MLOAD PUSH1 0x20 DUP7 ADD KECCAK256 PUSH32 0x17ED63FE64BAEA647737193F9E83DC6C21DDBC187D0B9E7B6B610D3C809C2537 ADD PUSH2 0x487 JUMPI POP PUSH1 0x1 PUSH2 0x4B8 JUMP JUMPDEST DUP5 MLOAD PUSH1 0x20 DUP7 ADD KECCAK256 PUSH32 0x89A496AAA2FA12CAAE1D6073AACDF3CB5AB2B15B0C7847895D8C312C651CC4F1 ADD PUSH2 0x4B8 JUMPI POP PUSH1 0x2 JUMPDEST PUSH2 0x4C5 DUP2 DUP6 DUP6 CALLVALUE DUP7 PUSH2 0xB14 JUMP JUMPDEST POP POP POP POP POP JUMP JUMPDEST PUSH1 0x60 PUSH0 DUP1 SLOAD DUP1 PUSH1 0x20 MUL PUSH1 0x20 ADD PUSH1 0x40 MLOAD SWAP1 DUP2 ADD PUSH1 0x40 MSTORE DUP1 SWAP3 SWAP2 SWAP1 DUP2 DUP2 MSTORE PUSH1 0x20 ADD PUSH0 SWAP1 JUMPDEST DUP3 DUP3 LT ISZERO PUSH2 0x5B7 JUMPI DUP4 DUP3 SWAP1 PUSH0 MSTORE PUSH1 0x20 PUSH0 KECCAK256 SWAP1 PUSH1 0x2 MUL ADD PUSH1 0x40 MLOAD DUP1 PUSH1 0x40 ADD PUSH1 0x40 MSTORE SWAP1 DUP2 PUSH0 DUP3 ADD SLOAD DUP2 MSTORE PUSH1 0x20 ADD PUSH1 0x1 DUP3 ADD DUP1 SLOAD PUSH2 0x528 SWAP1 PUSH2 0x2392 JUMP JUMPDEST DUP1 PUSH1 0x1F ADD PUSH1 0x20 DUP1 SWAP2 DIV MUL PUSH1 0x20 ADD PUSH1 0x40 MLOAD SWAP1 DUP2 ADD PUSH1 0x40 MSTORE DUP1 SWAP3 SWAP2 SWAP1 DUP2 DUP2 MSTORE PUSH1 0x20 ADD DUP3 DUP1 SLOAD PUSH2 0x554 SWAP1 PUSH2 0x2392 JUMP JUMPDEST DUP1 ISZERO PUSH2 0x59F JUMPI DUP1 PUSH1 0x1F LT PUSH2 0x576 JUMPI PUSH2 0x100 DUP1 DUP4 SLOAD DIV MUL DUP4 MSTORE SWAP2 PUSH1 0x20 ADD SWAP2 PUSH2 0x59F JUMP JUMPDEST DUP3 ADD SWAP2 SWAP1 PUSH0 MSTORE PUSH1 0x20 PUSH0 KECCAK256 SWAP1 JUMPDEST DUP2 SLOAD DUP2 MSTORE SWAP1 PUSH1 0x1 ADD SWAP1 PUSH1 0x20 ADD DUP1 DUP4 GT PUSH2 0x582 JUMPI DUP3 SWAP1 SUB PUSH1 0x1F AND DUP3 ADD SWAP2 JUMPDEST POP POP POP POP POP DUP2 MSTORE POP POP DUP2 MSTORE PUSH1 0x20 ADD SWAP1 PUSH1 0x1 ADD SWAP1 PUSH2 0x4EE JUMP JUMPDEST POP POP POP POP SWAP1 POP SWAP1 JUMP JUMPDEST PUSH0 PUSH2 0x268 DUP3 PUSH2 0xED6 JUMP JUMPDEST PUSH2 0x5D3 DUP2 PUSH2 0xFC8 JUMP JUMPDEST PUSH2 0x5DC DUP2 PUSH2 0x124F JUMP JUMPDEST POP JUMP JUMPDEST PUSH2 0x5E8 DUP2 PUSH2 0x1795 JUMP JUMPDEST PUSH2 0x5DC DUP2 PUSH2 0x194D JUMP JUMPDEST PUSH1 0x60 PUSH1 0x1 DUP1 SLOAD DUP1 PUSH1 0x20 MUL PUSH1 0x20 ADD PUSH1 0x40 MLOAD SWAP1 DUP2 ADD PUSH1 0x40 MSTORE DUP1 SWAP3 SWAP2 SWAP1 DUP2 DUP2 MSTORE PUSH1 0x20 ADD PUSH0 SWAP1 JUMPDEST DUP3 DUP3 LT ISZERO PUSH2 0x5B7 JUMPI DUP4 DUP3 SWAP1 PUSH0 MSTORE PUSH1 0x20 PUSH0 KECCAK256 SWAP1 PUSH1 0x2 MUL ADD PUSH1 0x40 MLOAD DUP1 PUSH1 0x40 ADD PUSH1 0x40 MSTORE SWAP1 DUP2 PUSH0 DUP3 ADD SLOAD DUP2 MSTORE PUSH1 0x20 ADD PUSH1 0x1 DUP3 ADD DUP1 SLOAD PUSH2 0x64E SWAP1 PUSH2 0x2392 JUMP JUMPDEST DUP1 PUSH1 0x1F ADD PUSH1 0x20 DUP1 SWAP2 DIV MUL PUSH1 0x20 ADD PUSH1 0x40 MLOAD SWAP1 DUP2 ADD PUSH1 0x40 MSTORE DUP1 SWAP3 SWAP2 SWAP1 DUP2 DUP2 MSTORE PUSH1 0x20 ADD DUP3 DUP1 SLOAD PUSH2 0x67A SWAP1 PUSH2 0x2392 JUMP JUMPDEST DUP1 ISZERO PUSH2 0x6C5 JUMPI DUP1 PUSH1 0x1F LT PUSH2 0x69C JUMPI PUSH2 0x100 DUP1 DUP4 SLOAD DIV MUL DUP4 MSTORE SWAP2 PUSH1 0x20 ADD SWAP2 PUSH2 0x6C5 JUMP JUMPDEST DUP3 ADD SWAP2 SWAP1 PUSH0 MSTORE PUSH1 0x20 PUSH0 KECCAK256 SWAP1 JUMPDEST DUP2 SLOAD DUP2 MSTORE SWAP1 PUSH1 0x1 ADD SWAP1 PUSH1 0x20 ADD DUP1 DUP4 GT PUSH2 0x6A8 JUMPI DUP3 SWAP1 SUB PUSH1 0x1F AND DUP3 ADD SWAP2 JUMPDEST POP POP POP POP POP DUP2 MSTORE POP POP DUP2 MSTORE PUSH1 0x20 ADD SWAP1 PUSH1 0x1 ADD SWAP1 PUSH2 0x614 JUMP JUMPDEST PUSH1 0x40 DUP1 MLOAD PUSH1 0x60 DUP1 DUP3 ADD DUP4 MSTORE PUSH0 DUP1 DUP4 MSTORE PUSH1 0x20 DUP1 DUP5 ADD DUP3 SWAP1 MSTORE DUP4 DUP6 ADD DUP4 SWAP1 MSTORE DUP6 DUP3 MSTORE PUSH1 0x7 DUP2 MSTORE SWAP1 DUP5 SWAP1 KECCAK256 DUP5 MLOAD SWAP3 DUP4 ADD DUP6 MSTORE DUP1 SLOAD DUP4 MSTORE PUSH1 0x1 DUP2 ADD SLOAD PUSH1 0x1 PUSH1 0x1 PUSH1 0xA0 SHL SUB AND SWAP2 DUP4 ADD SWAP2 SWAP1 SWAP2 MSTORE PUSH1 0x2 DUP2 ADD DUP1 SLOAD SWAP4 SWAP5 SWAP3 SWAP4 SWAP2 SWAP3 DUP5 ADD SWAP2 PUSH2 0x73D SWAP1 PUSH2 0x2392 JUMP JUMPDEST DUP1 PUSH1 0x1F ADD PUSH1 0x20 DUP1 SWAP2 DIV MUL PUSH1 0x20 ADD PUSH1 0x40 MLOAD SWAP1 DUP2 ADD PUSH1 0x40 MSTORE DUP1 SWAP3 SWAP2 SWAP1 DUP2 DUP2 MSTORE PUSH1 0x20 ADD DUP3 DUP1 SLOAD PUSH2 0x769 SWAP1 PUSH2 0x2392 JUMP JUMPDEST DUP1 ISZERO PUSH2 0x7B4 JUMPI DUP1 PUSH1 0x1F LT PUSH2 0x78B JUMPI PUSH2 0x100 DUP1 DUP4 SLOAD DIV MUL DUP4 MSTORE SWAP2 PUSH1 0x20 ADD SWAP2 PUSH2 0x7B4 JUMP JUMPDEST DUP3 ADD SWAP2 SWAP1 PUSH0 MSTORE PUSH1 0x20 PUSH0 KECCAK256 SWAP1 JUMPDEST DUP2 SLOAD DUP2 MSTORE SWAP1 PUSH1 0x1 ADD SWAP1 PUSH1 0x20 ADD DUP1 DUP4 GT PUSH2 0x797 JUMPI DUP3 SWAP1 SUB PUSH1 0x1F AND DUP3 ADD SWAP2 JUMPDEST POP POP POP POP POP DUP2 MSTORE POP POP SWAP1 POP SWAP2 SWAP1 POP JUMP JUMPDEST PUSH0 PUSH1 0x8 SLOAD PUSH1 0x1 PUSH2 0x7D4 SWAP2 SWAP1 PUSH2 0x23DE JUMP JUMPDEST PUSH1 0x40 DUP1 MLOAD PUSH1 0x60 DUP2 ADD DUP3 MSTORE DUP3 DUP2 MSTORE PUSH1 0x1 PUSH1 0x1 PUSH1 0xA0 SHL SUB DUP6 DUP2 AND PUSH1 0x20 DUP1 DUP5 ADD SWAP2 DUP3 MSTORE DUP4 DUP6 ADD DUP10 DUP2 MSTORE PUSH0 DUP8 DUP2 MSTORE PUSH1 0x7 SWAP1 SWAP3 MSTORE SWAP5 SWAP1 KECCAK256 DUP4 MLOAD DUP2 SSTORE SWAP1 MLOAD PUSH1 0x1 DUP3 ADD DUP1 SLOAD PUSH1 0x1 PUSH1 0x1 PUSH1 0xA0 SHL SUB NOT AND SWAP2 SWAP1 SWAP4 AND OR SWAP1 SWAP2 SSTORE SWAP2 MLOAD SWAP3 SWAP4 POP SWAP2 DUP3 SWAP2 SWAP1 PUSH1 0x2 DUP3 ADD SWAP1 PUSH2 0x83C SWAP1 DUP3 PUSH2 0x243F JUMP JUMPDEST POP POP PUSH1 0x8 SLOAD PUSH2 0x84D SWAP2 POP PUSH1 0x1 PUSH2 0x23DE JUMP JUMPDEST PUSH1 0x8 SSTORE POP POP POP POP JUMP JUMPDEST PUSH1 0x2 SLOAD PUSH0 SWAP1 PUSH1 0x1 PUSH1 0x1 PUSH1 0xA0 SHL SUB AND CALLER EQ PUSH2 0x8B7 JUMPI PUSH1 0x40 MLOAD PUSH3 0x461BCD PUSH1 0xE5 SHL DUP2 MSTORE PUSH1 0x20 PUSH1 0x4 DUP3 ADD MSTORE PUSH1 0x1A PUSH1 0x24 DUP3 ADD MSTORE PUSH32 0x4F6E6C79206F776E65722063616E20616464206120686F727365000000000000 PUSH1 0x44 DUP3 ADD MSTORE PUSH1 0x64 ADD JUMPDEST PUSH1 0x40 MLOAD DUP1 SWAP2 SUB SWAP1 REVERT JUMPDEST PUSH0 DUP1 SLOAD PUSH2 0x8C5 SWAP1 PUSH1 0x1 PUSH2 0x23DE JUMP JUMPDEST PUSH1 0x40 DUP1 MLOAD DUP1 DUP3 ADD SWAP1 SWAP2 MSTORE DUP2 DUP2 MSTORE PUSH1 0x20 DUP2 ADD DUP6 DUP2 MSTORE PUSH0 DUP1 SLOAD PUSH1 0x1 DUP2 ADD DUP3 SSTORE SWAP1 DUP1 MSTORE DUP3 MLOAD PUSH1 0x2 SWAP1 SWAP2 MUL PUSH32 0x290DECD9548B62A8D60345A988386FC84BA6BC95484008F6362F93160EF3E563 DUP2 ADD SWAP2 DUP3 SSTORE SWAP2 MLOAD SWAP4 SWAP5 POP SWAP2 SWAP3 DUP4 SWAP3 SWAP2 PUSH32 0x290DECD9548B62A8D60345A988386FC84BA6BC95484008F6362F93160EF3E564 ADD SWAP1 PUSH2 0x949 SWAP1 DUP3 PUSH2 0x243F JUMP JUMPDEST POP PUSH1 0x1 SWAP7 SWAP6 POP POP POP POP POP POP JUMP JUMPDEST PUSH1 0x2 DUP3 MLOAD LT ISZERO PUSH2 0x9A8 JUMPI PUSH1 0x40 MLOAD PUSH3 0x461BCD PUSH1 0xE5 SHL DUP2 MSTORE PUSH1 0x20 PUSH1 0x4 DUP3 ADD MSTORE PUSH1 0x1D PUSH1 0x24 DUP3 ADD MSTORE PUSH32 0x4D696E203220686F7273657320726571756972656420746F2072616365000000 PUSH1 0x44 DUP3 ADD MSTORE PUSH1 0x64 ADD PUSH2 0x8AE JUMP JUMPDEST PUSH0 PUSH1 0x4 SLOAD PUSH1 0x1 PUSH2 0x9B8 SWAP2 SWAP1 PUSH2 0x23DE JUMP JUMPDEST SWAP1 POP PUSH1 0x60 DUP1 PUSH0 PUSH1 0x40 MLOAD DUP1 PUSH2 0x100 ADD PUSH1 0x40 MSTORE DUP1 DUP6 DUP2 MSTORE PUSH1 0x20 ADD DUP9 PUSH1 0x3 DUP2 GT ISZERO PUSH2 0x9E2 JUMPI PUSH2 0x9E2 PUSH2 0x2000 JUMP JUMPDEST DUP2 MSTORE PUSH1 0x20 DUP2 ADD DUP9 SWAP1 MSTORE PUSH1 0x40 DUP2 ADD DUP8 SWAP1 MSTORE PUSH1 0x60 ADD PUSH0 DUP2 MSTORE PUSH1 0x20 ADD DUP5 DUP2 MSTORE PUSH1 0x20 ADD DUP4 DUP2 MSTORE PUSH1 0x20 ADD PUSH0 DUP2 MSTORE POP SWAP1 POP DUP1 PUSH1 0x3 PUSH0 DUP7 DUP2 MSTORE PUSH1 0x20 ADD SWAP1 DUP2 MSTORE PUSH1 0x20 ADD PUSH0 KECCAK256 PUSH0 DUP3 ADD MLOAD DUP2 PUSH0 ADD SSTORE PUSH1 0x20 DUP3 ADD MLOAD DUP2 PUSH1 0x1 ADD PUSH0 PUSH2 0x100 EXP DUP2 SLOAD DUP2 PUSH1 0xFF MUL NOT AND SWAP1 DUP4 PUSH1 0x3 DUP2 GT ISZERO PUSH2 0xA50 JUMPI PUSH2 0xA50 PUSH2 0x2000 JUMP JUMPDEST MUL OR SWAP1 SSTORE POP PUSH1 0x40 DUP3 ADD MLOAD DUP1 MLOAD PUSH2 0xA70 SWAP2 PUSH1 0x2 DUP5 ADD SWAP2 PUSH1 0x20 SWAP1 SWAP2 ADD SWAP1 PUSH2 0x1DF8 JUMP JUMPDEST POP PUSH1 0x60 DUP3 ADD MLOAD DUP1 MLOAD PUSH2 0xA8C SWAP2 PUSH1 0x3 DUP5 ADD SWAP2 PUSH1 0x20 SWAP1 SWAP2 ADD SWAP1 PUSH2 0x1DF8 JUMP JUMPDEST POP PUSH1 0x80 DUP3 ADD MLOAD PUSH1 0x4 DUP3 ADD DUP1 SLOAD PUSH1 0xFF NOT AND PUSH1 0x1 DUP4 PUSH1 0x3 DUP2 GT ISZERO PUSH2 0xAB0 JUMPI PUSH2 0xAB0 PUSH2 0x2000 JUMP JUMPDEST MUL OR SWAP1 SSTORE POP PUSH1 0xA0 DUP3 ADD MLOAD DUP1 MLOAD PUSH2 0xAD0 SWAP2 PUSH1 0x5 DUP5 ADD SWAP2 PUSH1 0x20 SWAP1 SWAP2 ADD SWAP1 PUSH2 0x1DF8 JUMP JUMPDEST POP PUSH1 0xC0 DUP3 ADD MLOAD DUP1 MLOAD PUSH2 0xAEC SWAP2 PUSH1 0x6 DUP5 ADD SWAP2 PUSH1 0x20 SWAP1 SWAP2 ADD SWAP1 PUSH2 0x1DF8 JUMP JUMPDEST POP PUSH1 0xE0 SWAP2 SWAP1 SWAP2 ADD MLOAD PUSH1 0x7 SWAP1 SWAP2 ADD SSTORE PUSH1 0x4 SLOAD PUSH2 0xB08 SWAP1 PUSH1 0x1 PUSH2 0x23DE JUMP JUMPDEST PUSH1 0x4 SSTORE POP POP POP POP POP POP POP JUMP JUMPDEST PUSH0 CALLVALUE GT PUSH2 0xB58 JUMPI PUSH1 0x40 MLOAD PUSH3 0x461BCD PUSH1 0xE5 SHL DUP2 MSTORE PUSH1 0x20 PUSH1 0x4 DUP3 ADD MSTORE PUSH1 0x12 PUSH1 0x24 DUP3 ADD MSTORE PUSH18 0x125B9D985B1A590818995D08185B5BDD5B9D PUSH1 0x72 SHL PUSH1 0x44 DUP3 ADD MSTORE PUSH1 0x64 ADD PUSH2 0x8AE JUMP JUMPDEST PUSH0 DUP5 DUP2 MSTORE PUSH1 0x3 PUSH1 0x20 MSTORE PUSH1 0x40 SWAP1 KECCAK256 SLOAD ISZERO DUP1 ISZERO SWAP1 PUSH2 0xB97 JUMPI POP PUSH0 DUP5 DUP2 MSTORE PUSH1 0x3 PUSH1 0x20 DUP2 SWAP1 MSTORE PUSH1 0x40 DUP3 KECCAK256 PUSH1 0x4 ADD SLOAD PUSH1 0xFF AND SWAP1 DUP2 GT ISZERO PUSH2 0xB95 JUMPI PUSH2 0xB95 PUSH2 0x2000 JUMP JUMPDEST EQ JUMPDEST PUSH2 0xBB3 JUMPI PUSH1 0x40 MLOAD PUSH3 0x461BCD PUSH1 0xE5 SHL DUP2 MSTORE PUSH1 0x4 ADD PUSH2 0x8AE SWAP1 PUSH2 0x24FB JUMP JUMPDEST PUSH1 0x2 DUP6 PUSH1 0x2 DUP2 GT ISZERO PUSH2 0xBC7 JUMPI PUSH2 0xBC7 PUSH2 0x2000 JUMP JUMPDEST EQ DUP1 ISZERO PUSH2 0xBF8 JUMPI POP PUSH0 DUP5 DUP2 MSTORE PUSH1 0x3 PUSH1 0x20 DUP2 SWAP1 MSTORE PUSH1 0x40 DUP3 KECCAK256 PUSH1 0x1 ADD SLOAD PUSH1 0xFF AND SWAP1 DUP2 GT ISZERO PUSH2 0xBF5 JUMPI PUSH2 0xBF5 PUSH2 0x2000 JUMP JUMPDEST EQ ISZERO JUMPDEST ISZERO PUSH2 0xC5B JUMPI PUSH1 0x40 MLOAD PUSH3 0x461BCD PUSH1 0xE5 SHL DUP2 MSTORE PUSH1 0x20 PUSH1 0x4 DUP3 ADD MSTORE PUSH1 0x2D PUSH1 0x24 DUP3 ADD MSTORE PUSH32 0x53686F7720626574732063616E206265206F6E6C7920706C6163657320696E20 PUSH1 0x44 DUP3 ADD MSTORE PUSH13 0x4E6F72746820416D6572696361 PUSH1 0x98 SHL PUSH1 0x64 DUP3 ADD MSTORE PUSH1 0x84 ADD PUSH2 0x8AE JUMP JUMPDEST PUSH0 DUP5 DUP2 MSTORE PUSH1 0x3 PUSH1 0x20 DUP2 SWAP1 MSTORE PUSH1 0x40 DUP3 KECCAK256 PUSH1 0x1 ADD SLOAD PUSH1 0xFF AND SWAP1 DUP2 GT ISZERO PUSH2 0xC81 JUMPI PUSH2 0xC81 PUSH2 0x2000 JUMP JUMPDEST EQ DUP1 ISZERO PUSH2 0xC9F JUMPI POP PUSH1 0x2 DUP6 PUSH1 0x2 DUP2 GT ISZERO PUSH2 0xC9D JUMPI PUSH2 0xC9D PUSH2 0x2000 JUMP JUMPDEST EQ JUMPDEST DUP1 ISZERO PUSH2 0xCBB JUMPI POP PUSH0 DUP5 DUP2 MSTORE PUSH1 0x3 PUSH1 0x20 MSTORE PUSH1 0x40 SWAP1 KECCAK256 PUSH1 0x2 ADD SLOAD PUSH1 0x4 GT JUMPDEST ISZERO PUSH2 0xD54 JUMPI PUSH1 0x40 MLOAD PUSH3 0x461BCD PUSH1 0xE5 SHL DUP2 MSTORE PUSH1 0x20 PUSH1 0x4 DUP3 ADD MSTORE PUSH1 0x59 PUSH1 0x24 DUP3 ADD MSTORE PUSH32 0x53686F7720626574732063616E206265206163636570746564206F6E6C792069 PUSH1 0x44 DUP3 ADD MSTORE PUSH32 0x6620686F727365732070617274696369706174696E6720696E20726163652067 PUSH1 0x64 DUP3 ADD MSTORE PUSH32 0x726561746572207468616E206F7220657175616C20746F203400000000000000 PUSH1 0x84 DUP3 ADD MSTORE PUSH1 0xA4 ADD PUSH2 0x8AE JUMP JUMPDEST PUSH1 0x1 DUP6 PUSH1 0x2 DUP2 GT ISZERO PUSH2 0xD68 JUMPI PUSH2 0xD68 PUSH2 0x2000 JUMP JUMPDEST EQ DUP1 ISZERO PUSH2 0xD86 JUMPI POP PUSH0 DUP5 DUP2 MSTORE PUSH1 0x3 PUSH1 0x20 DUP2 SWAP1 MSTORE PUSH1 0x40 SWAP1 SWAP2 KECCAK256 PUSH1 0x2 ADD SLOAD LT JUMPDEST ISZERO PUSH2 0xE1F JUMPI PUSH1 0x40 MLOAD PUSH3 0x461BCD PUSH1 0xE5 SHL DUP2 MSTORE PUSH1 0x20 PUSH1 0x4 DUP3 ADD MSTORE PUSH1 0x5A PUSH1 0x24 DUP3 ADD MSTORE PUSH32 0x506C61636520626574732063616E206265206163636570746564206F6E6C7920 PUSH1 0x44 DUP3 ADD MSTORE PUSH32 0x696620686F727365732070617274696369706174696E6720696E207261636520 PUSH1 0x64 DUP3 ADD MSTORE PUSH32 0x67726561746572207468616E206F7220657175616C20746F2033000000000000 PUSH1 0x84 DUP3 ADD MSTORE PUSH1 0xA4 ADD PUSH2 0x8AE JUMP JUMPDEST PUSH0 PUSH1 0x40 MLOAD DUP1 PUSH1 0xA0 ADD PUSH1 0x40 MSTORE DUP1 DUP6 DUP2 MSTORE PUSH1 0x20 ADD DUP7 DUP2 MSTORE PUSH1 0x20 ADD DUP8 PUSH1 0x2 DUP2 GT ISZERO PUSH2 0xE49 JUMPI PUSH2 0xE49 PUSH2 0x2000 JUMP JUMPDEST DUP2 MSTORE PUSH1 0x20 DUP1 DUP3 ADD DUP7 SWAP1 MSTORE PUSH1 0x40 SWAP2 DUP3 ADD DUP6 SWAP1 MSTORE PUSH0 DUP9 DUP2 MSTORE PUSH1 0x9 DUP3 MSTORE DUP3 DUP2 KECCAK256 DUP1 SLOAD PUSH1 0x1 DUP2 DUP2 ADD DUP4 SSTORE SWAP2 DUP4 MSTORE SWAP2 DUP4 SWAP1 KECCAK256 DUP6 MLOAD PUSH1 0x5 SWAP1 SWAP4 MUL ADD SWAP2 DUP3 SSTORE SWAP2 DUP5 ADD MLOAD DUP2 DUP4 ADD SSTORE SWAP2 DUP4 ADD MLOAD PUSH1 0x2 DUP1 DUP5 ADD DUP1 SLOAD SWAP6 SWAP7 POP DUP7 SWAP6 SWAP3 SWAP4 SWAP1 SWAP3 PUSH1 0xFF NOT AND SWAP2 DUP5 SWAP1 DUP2 GT ISZERO PUSH2 0xEB3 JUMPI PUSH2 0xEB3 PUSH2 0x2000 JUMP JUMPDEST MUL OR SWAP1 SSTORE POP PUSH1 0x60 DUP3 ADD MLOAD DUP2 PUSH1 0x3 ADD SSTORE PUSH1 0x80 DUP3 ADD MLOAD DUP2 PUSH1 0x4 ADD SSTORE POP POP POP POP POP POP POP POP JUMP JUMPDEST PUSH1 0x2 SLOAD PUSH0 SWAP1 PUSH1 0x1 PUSH1 0x1 PUSH1 0xA0 SHL SUB AND CALLER EQ PUSH2 0xF32 JUMPI PUSH1 0x40 MLOAD PUSH3 0x461BCD PUSH1 0xE5 SHL DUP2 MSTORE PUSH1 0x20 PUSH1 0x4 DUP3 ADD MSTORE PUSH1 0x1B PUSH1 0x24 DUP3 ADD MSTORE PUSH32 0x4F6E6C79206F776E65722063616E206164642061206A6F636B65790000000000 PUSH1 0x44 DUP3 ADD MSTORE PUSH1 0x64 ADD PUSH2 0x8AE JUMP JUMPDEST PUSH1 0x1 DUP1 SLOAD PUSH0 SWAP2 PUSH2 0xF42 SWAP2 SWAP1 PUSH2 0x23DE JUMP JUMPDEST PUSH1 0x40 DUP1 MLOAD DUP1 DUP3 ADD SWAP1 SWAP2 MSTORE DUP2 DUP2 MSTORE PUSH1 0x20 DUP2 ADD DUP6 DUP2 MSTORE PUSH1 0x1 DUP1 SLOAD DUP1 DUP3 ADD DUP3 SSTORE PUSH0 SWAP2 SWAP1 SWAP2 MSTORE DUP3 MLOAD PUSH1 0x2 SWAP1 SWAP2 MUL PUSH32 0xB10E2D527612073B26EECDFD717E6A320CF44B4AFAC2B0732D9FCBE2B7FA0CF6 DUP2 ADD SWAP2 DUP3 SSTORE SWAP2 MLOAD SWAP4 SWAP5 POP SWAP2 SWAP3 DUP4 SWAP3 SWAP2 PUSH32 0xB10E2D527612073B26EECDFD717E6A320CF44B4AFAC2B0732D9FCBE2B7FA0CF7 ADD SWAP1 PUSH2 0x949 SWAP1 DUP3 PUSH2 0x243F JUMP JUMPDEST PUSH1 0x2 SLOAD PUSH1 0x1 PUSH1 0x1 PUSH1 0xA0 SHL SUB AND CALLER EQ PUSH2 0x1022 JUMPI PUSH1 0x40 MLOAD PUSH3 0x461BCD PUSH1 0xE5 SHL DUP2 MSTORE PUSH1 0x20 PUSH1 0x4 DUP3 ADD MSTORE PUSH1 0x1D PUSH1 0x24 DUP3 ADD MSTORE PUSH32 0x4F6E6C79206F776E65722063616E207374617274207468652072616365000000 PUSH1 0x44 DUP3 ADD MSTORE PUSH1 0x64 ADD PUSH2 0x8AE JUMP JUMPDEST PUSH0 DUP2 DUP2 MSTORE PUSH1 0x3 PUSH1 0x20 MSTORE PUSH1 0x40 SWAP1 KECCAK256 SLOAD ISZERO DUP1 ISZERO SWAP1 PUSH2 0x1061 JUMPI POP PUSH0 DUP2 DUP2 MSTORE PUSH1 0x3 PUSH1 0x20 DUP2 SWAP1 MSTORE PUSH1 0x40 DUP3 KECCAK256 PUSH1 0x4 ADD SLOAD PUSH1 0xFF AND SWAP1 DUP2 GT ISZERO PUSH2 0x105F JUMPI PUSH2 0x105F PUSH2 0x2000 JUMP JUMPDEST EQ JUMPDEST PUSH2 0x10C0 JUMPI PUSH1 0x40 MLOAD PUSH3 0x461BCD PUSH1 0xE5 SHL DUP2 MSTORE PUSH1 0x20 PUSH1 0x4 DUP3 ADD MSTORE PUSH1 0x2A PUSH1 0x24 DUP3 ADD MSTORE PUSH32 0x496E76616C69642052616365204964206F722052616365206D69676874206265 PUSH1 0x44 DUP3 ADD MSTORE PUSH10 0x818DBDB5C1B195D1959 PUSH1 0xB2 SHL PUSH1 0x64 DUP3 ADD MSTORE PUSH1 0x84 ADD PUSH2 0x8AE JUMP JUMPDEST PUSH2 0x10CB PUSH1 0x6 PUSH0 PUSH2 0x1E41 JUMP JUMPDEST PUSH0 DUP2 DUP2 MSTORE PUSH1 0x3 PUSH1 0x20 MSTORE PUSH1 0x40 DUP2 KECCAK256 PUSH1 0x4 ADD DUP1 SLOAD PUSH1 0xFF NOT AND PUSH1 0x1 OR SWAP1 SSTORE JUMPDEST PUSH0 DUP3 DUP2 MSTORE PUSH1 0x3 PUSH1 0x20 MSTORE PUSH1 0x40 SWAP1 KECCAK256 PUSH1 0x2 ADD SLOAD DUP2 LT ISZERO PUSH2 0x1130 JUMPI PUSH1 0x6 PUSH2 0x1109 PUSH2 0x1A23 JUMP JUMPDEST DUP2 SLOAD PUSH1 0x1 DUP2 ADD DUP4 SSTORE PUSH0 SWAP3 DUP4 MSTORE PUSH1 0x20 SWAP1 SWAP3 KECCAK256 SWAP1 SWAP2 ADD SSTORE DUP1 PUSH2 0x1128 DUP2 PUSH2 0x2563 JUMP JUMPDEST SWAP2 POP POP PUSH2 0x10E7 JUMP JUMPDEST POP PUSH0 DUP2 DUP2 MSTORE PUSH1 0x3 PUSH1 0x20 MSTORE PUSH1 0x40 SWAP1 KECCAK256 PUSH1 0x6 DUP1 SLOAD PUSH2 0x114F SWAP3 DUP3 ADD SWAP2 SWAP1 PUSH2 0x1E5C JUMP JUMPDEST POP PUSH2 0x1201 PUSH1 0x6 DUP1 SLOAD DUP1 PUSH1 0x20 MUL PUSH1 0x20 ADD PUSH1 0x40 MLOAD SWAP1 DUP2 ADD PUSH1 0x40 MSTORE DUP1 SWAP3 SWAP2 SWAP1 DUP2 DUP2 MSTORE PUSH1 0x20 ADD DUP3 DUP1 SLOAD DUP1 ISZERO PUSH2 0x119D JUMPI PUSH1 0x20 MUL DUP3 ADD SWAP2 SWAP1 PUSH0 MSTORE PUSH1 0x20 PUSH0 KECCAK256 SWAP1 JUMPDEST DUP2 SLOAD DUP2 MSTORE PUSH1 0x20 ADD SWAP1 PUSH1 0x1 ADD SWAP1 DUP1 DUP4 GT PUSH2 0x1189 JUMPI JUMPDEST POP POP POP PUSH0 DUP6 DUP2 MSTORE PUSH1 0x3 PUSH1 0x20 SWAP1 DUP2 MSTORE PUSH1 0x40 SWAP2 DUP3 SWAP1 KECCAK256 PUSH1 0x2 ADD DUP1 SLOAD DUP4 MLOAD DUP2 DUP5 MUL DUP2 ADD DUP5 ADD SWAP1 SWAP5 MSTORE DUP1 DUP5 MSTORE SWAP3 SWAP5 POP SWAP3 POP DUP4 ADD DUP3 DUP3 DUP1 ISZERO PUSH2 0x11F7 JUMPI PUSH1 0x20 MUL DUP3 ADD SWAP2 SWAP1 PUSH0 MSTORE PUSH1 0x20 PUSH0 KECCAK256 SWAP1 JUMPDEST DUP2 SLOAD DUP2 MSTORE PUSH1 0x20 ADD SWAP1 PUSH1 0x1 ADD SWAP1 DUP1 DUP4 GT PUSH2 0x11E3 JUMPI JUMPDEST POP POP POP POP POP PUSH2 0x1A8E JUMP JUMPDEST PUSH1 0x3 PUSH0 DUP4 DUP2 MSTORE PUSH1 0x20 ADD SWAP1 DUP2 MSTORE PUSH1 0x20 ADD PUSH0 KECCAK256 PUSH1 0x5 ADD SWAP1 DUP1 MLOAD SWAP1 PUSH1 0x20 ADD SWAP1 PUSH2 0x1228 SWAP3 SWAP2 SWAP1 PUSH2 0x1DF8 JUMP JUMPDEST POP PUSH0 DUP2 DUP2 MSTORE PUSH1 0x3 PUSH1 0x20 MSTORE PUSH1 0x40 SWAP1 KECCAK256 PUSH1 0x4 ADD DUP1 SLOAD PUSH1 0x2 SWAP2 SWAP1 PUSH1 0xFF NOT AND PUSH1 0x1 DUP4 JUMPDEST MUL OR SWAP1 SSTORE POP POP JUMP JUMPDEST PUSH0 DUP2 DUP2 MSTORE PUSH1 0x9 PUSH1 0x20 SWAP1 DUP2 MSTORE PUSH1 0x40 DUP1 DUP4 KECCAK256 DUP1 SLOAD DUP3 MLOAD DUP2 DUP6 MUL DUP2 ADD DUP6 ADD SWAP1 SWAP4 MSTORE DUP1 DUP4 MSTORE SWAP2 SWAP3 SWAP1 SWAP2 SWAP1 DUP5 SWAP1 DUP5 ADD JUMPDEST DUP3 DUP3 LT ISZERO PUSH2 0x1309 JUMPI DUP4 DUP3 SWAP1 PUSH0 MSTORE PUSH1 0x20 PUSH0 KECCAK256 SWAP1 PUSH1 0x5 MUL ADD PUSH1 0x40 MLOAD DUP1 PUSH1 0xA0 ADD PUSH1 0x40 MSTORE SWAP1 DUP2 PUSH0 DUP3 ADD SLOAD DUP2 MSTORE PUSH1 0x20 ADD PUSH1 0x1 DUP3 ADD SLOAD DUP2 MSTORE PUSH1 0x20 ADD PUSH1 0x2 DUP3 ADD PUSH0 SWAP1 SLOAD SWAP1 PUSH2 0x100 EXP SWAP1 DIV PUSH1 0xFF AND PUSH1 0x2 DUP2 GT ISZERO PUSH2 0x12D1 JUMPI PUSH2 0x12D1 PUSH2 0x2000 JUMP JUMPDEST PUSH1 0x2 DUP2 GT ISZERO PUSH2 0x12E2 JUMPI PUSH2 0x12E2 PUSH2 0x2000 JUMP JUMPDEST DUP2 MSTORE PUSH1 0x20 ADD PUSH1 0x3 DUP3 ADD SLOAD DUP2 MSTORE PUSH1 0x20 ADD PUSH1 0x4 DUP3 ADD SLOAD DUP2 MSTORE POP POP DUP2 MSTORE PUSH1 0x20 ADD SWAP1 PUSH1 0x1 ADD SWAP1 PUSH2 0x127A JUMP JUMPDEST POP POP POP POP SWAP1 POP PUSH0 DUP1 PUSH0 DUP1 JUMPDEST DUP5 MLOAD DUP2 LT ISZERO PUSH2 0x13FA JUMPI PUSH0 DUP6 DUP3 DUP2 MLOAD DUP2 LT PUSH2 0x1330 JUMPI PUSH2 0x1330 PUSH2 0x257B JUMP JUMPDEST PUSH1 0x20 MUL PUSH1 0x20 ADD ADD MLOAD PUSH1 0x40 ADD MLOAD PUSH1 0x2 DUP2 GT ISZERO PUSH2 0x134D JUMPI PUSH2 0x134D PUSH2 0x2000 JUMP JUMPDEST SUB PUSH2 0x1360 JUMPI PUSH2 0x135D DUP5 PUSH1 0x1 PUSH2 0x23DE JUMP JUMPDEST SWAP4 POP JUMPDEST PUSH1 0x1 DUP6 DUP3 DUP2 MLOAD DUP2 LT PUSH2 0x1374 JUMPI PUSH2 0x1374 PUSH2 0x257B JUMP JUMPDEST PUSH1 0x20 MUL PUSH1 0x20 ADD ADD MLOAD PUSH1 0x40 ADD MLOAD PUSH1 0x2 DUP2 GT ISZERO PUSH2 0x1391 JUMPI PUSH2 0x1391 PUSH2 0x2000 JUMP JUMPDEST SUB PUSH2 0x13A4 JUMPI PUSH2 0x13A1 DUP4 PUSH1 0x1 PUSH2 0x23DE JUMP JUMPDEST SWAP3 POP JUMPDEST PUSH1 0x2 DUP6 DUP3 DUP2 MLOAD DUP2 LT PUSH2 0x13B8 JUMPI PUSH2 0x13B8 PUSH2 0x257B JUMP JUMPDEST PUSH1 0x20 MUL PUSH1 0x20 ADD ADD MLOAD PUSH1 0x40 ADD MLOAD PUSH1 0x2 DUP2 GT ISZERO PUSH2 0x13D5 JUMPI PUSH2 0x13D5 PUSH2 0x2000 JUMP JUMPDEST SUB PUSH2 0x13E8 JUMPI PUSH2 0x13E5 DUP3 PUSH1 0x1 PUSH2 0x23DE JUMP JUMPDEST SWAP2 POP JUMPDEST DUP1 PUSH2 0x13F2 DUP2 PUSH2 0x2563 JUMP JUMPDEST SWAP2 POP POP PUSH2 0x1314 JUMP JUMPDEST POP PUSH1 0x3C PUSH1 0x19 PUSH1 0xF PUSH0 DUP1 DUP10 DUP2 MSTORE PUSH1 0x3 PUSH1 0x20 DUP2 SWAP1 MSTORE PUSH1 0x40 SWAP1 SWAP2 KECCAK256 PUSH1 0x1 ADD SLOAD PUSH1 0xFF AND SWAP1 DUP2 GT ISZERO PUSH2 0x1429 JUMPI PUSH2 0x1429 PUSH2 0x2000 JUMP JUMPDEST EQ PUSH2 0x1439 JUMPI POP PUSH1 0x50 SWAP2 POP PUSH1 0x14 SWAP1 POP PUSH0 JUMPDEST PUSH0 PUSH2 0x1446 PUSH1 0x64 PUSH1 0x5A PUSH2 0x25A3 JUMP JUMPDEST PUSH0 DUP11 DUP2 MSTORE PUSH1 0x3 PUSH1 0x20 MSTORE PUSH1 0x40 SWAP1 KECCAK256 PUSH1 0x7 ADD SLOAD PUSH2 0x1461 SWAP2 SWAP1 PUSH2 0x25B6 JUMP JUMPDEST SWAP1 POP DUP7 ISZERO PUSH2 0x148D JUMPI DUP7 DUP2 PUSH2 0x1476 PUSH1 0x64 DUP8 PUSH2 0x25A3 JUMP JUMPDEST PUSH2 0x1480 SWAP2 SWAP1 PUSH2 0x25B6 JUMP JUMPDEST PUSH2 0x148A SWAP2 SWAP1 PUSH2 0x25A3 JUMP JUMPDEST SWAP4 POP JUMPDEST DUP6 ISZERO PUSH2 0x14B7 JUMPI DUP6 DUP2 PUSH2 0x14A0 PUSH1 0x64 DUP7 PUSH2 0x25A3 JUMP JUMPDEST PUSH2 0x14AA SWAP2 SWAP1 PUSH2 0x25B6 JUMP JUMPDEST PUSH2 0x14B4 SWAP2 SWAP1 PUSH2 0x25A3 JUMP JUMPDEST SWAP3 POP JUMPDEST DUP5 ISZERO PUSH2 0x14E1 JUMPI DUP5 DUP2 PUSH2 0x14CA PUSH1 0x64 DUP6 PUSH2 0x25A3 JUMP JUMPDEST PUSH2 0x14D4 SWAP2 SWAP1 PUSH2 0x25B6 JUMP JUMPDEST PUSH2 0x14DE SWAP2 SWAP1 PUSH2 0x25A3 JUMP JUMPDEST SWAP2 POP JUMPDEST PUSH0 JUMPDEST DUP9 MLOAD DUP2 LT ISZERO PUSH2 0x1789 JUMPI PUSH0 DUP11 DUP2 MSTORE PUSH1 0x3 PUSH1 0x20 SWAP1 DUP2 MSTORE PUSH1 0x40 DUP1 DUP4 KECCAK256 PUSH1 0x5 ADD DUP1 SLOAD DUP3 MLOAD DUP2 DUP6 MUL DUP2 ADD DUP6 ADD SWAP1 SWAP4 MSTORE DUP1 DUP4 MSTORE PUSH2 0x1569 SWAP4 DUP4 ADD DUP3 DUP3 DUP1 ISZERO PUSH2 0x1541 JUMPI PUSH1 0x20 MUL DUP3 ADD SWAP2 SWAP1 PUSH0 MSTORE PUSH1 0x20 PUSH0 KECCAK256 SWAP1 JUMPDEST DUP2 SLOAD DUP2 MSTORE PUSH1 0x20 ADD SWAP1 PUSH1 0x1 ADD SWAP1 DUP1 DUP4 GT PUSH2 0x152D JUMPI JUMPDEST POP POP POP POP POP DUP12 DUP14 DUP2 MLOAD DUP2 LT PUSH2 0x1558 JUMPI PUSH2 0x1558 PUSH2 0x257B JUMP JUMPDEST PUSH1 0x20 MUL PUSH1 0x20 ADD ADD MLOAD PUSH1 0x80 ADD MLOAD PUSH2 0x1C46 JUMP JUMPDEST SWAP1 POP DUP1 NOT PUSH2 0x1577 JUMPI POP PUSH2 0x1777 JUMP JUMPDEST PUSH0 DUP11 DUP4 DUP2 MLOAD DUP2 LT PUSH2 0x158A JUMPI PUSH2 0x158A PUSH2 0x257B JUMP JUMPDEST PUSH1 0x20 MUL PUSH1 0x20 ADD ADD MLOAD PUSH1 0x40 ADD MLOAD PUSH1 0x2 DUP2 GT ISZERO PUSH2 0x15A7 JUMPI PUSH2 0x15A7 PUSH2 0x2000 JUMP JUMPDEST SUB PUSH2 0x15D9 JUMPI DUP1 PUSH0 SUB PUSH2 0x15D9 JUMPI PUSH2 0x15D9 DUP11 DUP4 DUP2 MLOAD DUP2 LT PUSH2 0x15C8 JUMPI PUSH2 0x15C8 PUSH2 0x257B JUMP JUMPDEST PUSH1 0x20 MUL PUSH1 0x20 ADD ADD MLOAD PUSH0 ADD MLOAD DUP8 PUSH2 0x1C95 JUMP JUMPDEST PUSH1 0x1 DUP11 DUP4 DUP2 MLOAD DUP2 LT PUSH2 0x15ED JUMPI PUSH2 0x15ED PUSH2 0x257B JUMP JUMPDEST PUSH1 0x20 MUL PUSH1 0x20 ADD ADD MLOAD PUSH1 0x40 ADD MLOAD PUSH1 0x2 DUP2 GT ISZERO PUSH2 0x160A JUMPI PUSH2 0x160A PUSH2 0x2000 JUMP JUMPDEST SUB PUSH2 0x1711 JUMPI PUSH0 DUP12 DUP2 MSTORE PUSH1 0x3 PUSH1 0x20 DUP2 SWAP1 MSTORE PUSH1 0x40 DUP3 KECCAK256 PUSH1 0x1 ADD SLOAD PUSH1 0xFF AND SWAP1 DUP2 GT ISZERO PUSH2 0x1635 JUMPI PUSH2 0x1635 PUSH2 0x2000 JUMP JUMPDEST SUB PUSH2 0x166D JUMPI PUSH1 0x1 DUP2 SGT PUSH2 0x1668 JUMPI PUSH2 0x1668 DUP11 DUP4 DUP2 MLOAD DUP2 LT PUSH2 0x1657 JUMPI PUSH2 0x1657 PUSH2 0x257B JUMP JUMPDEST PUSH1 0x20 MUL PUSH1 0x20 ADD ADD MLOAD PUSH0 ADD MLOAD DUP7 PUSH2 0x1C95 JUMP JUMPDEST PUSH2 0x1711 JUMP JUMPDEST PUSH0 DUP12 DUP2 MSTORE PUSH1 0x3 PUSH1 0x20 MSTORE PUSH1 0x40 SWAP1 KECCAK256 PUSH1 0x2 ADD SLOAD PUSH1 0x7 LT PUSH2 0x16A2 JUMPI PUSH1 0x1 DUP2 SGT PUSH2 0x1668 JUMPI PUSH2 0x1668 DUP11 DUP4 DUP2 MLOAD DUP2 LT PUSH2 0x1657 JUMPI PUSH2 0x1657 PUSH2 0x257B JUMP JUMPDEST PUSH0 DUP12 DUP2 MSTORE PUSH1 0x3 PUSH1 0x20 MSTORE PUSH1 0x40 SWAP1 KECCAK256 PUSH1 0x2 ADD SLOAD PUSH1 0x7 LT DUP1 ISZERO PUSH2 0x16D2 JUMPI POP PUSH0 DUP12 DUP2 MSTORE PUSH1 0x3 PUSH1 0x20 MSTORE PUSH1 0x40 SWAP1 KECCAK256 PUSH1 0x2 ADD SLOAD PUSH1 0x10 GT JUMPDEST ISZERO PUSH2 0x16F4 JUMPI PUSH1 0x2 DUP2 SGT PUSH2 0x1668 JUMPI PUSH2 0x1668 DUP11 DUP4 DUP2 MLOAD DUP2 LT PUSH2 0x1657 JUMPI PUSH2 0x1657 PUSH2 0x257B JUMP JUMPDEST PUSH1 0x4 DUP2 SGT PUSH2 0x1711 JUMPI PUSH2 0x1711 DUP11 DUP4 DUP2 MLOAD DUP2 LT PUSH2 0x1657 JUMPI PUSH2 0x1657 PUSH2 0x257B JUMP JUMPDEST PUSH1 0x2 DUP11 DUP4 DUP2 MLOAD DUP2 LT PUSH2 0x1725 JUMPI PUSH2 0x1725 PUSH2 0x257B JUMP JUMPDEST PUSH1 0x20 MUL PUSH1 0x20 ADD ADD MLOAD PUSH1 0x40 ADD MLOAD PUSH1 0x2 DUP2 GT ISZERO PUSH2 0x1742 JUMPI PUSH2 0x1742 PUSH2 0x2000 JUMP JUMPDEST SUB PUSH2 0x1775 JUMPI PUSH1 0x2 DUP2 SGT PUSH2 0x1775 JUMPI PUSH2 0x1775 DUP11 DUP4 DUP2 MLOAD DUP2 LT PUSH2 0x1764 JUMPI PUSH2 0x1764 PUSH2 0x257B JUMP JUMPDEST PUSH1 0x20 MUL PUSH1 0x20 ADD ADD MLOAD PUSH0 ADD MLOAD DUP6 PUSH2 0x1C95 JUMP JUMPDEST POP JUMPDEST DUP1 PUSH2 0x1781 DUP2 PUSH2 0x2563 JUMP JUMPDEST SWAP2 POP POP PUSH2 0x14E3 JUMP JUMPDEST POP POP POP POP POP POP POP POP POP POP JUMP JUMPDEST PUSH1 0x2 SLOAD PUSH1 0x1 PUSH1 0x1 PUSH1 0xA0 SHL SUB AND CALLER EQ PUSH2 0x17E7 JUMPI PUSH1 0x40 MLOAD PUSH3 0x461BCD PUSH1 0xE5 SHL DUP2 MSTORE PUSH1 0x20 PUSH1 0x4 DUP3 ADD MSTORE PUSH1 0x15 PUSH1 0x24 DUP3 ADD MSTORE PUSH21 0x13DB9B1E481BDDDB995C8818D85B881C99599D5B99 PUSH1 0x5A SHL PUSH1 0x44 DUP3 ADD MSTORE PUSH1 0x64 ADD PUSH2 0x8AE JUMP JUMPDEST PUSH0 DUP2 DUP2 MSTORE PUSH1 0x3 PUSH1 0x20 MSTORE PUSH1 0x40 SWAP1 KECCAK256 SLOAD ISZERO DUP1 ISZERO SWAP1 PUSH2 0x1826 JUMPI POP PUSH0 DUP2 DUP2 MSTORE PUSH1 0x3 PUSH1 0x20 DUP2 SWAP1 MSTORE PUSH1 0x40 DUP3 KECCAK256 PUSH1 0x4 ADD SLOAD PUSH1 0xFF AND SWAP1 DUP2 GT ISZERO PUSH2 0x1824 JUMPI PUSH2 0x1824 PUSH2 0x2000 JUMP JUMPDEST EQ JUMPDEST PUSH2 0x18A3 JUMPI PUSH1 0x40 MLOAD PUSH3 0x461BCD PUSH1 0xE5 SHL DUP2 MSTORE PUSH1 0x20 PUSH1 0x4 DUP3 ADD MSTORE PUSH1 0x42 PUSH1 0x24 DUP3 ADD MSTORE PUSH32 0x4661696C656420746F20726566756E642064756520746F20496E76616C696420 PUSH1 0x44 DUP3 ADD MSTORE PUSH32 0x52616365204964206F722052616365206D6967687420626520636F6D706C6574 PUSH1 0x64 DUP3 ADD MSTORE PUSH2 0x1959 PUSH1 0xF2 SHL PUSH1 0x84 DUP3 ADD MSTORE PUSH1 0xA4 ADD PUSH2 0x8AE JUMP JUMPDEST PUSH0 JUMPDEST PUSH0 DUP3 DUP2 MSTORE PUSH1 0x9 PUSH1 0x20 MSTORE PUSH1 0x40 SWAP1 KECCAK256 SLOAD DUP2 LT ISZERO PUSH2 0x1936 JUMPI PUSH0 DUP3 DUP2 MSTORE PUSH1 0x9 PUSH1 0x20 MSTORE PUSH1 0x40 SWAP1 KECCAK256 DUP1 SLOAD PUSH2 0x1924 SWAP2 SWAP1 DUP4 SWAP1 DUP2 LT PUSH2 0x18DE JUMPI PUSH2 0x18DE PUSH2 0x257B JUMP JUMPDEST SWAP1 PUSH0 MSTORE PUSH1 0x20 PUSH0 KECCAK256 SWAP1 PUSH1 0x5 MUL ADD PUSH0 ADD SLOAD PUSH1 0x9 PUSH0 DUP6 DUP2 MSTORE PUSH1 0x20 ADD SWAP1 DUP2 MSTORE PUSH1 0x20 ADD PUSH0 KECCAK256 DUP4 DUP2 SLOAD DUP2 LT PUSH2 0x190F JUMPI PUSH2 0x190F PUSH2 0x257B JUMP JUMPDEST SWAP1 PUSH0 MSTORE PUSH1 0x20 PUSH0 KECCAK256 SWAP1 PUSH1 0x5 MUL ADD PUSH1 0x3 ADD SLOAD PUSH2 0x1C95 JUMP JUMPDEST DUP1 PUSH2 0x192E DUP2 PUSH2 0x2563 JUMP JUMPDEST SWAP2 POP POP PUSH2 0x18A5 JUMP JUMPDEST POP PUSH0 DUP2 DUP2 MSTORE PUSH1 0x9 PUSH1 0x20 MSTORE PUSH1 0x40 DUP2 KECCAK256 PUSH2 0x5DC SWAP2 PUSH2 0x1E98 JUMP JUMPDEST PUSH1 0x2 SLOAD PUSH1 0x1 PUSH1 0x1 PUSH1 0xA0 SHL SUB AND CALLER EQ PUSH2 0x19A7 JUMPI PUSH1 0x40 MLOAD PUSH3 0x461BCD PUSH1 0xE5 SHL DUP2 MSTORE PUSH1 0x20 PUSH1 0x4 DUP3 ADD MSTORE PUSH1 0x1E PUSH1 0x24 DUP3 ADD MSTORE PUSH32 0x4F6E6C79206F776E65722063616E2063616E63656C2074686520726163650000 PUSH1 0x44 DUP3 ADD MSTORE PUSH1 0x64 ADD PUSH2 0x8AE JUMP JUMPDEST PUSH0 DUP2 DUP2 MSTORE PUSH1 0x3 PUSH1 0x20 MSTORE PUSH1 0x40 SWAP1 KECCAK256 SLOAD ISZERO DUP1 ISZERO SWAP1 PUSH2 0x19E6 JUMPI POP PUSH0 DUP2 DUP2 MSTORE PUSH1 0x3 PUSH1 0x20 DUP2 SWAP1 MSTORE PUSH1 0x40 DUP3 KECCAK256 PUSH1 0x4 ADD SLOAD PUSH1 0xFF AND SWAP1 DUP2 GT ISZERO PUSH2 0x19E4 JUMPI PUSH2 0x19E4 PUSH2 0x2000 JUMP JUMPDEST EQ JUMPDEST PUSH2 0x1A02 JUMPI PUSH1 0x40 MLOAD PUSH3 0x461BCD PUSH1 0xE5 SHL DUP2 MSTORE PUSH1 0x4 ADD PUSH2 0x8AE SWAP1 PUSH2 0x24FB JUMP JUMPDEST PUSH0 DUP2 DUP2 MSTORE PUSH1 0x3 PUSH1 0x20 DUP2 SWAP1 MSTORE PUSH1 0x40 SWAP1 SWAP2 KECCAK256 PUSH1 0x4 ADD DUP1 SLOAD PUSH1 0xFF NOT AND PUSH1 0x1 DUP4 PUSH2 0x1247 JUMP JUMPDEST PUSH0 DUP1 PUSH1 0x29 TIMESTAMP PUSH1 0x5 SLOAD PUSH1 0x40 MLOAD PUSH1 0x20 ADD PUSH2 0x1A45 SWAP3 SWAP2 SWAP1 SWAP2 DUP3 MSTORE PUSH1 0x20 DUP3 ADD MSTORE PUSH1 0x40 ADD SWAP1 JUMP JUMPDEST PUSH1 0x40 MLOAD PUSH1 0x20 DUP2 DUP4 SUB SUB DUP2 MSTORE SWAP1 PUSH1 0x40 MSTORE DUP1 MLOAD SWAP1 PUSH1 0x20 ADD KECCAK256 PUSH0 SHR PUSH2 0x1A67 SWAP2 SWAP1 PUSH2 0x25CD JUMP JUMPDEST PUSH2 0x1A72 SWAP1 PUSH1 0x14 PUSH2 0x23DE JUMP JUMPDEST PUSH1 0x5 DUP1 SLOAD SWAP2 SWAP3 POP PUSH0 PUSH2 0x1A83 DUP4 PUSH2 0x2563 JUMP JUMPDEST SWAP1 SWAP2 SSTORE POP SWAP1 SWAP3 SWAP2 POP POP JUMP JUMPDEST PUSH1 0x60 DUP3 DUP3 PUSH0 JUMPDEST PUSH1 0x1 DUP4 MLOAD PUSH2 0x1AA2 SWAP2 SWAP1 PUSH2 0x25E0 JUMP JUMPDEST DUP2 LT ISZERO PUSH2 0x1C3D JUMPI PUSH0 JUMPDEST PUSH1 0x1 DUP3 DUP6 MLOAD PUSH2 0x1ABA SWAP2 SWAP1 PUSH2 0x25E0 JUMP JUMPDEST PUSH2 0x1AC4 SWAP2 SWAP1 PUSH2 0x25E0 JUMP JUMPDEST DUP2 LT ISZERO PUSH2 0x1C2A JUMPI DUP4 PUSH2 0x1AD7 DUP3 PUSH1 0x1 PUSH2 0x23DE JUMP JUMPDEST DUP2 MLOAD DUP2 LT PUSH2 0x1AE7 JUMPI PUSH2 0x1AE7 PUSH2 0x257B JUMP JUMPDEST PUSH1 0x20 MUL PUSH1 0x20 ADD ADD MLOAD DUP5 DUP3 DUP2 MLOAD DUP2 LT PUSH2 0x1B01 JUMPI PUSH2 0x1B01 PUSH2 0x257B JUMP JUMPDEST PUSH1 0x20 MUL PUSH1 0x20 ADD ADD MLOAD GT ISZERO PUSH2 0x1C18 JUMPI DUP4 PUSH2 0x1B1B DUP3 PUSH1 0x1 PUSH2 0x23DE JUMP JUMPDEST DUP2 MLOAD DUP2 LT PUSH2 0x1B2B JUMPI PUSH2 0x1B2B PUSH2 0x257B JUMP JUMPDEST PUSH1 0x20 MUL PUSH1 0x20 ADD ADD MLOAD DUP5 DUP3 DUP2 MLOAD DUP2 LT PUSH2 0x1B45 JUMPI PUSH2 0x1B45 PUSH2 0x257B JUMP JUMPDEST PUSH1 0x20 MUL PUSH1 0x20 ADD ADD MLOAD DUP6 DUP4 DUP2 MLOAD DUP2 LT PUSH2 0x1B5F JUMPI PUSH2 0x1B5F PUSH2 0x257B JUMP JUMPDEST PUSH1 0x20 MUL PUSH1 0x20 ADD ADD DUP7 DUP5 PUSH1 0x1 PUSH2 0x1B74 SWAP2 SWAP1 PUSH2 0x23DE JUMP JUMPDEST DUP2 MLOAD DUP2 LT PUSH2 0x1B84 JUMPI PUSH2 0x1B84 PUSH2 0x257B JUMP JUMPDEST PUSH1 0x20 SWAP1 DUP2 MUL SWAP2 SWAP1 SWAP2 ADD ADD SWAP2 SWAP1 SWAP2 MSTORE MSTORE DUP3 PUSH2 0x1B9F DUP3 PUSH1 0x1 PUSH2 0x23DE JUMP JUMPDEST DUP2 MLOAD DUP2 LT PUSH2 0x1BAF JUMPI PUSH2 0x1BAF PUSH2 0x257B JUMP JUMPDEST PUSH1 0x20 MUL PUSH1 0x20 ADD ADD MLOAD DUP4 DUP3 DUP2 MLOAD DUP2 LT PUSH2 0x1BC9 JUMPI PUSH2 0x1BC9 PUSH2 0x257B JUMP JUMPDEST PUSH1 0x20 MUL PUSH1 0x20 ADD ADD MLOAD DUP5 DUP4 DUP2 MLOAD DUP2 LT PUSH2 0x1BE3 JUMPI PUSH2 0x1BE3 PUSH2 0x257B JUMP JUMPDEST PUSH1 0x20 MUL PUSH1 0x20 ADD ADD DUP6 DUP5 PUSH1 0x1 PUSH2 0x1BF8 SWAP2 SWAP1 PUSH2 0x23DE JUMP JUMPDEST DUP2 MLOAD DUP2 LT PUSH2 0x1C08 JUMPI PUSH2 0x1C08 PUSH2 0x257B JUMP JUMPDEST PUSH1 0x20 SWAP1 DUP2 MUL SWAP2 SWAP1 SWAP2 ADD ADD SWAP2 SWAP1 SWAP2 MSTORE MSTORE JUMPDEST DUP1 PUSH2 0x1C22 DUP2 PUSH2 0x2563 JUMP JUMPDEST SWAP2 POP POP PUSH2 0x1AAB JUMP JUMPDEST POP DUP1 PUSH2 0x1C35 DUP2 PUSH2 0x2563 JUMP JUMPDEST SWAP2 POP POP PUSH2 0x1A94 JUMP JUMPDEST POP SWAP5 SWAP4 POP POP POP POP JUMP JUMPDEST PUSH0 DUP1 JUMPDEST DUP4 MLOAD DUP2 LT ISZERO PUSH2 0x1C8B JUMPI DUP3 DUP5 DUP3 DUP2 MLOAD DUP2 LT PUSH2 0x1C65 JUMPI PUSH2 0x1C65 PUSH2 0x257B JUMP JUMPDEST PUSH1 0x20 MUL PUSH1 0x20 ADD ADD MLOAD SUB PUSH2 0x1C79 JUMPI SWAP1 POP PUSH2 0x268 JUMP JUMPDEST DUP1 PUSH2 0x1C83 DUP2 PUSH2 0x2563 JUMP JUMPDEST SWAP2 POP POP PUSH2 0x1C49 JUMP JUMPDEST POP PUSH0 NOT SWAP4 SWAP3 POP POP POP JUMP JUMPDEST PUSH2 0x1CBD PUSH1 0x40 MLOAD DUP1 PUSH1 0x40 ADD PUSH1 0x40 MSTORE DUP1 PUSH1 0x7 DUP2 MSTORE PUSH1 0x20 ADD PUSH7 0x16969696969685 PUSH1 0xC9 SHL DUP2 MSTORE POP PUSH2 0x1D4C JUMP JUMPDEST PUSH2 0x1CE1 PUSH1 0x40 MLOAD DUP1 PUSH1 0x40 ADD PUSH1 0x40 MSTORE DUP1 PUSH1 0x2 DUP2 MSTORE PUSH1 0x20 ADD PUSH2 0x2573 PUSH1 0xF0 SHL DUP2 MSTORE POP DUP4 PUSH2 0x1D8F JUMP JUMPDEST PUSH2 0x1D05 PUSH1 0x40 MLOAD DUP1 PUSH1 0x40 ADD PUSH1 0x40 MSTORE DUP1 PUSH1 0x2 DUP2 MSTORE PUSH1 0x20 ADD PUSH2 0x2573 PUSH1 0xF0 SHL DUP2 MSTORE POP DUP3 PUSH2 0x1D8F JUMP JUMPDEST PUSH0 DUP3 DUP2 MSTORE PUSH1 0x7 PUSH1 0x20 MSTORE PUSH1 0x40 DUP1 DUP3 KECCAK256 PUSH1 0x1 ADD SLOAD SWAP1 MLOAD PUSH1 0x1 PUSH1 0x1 PUSH1 0xA0 SHL SUB SWAP1 SWAP2 AND SWAP2 DUP3 SWAP2 DUP5 ISZERO PUSH2 0x8FC MUL SWAP2 DUP6 SWAP2 SWAP1 DUP2 DUP2 DUP2 DUP6 DUP9 DUP9 CALL SWAP4 POP POP POP POP ISZERO DUP1 ISZERO PUSH2 0x416 JUMPI RETURNDATASIZE PUSH0 DUP1 RETURNDATACOPY RETURNDATASIZE PUSH0 REVERT JUMPDEST PUSH2 0x5DC DUP2 PUSH1 0x40 MLOAD PUSH1 0x24 ADD PUSH2 0x1D60 SWAP2 SWAP1 PUSH2 0x25F3 JUMP JUMPDEST PUSH1 0x40 DUP1 MLOAD PUSH1 0x1F NOT DUP2 DUP5 SUB ADD DUP2 MSTORE SWAP2 SWAP1 MSTORE PUSH1 0x20 DUP2 ADD DUP1 MLOAD PUSH1 0x1 PUSH1 0x1 PUSH1 0xE0 SHL SUB AND PUSH4 0x104C13EB PUSH1 0xE2 SHL OR SWAP1 MSTORE PUSH2 0x1DD8 JUMP JUMPDEST PUSH2 0x1DD4 DUP3 DUP3 PUSH1 0x40 MLOAD PUSH1 0x24 ADD PUSH2 0x1DA5 SWAP3 SWAP2 SWAP1 PUSH2 0x260C JUMP JUMPDEST PUSH1 0x40 DUP1 MLOAD PUSH1 0x1F NOT DUP2 DUP5 SUB ADD DUP2 MSTORE SWAP2 SWAP1 MSTORE PUSH1 0x20 DUP2 ADD DUP1 MLOAD PUSH1 0x1 PUSH1 0x1 PUSH1 0xE0 SHL SUB AND PUSH4 0x2D839CB3 PUSH1 0xE2 SHL OR SWAP1 MSTORE PUSH2 0x1DD8 JUMP JUMPDEST POP POP JUMP JUMPDEST DUP1 MLOAD PUSH11 0x636F6E736F6C652E6C6F67 PUSH1 0x20 DUP4 ADD PUSH0 DUP1 DUP5 DUP4 DUP6 GAS STATICCALL POP POP POP POP POP JUMP JUMPDEST DUP3 DUP1 SLOAD DUP3 DUP3 SSTORE SWAP1 PUSH0 MSTORE PUSH1 0x20 PUSH0 KECCAK256 SWAP1 DUP2 ADD SWAP3 DUP3 ISZERO PUSH2 0x1E31 JUMPI SWAP2 PUSH1 0x20 MUL DUP3 ADD JUMPDEST DUP3 DUP2 GT ISZERO PUSH2 0x1E31 JUMPI DUP3 MLOAD DUP3 SSTORE SWAP2 PUSH1 0x20 ADD SWAP2 SWAP1 PUSH1 0x1 ADD SWAP1 PUSH2 0x1E16 JUMP JUMPDEST POP PUSH2 0x1E3D SWAP3 SWAP2 POP PUSH2 0x1EB6 JUMP JUMPDEST POP SWAP1 JUMP JUMPDEST POP DUP1 SLOAD PUSH0 DUP3 SSTORE SWAP1 PUSH0 MSTORE PUSH1 0x20 PUSH0 KECCAK256 SWAP1 DUP2 ADD SWAP1 PUSH2 0x5DC SWAP2 SWAP1 PUSH2 0x1EB6 JUMP JUMPDEST DUP3 DUP1 SLOAD DUP3 DUP3 SSTORE SWAP1 PUSH0 MSTORE PUSH1 0x20 PUSH0 KECCAK256 SWAP1 DUP2 ADD SWAP3 DUP3 ISZERO PUSH2 0x1E31 JUMPI PUSH0 MSTORE PUSH1 0x20 PUSH0 KECCAK256 SWAP2 DUP3 ADD JUMPDEST DUP3 DUP2 GT ISZERO PUSH2 0x1E31 JUMPI DUP3 SLOAD DUP3 SSTORE SWAP2 PUSH1 0x1 ADD SWAP2 SWAP1 PUSH1 0x1 ADD SWAP1 PUSH2 0x1E7D JUMP JUMPDEST POP DUP1 SLOAD PUSH0 DUP3 SSTORE PUSH1 0x5 MUL SWAP1 PUSH0 MSTORE PUSH1 0x20 PUSH0 KECCAK256 SWAP1 DUP2 ADD SWAP1 PUSH2 0x5DC SWAP2 SWAP1 PUSH2 0x1ECA JUMP JUMPDEST JUMPDEST DUP1 DUP3 GT ISZERO PUSH2 0x1E3D JUMPI PUSH0 DUP2 SSTORE PUSH1 0x1 ADD PUSH2 0x1EB7 JUMP JUMPDEST JUMPDEST DUP1 DUP3 GT ISZERO PUSH2 0x1E3D JUMPI PUSH0 DUP1 DUP3 SSTORE PUSH1 0x1 DUP3 ADD DUP2 SWAP1 SSTORE PUSH1 0x2 DUP3 ADD DUP1 SLOAD PUSH1 0xFF NOT AND SWAP1 SSTORE PUSH1 0x3 DUP3 ADD DUP2 SWAP1 SSTORE PUSH1 0x4 DUP3 ADD SSTORE PUSH1 0x5 ADD PUSH2 0x1ECB JUMP JUMPDEST PUSH4 0x4E487B71 PUSH1 0xE0 SHL PUSH0 MSTORE PUSH1 0x41 PUSH1 0x4 MSTORE PUSH1 0x24 PUSH0 REVERT JUMPDEST PUSH1 0x40 MLOAD PUSH1 0x1F DUP3 ADD PUSH1 0x1F NOT AND DUP2 ADD PUSH8 0xFFFFFFFFFFFFFFFF DUP2 GT DUP3 DUP3 LT OR ISZERO PUSH2 0x1F3B JUMPI PUSH2 0x1F3B PUSH2 0x1EFE JUMP JUMPDEST PUSH1 0x40 MSTORE SWAP2 SWAP1 POP JUMP JUMPDEST PUSH0 DUP3 PUSH1 0x1F DUP4 ADD SLT PUSH2 0x1F52 JUMPI PUSH0 DUP1 REVERT JUMPDEST DUP2 CALLDATALOAD PUSH8 0xFFFFFFFFFFFFFFFF DUP2 GT ISZERO PUSH2 0x1F6C JUMPI PUSH2 0x1F6C PUSH2 0x1EFE JUMP JUMPDEST PUSH2 0x1F7F PUSH1 0x1F DUP3 ADD PUSH1 0x1F NOT AND PUSH1 0x20 ADD PUSH2 0x1F12 JUMP JUMPDEST DUP2 DUP2 MSTORE DUP5 PUSH1 0x20 DUP4 DUP7 ADD ADD GT ISZERO PUSH2 0x1F93 JUMPI PUSH0 DUP1 REVERT JUMPDEST DUP2 PUSH1 0x20 DUP6 ADD PUSH1 0x20 DUP4 ADD CALLDATACOPY PUSH0 SWAP2 DUP2 ADD PUSH1 0x20 ADD SWAP2 SWAP1 SWAP2 MSTORE SWAP4 SWAP3 POP POP POP JUMP JUMPDEST PUSH0 PUSH1 0x20 DUP3 DUP5 SUB SLT ISZERO PUSH2 0x1FBF JUMPI PUSH0 DUP1 REVERT JUMPDEST DUP2 CALLDATALOAD PUSH8 0xFFFFFFFFFFFFFFFF DUP2 GT ISZERO PUSH2 0x1FD5 JUMPI PUSH0 DUP1 REVERT JUMPDEST PUSH2 0x1FE1 DUP5 DUP3 DUP6 ADD PUSH2 0x1F43 JUMP JUMPDEST SWAP5 SWAP4 POP POP POP POP JUMP JUMPDEST PUSH0 PUSH1 0x20 DUP3 DUP5 SUB SLT ISZERO PUSH2 0x1FF9 JUMPI PUSH0 DUP1 REVERT JUMPDEST POP CALLDATALOAD SWAP2 SWAP1 POP JUMP JUMPDEST PUSH4 0x4E487B71 PUSH1 0xE0 SHL PUSH0 MSTORE PUSH1 0x21 PUSH1 0x4 MSTORE PUSH1 0x24 PUSH0 REVERT JUMPDEST PUSH1 0x20 DUP1 DUP3 MSTORE DUP3 MLOAD DUP3 DUP3 ADD DUP2 SWAP1 MSTORE PUSH0 SWAP2 SWAP1 PUSH1 0x40 SWAP1 DUP2 DUP6 ADD SWAP1 DUP7 DUP5 ADD DUP6 DUP1 JUMPDEST DUP4 DUP2 LT ISZERO PUSH2 0x2091 JUMPI DUP3 MLOAD DUP1 MLOAD DUP7 MSTORE DUP8 DUP2 ADD MLOAD DUP9 DUP8 ADD MSTORE DUP7 DUP2 ADD MLOAD PUSH1 0x3 DUP2 LT PUSH2 0x2067 JUMPI PUSH4 0x4E487B71 PUSH1 0xE0 SHL DUP5 MSTORE PUSH1 0x21 PUSH1 0x4 MSTORE PUSH1 0x24 DUP5 REVERT JUMPDEST DUP7 DUP9 ADD MSTORE PUSH1 0x60 DUP2 DUP2 ADD MLOAD SWAP1 DUP8 ADD MSTORE PUSH1 0x80 SWAP1 DUP2 ADD MLOAD SWAP1 DUP7 ADD MSTORE PUSH1 0xA0 SWAP1 SWAP5 ADD SWAP4 SWAP2 DUP7 ADD SWAP2 PUSH1 0x1 ADD PUSH2 0x2031 JUMP JUMPDEST POP SWAP3 SWAP9 SWAP8 POP POP POP POP POP POP POP POP JUMP JUMPDEST PUSH0 DUP3 PUSH1 0x1F DUP4 ADD SLT PUSH2 0x20AE JUMPI PUSH0 DUP1 REVERT JUMPDEST DUP2 CALLDATALOAD PUSH1 0x20 PUSH8 0xFFFFFFFFFFFFFFFF DUP3 GT ISZERO PUSH2 0x20CA JUMPI PUSH2 0x20CA PUSH2 0x1EFE JUMP JUMPDEST DUP2 PUSH1 0x5 SHL PUSH2 0x20D9 DUP3 DUP3 ADD PUSH2 0x1F12 JUMP JUMPDEST SWAP3 DUP4 MSTORE DUP5 DUP2 ADD DUP3 ADD SWAP3 DUP3 DUP2 ADD SWAP1 DUP8 DUP6 GT ISZERO PUSH2 0x20F2 JUMPI PUSH0 DUP1 REVERT JUMPDEST DUP4 DUP8 ADD SWAP3 POP JUMPDEST DUP5 DUP4 LT ISZERO PUSH2 0x2111 JUMPI DUP3 CALLDATALOAD DUP3 MSTORE SWAP2 DUP4 ADD SWAP2 SWAP1 DUP4 ADD SWAP1 PUSH2 0x20F8 JUMP JUMPDEST SWAP8 SWAP7 POP POP POP POP POP POP POP JUMP JUMPDEST PUSH0 DUP1 PUSH0 PUSH1 0x60 DUP5 DUP7 SUB SLT ISZERO PUSH2 0x212E JUMPI PUSH0 DUP1 REVERT JUMPDEST DUP4 CALLDATALOAD PUSH8 0xFFFFFFFFFFFFFFFF DUP1 DUP3 GT ISZERO PUSH2 0x2145 JUMPI PUSH0 DUP1 REVERT JUMPDEST PUSH2 0x2151 DUP8 DUP4 DUP9 ADD PUSH2 0x1F43 JUMP JUMPDEST SWAP5 POP PUSH1 0x20 DUP7 ADD CALLDATALOAD SWAP2 POP DUP1 DUP3 GT ISZERO PUSH2 0x2166 JUMPI PUSH0 DUP1 REVERT JUMPDEST PUSH2 0x2172 DUP8 DUP4 DUP9 ADD PUSH2 0x209F JUMP JUMPDEST SWAP4 POP PUSH1 0x40 DUP7 ADD CALLDATALOAD SWAP2 POP DUP1 DUP3 GT ISZERO PUSH2 0x2187 JUMPI PUSH0 DUP1 REVERT JUMPDEST POP PUSH2 0x2194 DUP7 DUP3 DUP8 ADD PUSH2 0x209F JUMP JUMPDEST SWAP2 POP POP SWAP3 POP SWAP3 POP SWAP3 JUMP JUMPDEST PUSH0 DUP1 PUSH0 DUP1 PUSH1 0x80 DUP6 DUP8 SUB SLT ISZERO PUSH2 0x21B1 JUMPI PUSH0 DUP1 REVERT JUMPDEST DUP5 CALLDATALOAD PUSH8 0xFFFFFFFFFFFFFFFF DUP2 GT ISZERO PUSH2 0x21C7 JUMPI PUSH0 DUP1 REVERT JUMPDEST PUSH2 0x21D3 DUP8 DUP3 DUP9 ADD PUSH2 0x1F43 JUMP JUMPDEST SWAP8 PUSH1 0x20 DUP8 ADD CALLDATALOAD SWAP8 POP PUSH1 0x40 DUP8 ADD CALLDATALOAD SWAP7 PUSH1 0x60 ADD CALLDATALOAD SWAP6 POP SWAP4 POP POP POP POP JUMP JUMPDEST PUSH0 DUP2 MLOAD DUP1 DUP5 MSTORE PUSH0 JUMPDEST DUP2 DUP2 LT ISZERO PUSH2 0x2212 JUMPI PUSH1 0x20 DUP2 DUP6 ADD DUP2 ADD MLOAD DUP7 DUP4 ADD DUP3 ADD MSTORE ADD PUSH2 0x21F6 JUMP JUMPDEST POP PUSH0 PUSH1 0x20 DUP3 DUP7 ADD ADD MSTORE PUSH1 0x20 PUSH1 0x1F NOT PUSH1 0x1F DUP4 ADD AND DUP6 ADD ADD SWAP2 POP POP SWAP3 SWAP2 POP POP JUMP JUMPDEST DUP1 MLOAD DUP3 MSTORE PUSH0 PUSH1 0x20 DUP3 ADD MLOAD PUSH1 0x40 PUSH1 0x20 DUP6 ADD MSTORE PUSH2 0x1FE1 PUSH1 0x40 DUP6 ADD DUP3 PUSH2 0x21EE JUMP JUMPDEST PUSH0 PUSH1 0x20 DUP1 DUP4 ADD DUP2 DUP5 MSTORE DUP1 DUP6 MLOAD DUP1 DUP4 MSTORE PUSH1 0x40 DUP7 ADD SWAP2 POP PUSH1 0x40 DUP2 PUSH1 0x5 SHL DUP8 ADD ADD SWAP3 POP DUP4 DUP8 ADD PUSH0 JUMPDEST DUP3 DUP2 LT ISZERO PUSH2 0x22A2 JUMPI PUSH1 0x3F NOT DUP9 DUP7 SUB ADD DUP5 MSTORE PUSH2 0x2290 DUP6 DUP4 MLOAD PUSH2 0x2231 JUMP JUMPDEST SWAP5 POP SWAP3 DUP6 ADD SWAP3 SWAP1 DUP6 ADD SWAP1 PUSH1 0x1 ADD PUSH2 0x2274 JUMP JUMPDEST POP SWAP3 SWAP8 SWAP7 POP POP POP POP POP POP POP JUMP JUMPDEST PUSH0 PUSH1 0x20 DUP1 DUP4 ADD DUP2 DUP5 MSTORE DUP1 DUP6 MLOAD DUP1 DUP4 MSTORE PUSH1 0x40 DUP7 ADD SWAP2 POP PUSH1 0x40 DUP2 PUSH1 0x5 SHL DUP8 ADD ADD SWAP3 POP DUP4 DUP8 ADD PUSH0 JUMPDEST DUP3 DUP2 LT ISZERO PUSH2 0x22A2 JUMPI PUSH1 0x3F NOT DUP9 DUP7 SUB ADD DUP5 MSTORE PUSH2 0x22F0 DUP6 DUP4 MLOAD PUSH2 0x2231 JUMP JUMPDEST SWAP5 POP SWAP3 DUP6 ADD SWAP3 SWAP1 DUP6 ADD SWAP1 PUSH1 0x1 ADD PUSH2 0x22D4 JUMP JUMPDEST PUSH1 0x20 DUP2 MSTORE DUP2 MLOAD PUSH1 0x20 DUP3 ADD MSTORE PUSH1 0x1 DUP1 PUSH1 0xA0 SHL SUB PUSH1 0x20 DUP4 ADD MLOAD AND PUSH1 0x40 DUP3 ADD MSTORE PUSH0 PUSH1 0x40 DUP4 ADD MLOAD PUSH1 0x60 DUP1 DUP5 ADD MSTORE PUSH2 0x1FE1 PUSH1 0x80 DUP5 ADD DUP3 PUSH2 0x21EE JUMP JUMPDEST PUSH0 DUP1 PUSH1 0x40 DUP4 DUP6 SUB SLT ISZERO PUSH2 0x2349 JUMPI PUSH0 DUP1 REVERT JUMPDEST DUP3 CALLDATALOAD PUSH8 0xFFFFFFFFFFFFFFFF DUP2 GT ISZERO PUSH2 0x235F JUMPI PUSH0 DUP1 REVERT JUMPDEST PUSH2 0x236B DUP6 DUP3 DUP7 ADD PUSH2 0x1F43 JUMP JUMPDEST SWAP3 POP POP PUSH1 0x20 DUP4 ADD CALLDATALOAD PUSH1 0x1 PUSH1 0x1 PUSH1 0xA0 SHL SUB DUP2 AND DUP2 EQ PUSH2 0x2387 JUMPI PUSH0 DUP1 REVERT JUMPDEST DUP1 SWAP2 POP POP SWAP3 POP SWAP3 SWAP1 POP JUMP JUMPDEST PUSH1 0x1 DUP2 DUP2 SHR SWAP1 DUP3 AND DUP1 PUSH2 0x23A6 JUMPI PUSH1 0x7F DUP3 AND SWAP2 POP JUMPDEST PUSH1 0x20 DUP3 LT DUP2 SUB PUSH2 0x23C4 JUMPI PUSH4 0x4E487B71 PUSH1 0xE0 SHL PUSH0 MSTORE PUSH1 0x22 PUSH1 0x4 MSTORE PUSH1 0x24 PUSH0 REVERT JUMPDEST POP SWAP2 SWAP1 POP JUMP JUMPDEST PUSH4 0x4E487B71 PUSH1 0xE0 SHL PUSH0 MSTORE PUSH1 0x11 PUSH1 0x4 MSTORE PUSH1 0x24 PUSH0 REVERT JUMPDEST DUP1 DUP3 ADD DUP1 DUP3 GT ISZERO PUSH2 0x268 JUMPI PUSH2 0x268 PUSH2 0x23CA JUMP JUMPDEST PUSH1 0x1F DUP3 GT ISZERO PUSH2 0x243A JUMPI PUSH0 DUP2 DUP2 MSTORE PUSH1 0x20 DUP2 KECCAK256 PUSH1 0x1F DUP6 ADD PUSH1 0x5 SHR DUP2 ADD PUSH1 0x20 DUP7 LT ISZERO PUSH2 0x2417 JUMPI POP DUP1 JUMPDEST PUSH1 0x1F DUP6 ADD PUSH1 0x5 SHR DUP3 ADD SWAP2 POP JUMPDEST DUP2 DUP2 LT ISZERO PUSH2 0x2436 JUMPI DUP3 DUP2 SSTORE PUSH1 0x1 ADD PUSH2 0x2423 JUMP JUMPDEST POP POP POP JUMPDEST POP POP POP JUMP JUMPDEST DUP2 MLOAD PUSH8 0xFFFFFFFFFFFFFFFF DUP2 GT ISZERO PUSH2 0x2459 JUMPI PUSH2 0x2459 PUSH2 0x1EFE JUMP JUMPDEST PUSH2 0x246D DUP2 PUSH2 0x2467 DUP5 SLOAD PUSH2 0x2392 JUMP JUMPDEST DUP5 PUSH2 0x23F1 JUMP JUMPDEST PUSH1 0x20 DUP1 PUSH1 0x1F DUP4 GT PUSH1 0x1 DUP2 EQ PUSH2 0x24A0 JUMPI PUSH0 DUP5 ISZERO PUSH2 0x2489 JUMPI POP DUP6 DUP4 ADD MLOAD JUMPDEST PUSH0 NOT PUSH1 0x3 DUP7 SWAP1 SHL SHR NOT AND PUSH1 0x1 DUP6 SWAP1 SHL OR DUP6 SSTORE PUSH2 0x2436 JUMP JUMPDEST PUSH0 DUP6 DUP2 MSTORE PUSH1 0x20 DUP2 KECCAK256 PUSH1 0x1F NOT DUP7 AND SWAP2 JUMPDEST DUP3 DUP2 LT ISZERO PUSH2 0x24CE JUMPI DUP9 DUP7 ADD MLOAD DUP3 SSTORE SWAP5 DUP5 ADD SWAP5 PUSH1 0x1 SWAP1 SWAP2 ADD SWAP1 DUP5 ADD PUSH2 0x24AF JUMP JUMPDEST POP DUP6 DUP3 LT ISZERO PUSH2 0x24EB JUMPI DUP8 DUP6 ADD MLOAD PUSH0 NOT PUSH1 0x3 DUP9 SWAP1 SHL PUSH1 0xF8 AND SHR NOT AND DUP2 SSTORE JUMPDEST POP POP POP POP POP PUSH1 0x1 SWAP1 DUP2 SHL ADD SWAP1 SSTORE POP JUMP JUMPDEST PUSH1 0x20 DUP1 DUP3 MSTORE PUSH1 0x42 SWAP1 DUP3 ADD MSTORE PUSH32 0x4661696C656420746F2063616E63656C2064756520746F20496E76616C696420 PUSH1 0x40 DUP3 ADD MSTORE PUSH32 0x52616365204964206F722052616365206D6967687420626520636F6D706C6574 PUSH1 0x60 DUP3 ADD MSTORE PUSH2 0x1959 PUSH1 0xF2 SHL PUSH1 0x80 DUP3 ADD MSTORE PUSH1 0xA0 ADD SWAP1 JUMP JUMPDEST PUSH0 PUSH1 0x1 DUP3 ADD PUSH2 0x2574 JUMPI PUSH2 0x2574 PUSH2 0x23CA JUMP JUMPDEST POP PUSH1 0x1 ADD SWAP1 JUMP JUMPDEST PUSH4 0x4E487B71 PUSH1 0xE0 SHL PUSH0 MSTORE PUSH1 0x32 PUSH1 0x4 MSTORE PUSH1 0x24 PUSH0 REVERT JUMPDEST PUSH4 0x4E487B71 PUSH1 0xE0 SHL PUSH0 MSTORE PUSH1 0x12 PUSH1 0x4 MSTORE PUSH1 0x24 PUSH0 REVERT JUMPDEST PUSH0 DUP3 PUSH2 0x25B1 JUMPI PUSH2 0x25B1 PUSH2 0x258F JUMP JUMPDEST POP DIV SWAP1 JUMP JUMPDEST DUP1 DUP3 MUL DUP2 ISZERO DUP3 DUP3 DIV DUP5 EQ OR PUSH2 0x268 JUMPI PUSH2 0x268 PUSH2 0x23CA JUMP JUMPDEST PUSH0 DUP3 PUSH2 0x25DB JUMPI PUSH2 0x25DB PUSH2 0x258F JUMP JUMPDEST POP MOD SWAP1 JUMP JUMPDEST DUP2 DUP2 SUB DUP2 DUP2 GT ISZERO PUSH2 0x268 JUMPI PUSH2 0x268 PUSH2 0x23CA JUMP JUMPDEST PUSH1 0x20 DUP2 MSTORE PUSH0 PUSH2 0x2605 PUSH1 0x20 DUP4 ADD DUP5 PUSH2 0x21EE JUMP JUMPDEST SWAP4 SWAP3 POP POP POP JUMP JUMPDEST PUSH1 0x40 DUP2 MSTORE PUSH0 PUSH2 0x261E PUSH1 0x40 DUP4 ADD DUP6 PUSH2 0x21EE JUMP JUMPDEST SWAP1 POP DUP3 PUSH1 0x20 DUP4 ADD MSTORE SWAP4 SWAP3 POP POP POP JUMP INVALID LOG2 PUSH5 0x6970667358 0x22 SLT KECCAK256 0xA8 0xAE 0xDC 0xD4 0x4E PUSH19 0x8A01B18B5E56C836273565DB5D8005B73050C1 BYTE AND 0x1E PUSH11 0xB8CF5764736F6C63430008 EQ STOP CALLER "
		},
		"gasEstimates": {
			"creation": {
				"codeDepositCost": "1965400",
				"executionCost": "26317",
				"totalCost": "1991717"
			},
			"external": {
				"addNewHorse(string)": "infinite",
				"addNewJockey(string)": "infinite",
				"cancelRace(uint256)": "infinite",
				"createRace(string,uint256[],uint256[])": "infinite",
				"createUser(string,address)": "infinite",
				"getBets(uint256)": "infinite",
				"getHorses()": "infinite",
				"getJockeys()": "infinite",
				"logInUser(uint256)": "infinite",
				"owner()": "2425",
				"performRace(uint256)": "infinite",
				"placeNewBet(string,uint256,uint256,uint256)": "infinite"
			}
		},
		"methodIdentifiers": {
			"addNewHorse(string)": "040c0abb",
			"addNewJockey(string)": "9fd13307",
			"cancelRace(uint256)": "d596380e",
			"createRace(string,uint256[],uint256[])": "2339d156",
			"createUser(string,address)": "f555ffb4",
			"getBets(uint256)": "1ccf6955",
			"getHorses()": "90adec6f",
			"getJockeys()": "dd8d9249",
			"logInUser(uint256)": "e1cbd1cb",
			"owner()": "8da5cb5b",
			"performRace(uint256)": "a20a00d1",
			"placeNewBet(string,uint256,uint256,uint256)": "7c000932"
		}
	},
	"abi": [
		{
			"inputs": [
				{
					"internalType": "string",
					"name": "horseName",
					"type": "string"
				}
			],
			"name": "addNewHorse",
			"outputs": [
				{
					"internalType": "bool",
					"name": "",
					"type": "bool"
				}
			],
			"stateMutability": "nonpayable",
			"type": "function"
		},
		{
			"inputs": [
				{
					"internalType": "string",
					"name": "jockeyName",
					"type": "string"
				}
			],
			"name": "addNewJockey",
			"outputs": [
				{
					"internalType": "bool",
					"name": "",
					"type": "bool"
				}
			],
			"stateMutability": "nonpayable",
			"type": "function"
		},
		{
			"inputs": [
				{
					"internalType": "uint256",
					"name": "raceId",
					"type": "uint256"
				}
			],
			"name": "cancelRace",
			"outputs": [],
			"stateMutability": "nonpayable",
			"type": "function"
		},
		{
			"inputs": [
				{
					"internalType": "string",
					"name": "locationId",
					"type": "string"
				},
				{
					"internalType": "uint256[]",
					"name": "participatingHorses",
					"type": "uint256[]"
				},
				{
					"internalType": "uint256[]",
					"name": "participatingJockeys",
					"type": "uint256[]"
				}
			],
			"name": "createRace",
			"outputs": [],
			"stateMutability": "nonpayable",
			"type": "function"
		},
		{
			"inputs": [
				{
					"internalType": "string",
					"name": "name",
					"type": "string"
				},
				{
					"internalType": "address",
					"name": "walletAddress",
					"type": "address"
				}
			],
			"name": "createUser",
			"outputs": [],
			"stateMutability": "nonpayable",
			"type": "function"
		},
		{
			"inputs": [
				{
					"internalType": "uint256",
					"name": "raceId",
					"type": "uint256"
				}
			],
			"name": "getBets",
			"outputs": [
				{
					"components": [
						{
							"internalType": "uint256",
							"name": "userId",
							"type": "uint256"
						},
						{
							"internalType": "uint256",
							"name": "raceId",
							"type": "uint256"
						},
						{
							"internalType": "enum BetType",
							"name": "betType",
							"type": "uint8"
						},
						{
							"internalType": "uint256",
							"name": "amount",
							"type": "uint256"
						},
						{
							"internalType": "uint256",
							"name": "horseId",
							"type": "uint256"
						}
					],
					"internalType": "struct Bet[]",
					"name": "",
					"type": "tuple[]"
				}
			],
			"stateMutability": "view",
			"type": "function"
		},
		{
			"inputs": [],
			"name": "getHorses",
			"outputs": [
				{
					"components": [
						{
							"internalType": "uint256",
							"name": "horseId",
							"type": "uint256"
						},
						{
							"internalType": "string",
							"name": "horseName",
							"type": "string"
						}
					],
					"internalType": "struct Horse[]",
					"name": "",
					"type": "tuple[]"
				}
			],
			"stateMutability": "view",
			"type": "function"
		},
		{
			"inputs": [],
			"name": "getJockeys",
			"outputs": [
				{
					"components": [
						{
							"internalType": "uint256",
							"name": "jockeyId",
							"type": "uint256"
						},
						{
							"internalType": "string",
							"name": "jockeyName",
							"type": "string"
						}
					],
					"internalType": "struct Jockey[]",
					"name": "",
					"type": "tuple[]"
				}
			],
			"stateMutability": "view",
			"type": "function"
		},
		{
			"inputs": [
				{
					"internalType": "uint256",
					"name": "userId",
					"type": "uint256"
				}
			],
			"name": "logInUser",
			"outputs": [
				{
					"components": [
						{
							"internalType": "uint256",
							"name": "userId",
							"type": "uint256"
						},
						{
							"internalType": "address",
							"name": "userWalletAddress",
							"type": "address"
						},
						{
							"internalType": "string",
							"name": "name",
							"type": "string"
						}
					],
					"internalType": "struct User",
					"name": "",
					"type": "tuple"
				}
			],
			"stateMutability": "view",
			"type": "function"
		},
		{
			"inputs": [],
			"name": "owner",
			"outputs": [
				{
					"internalType": "address",
					"name": "",
					"type": "address"
				}
			],
			"stateMutability": "view",
			"type": "function"
		},
		{
			"inputs": [
				{
					"internalType": "uint256",
					"name": "raceId",
					"type": "uint256"
				}
			],
			"name": "performRace",
			"outputs": [],
			"stateMutability": "nonpayable",
			"type": "function"
		},
		{
			"inputs": [
				{
					"internalType": "string",
					"name": "betType",
					"type": "string"
				},
				{
					"internalType": "uint256",
					"name": "raceId",
					"type": "uint256"
				},
				{
					"internalType": "uint256",
					"name": "userId",
					"type": "uint256"
				},
				{
					"internalType": "uint256",
					"name": "horseId",
					"type": "uint256"
				}
			],
			"name": "placeNewBet",
			"outputs": [],
			"stateMutability": "payable",
			"type": "function"
		}
	]
}